:100000000C94FE000C941B010C941B010C941B011E
:100010000C941B010C941B010C941B010C941B01F0
:100020000C941B010C941B010C941B010C941B01E0
:100030000C941B010C941B010C941B010C941B01D0
:100040000C941B010C941B010C941B010C941B01C0
:100050000C941B010C941B010C941B010C941B01B0
:100060000C941B010C941B010C941B010C941B01A0
:100070000C941B010C941B010C941B010C941B0190
:100080000C941B010C941B010C941B010C941B0180
:100090000C941B010C941B010C941B010C941B0170
:1000A0000C941B010C941B010C941B010C941B0160
:1000B0000C941B010C941B010C941B010C941B0150
:1000C0000C941B010C941B010C941B010C941B0140
:1000D0000C941B010C941B010C941B010C941B0130
:1000E0000C941B010C941B010C941B010C941B0120
:1000F0000C941B010C941B010C941B010C941B0110
:100100000C941B010C941B010C941B010C941B01FF
:100110000C941B010C941B010C941B010C941B01EF
:100120000C941B010C941B010C941B010C941B01DF
:100130000C941B010C941B010C941B010C941B01CF
:100140000C941B010C941B010C941B010C941B01BF
:100150000C941B010C941B010C941B010C941B01AF
:100160000C941B010C941B010C941B010C94B30404
:100170000C9479040C941B010C941B010C941B012E
:100180000C941B010C941B010C941B010C941B017F
:100190000C941B010C941B010C941B010C941B016F
:1001A0000C941B010C941B010C941B010C941B015F
:1001B0000C941B010C941B010C941B010C941B014F
:1001C0000C941B010C941B010C941B010C941B013F
:1001D0000C941B010C941B010C941B010C941B012F
:1001E0000C941B010C941B010C941B010C941B011F
:1001F0000C941B010C941B010C941B0111241FBEB9
:10020000CFEFCDBFD7E2DEBF10E2A0E0B0E2E8E37F
:10021000FDE002C005900D92AA34B107D9F720E2A3
:10022000AAE4B0E201C01D92A337B207E1F70E9431
:10023000ED040C949A060C9400000F931F93CF9337
:10024000DF93082F162FD42FC22F84E090E00E9456
:100250003E05FC0100831183D2838381C0FB80F9BA
:100260008383CF01DF91CF911F910F9108950F9359
:100270001F93CF93DF938C01EB0184E090E00E9409
:100280003E05FC0102831383C083D183DF91CF91AC
:100290001F910F91089587E090E00E943E05FC01B8
:1002A000168214821582108211821282138208959E
:1002B000FC0182819381892B51F462837383DB017A
:1002C0001D921C92828193818083918307C08081DB
:1002D0009181DB018D939C936083718380819181F7
:1002E0008483958386818F5F86830895EF92FF9242
:1002F0000F931F93CF93DF938C01EB01DC01ED9003
:10030000FC900E944B01B7010E943701BC01C8015B
:100310000E9458018A859B850E945F06E82E888589
:1003200099850E945F06F82E8E819F810E945F064C
:10033000EC81FD812E2D4F2D682F80810E941D01A3
:1003400060E070E00E943701D801ED91FC91BC01A2
:10035000828193810E945801DF91CF911F910F916B
:10036000FF90EF900895CF93DF9380E190E00E949B
:100370003E05EC0180E190E00E943E058883998370
:10038000FC01108280E190E00E943E058A839B83FD
:10039000FC01108280E190E00E943E058C839D83E9
:1003A000FC01108280E190E00E943E058E839F83D5
:1003B000FC01108280E190E00E943E0588879987C9
:1003C000FC01108280E190E00E943E058A879B87B5
:1003D000FC01108280E190E00E943E058E879F879D
:1003E000FC011082CE01DF91CF9108950F931F93EE
:1003F000CF93DF938C01EB010E949F03BC018881A6
:1004000099810E947D066881798142E050E0809167
:100410001420909115200E948406892B09F04EC06B
:10042000C8010E949F03BC018A819B810E947D06B6
:10043000C8010E949F03BC018C819D810E947D06A2
:10044000C8010E949F03BC018E819F810E947D068E
:10045000C8010E949F03BC01888599850E947D0682
:10046000C8010E949F03BC018A859B850E947D066E
:10047000C8010E949F03BC018C859D850E947D065A
:10048000C8010E949F03BC018E859F850E947D0646
:100490006E857F8542E050E080911220909113207C
:1004A0000E948406892B29F4C8010E94D50381E0AB
:1004B00009C0C8010E94D50380E004C0C8010E94A1
:1004C000D50380E0DF91CF911F910F910895CF93D5
:1004D000DF93FC01C281D38143E050E0BE018091F3
:1004E0001020909111200E948406892B71F143E025
:1004F00050E0BE0180910E2090910F200E94840652
:10050000892B29F143E050E0BE0180910C209091AD
:100510000D200E948406892BE1F043E050E0BE01EB
:1005200080910A2090910B200E948406892B99F0DB
:1005300043E050E0BE0180910820909109200E9484
:100540008406892B51F482E009C086E007C085E06B
:1005500005C084E003C083E001C081E0DF91CF915A
:100560000895E0914E20F0914F209589892F817058
:1005700090FD81E008950E9437040895CF93DF93A2
:10058000EC0183E390E20E9437048FEB9AED019730
:10059000F1F700C0000087E390E20E9437049FEF6C
:1005A00028EA81E0915020408040E1F700C000003F
:1005B000CE010E9437048FEB9AED0197F1F700C04E
:1005C00000008FE390E20E9437048FEB9AED0197D1
:1005D000F1F700C000008FE390E20E9437048FEB38
:1005E0009AED0197F1F700C000008FE390E20E94BE
:1005F00037048FEB9AED0197F1F700C000008FE30D
:1006000090E20E9437048FEB9AED0197F1F700C05A
:10061000000082E490E20E9437048FEB9AED01978C
:10062000F1F700C0000081E0DF91CF910895CF93F2
:10063000DF9386E090E00E943E05EC0160E180914E
:100640004E2090914F200E944B0380934E20909318
:100650004F2026E047E060E676E080EB99E00E94DC
:10066000F50380914A2090914B200E94B301809322
:100670004A2090934B2081EB92E08C839D838BEBFF
:1006800092E0888399838EEB92E08A839B83CE01EC
:10069000DF91CF910895EF92FF920F931F93CF9325
:1006A000DF93062F86E190E00E943E057C0110E07A
:1006B0000FC0C12FD0E0802F90E00E943E05CC0FEC
:1006C000DD1FCE0DDF1D88839983FC0110821F5F23
:1006D000193078F3802F90E00E943E05F701828B5D
:1006E000938BFC011082F701148A85898E7F8260CA
:1006F000858BC701DF91CF911F910F91FF90EF90F4
:100700000895CF93DF93EC01EC89E93060F481E048
:100710008E0F8C8BF0E0EE0FFF1FEC0FFD1F808122
:1007200091810E947D068D898D7F8D8B8C8988308B
:1007300019F48D8981608D8BDF91CF9108951F937E
:10074000CF93DF93EC01688179818A899B890E942C
:100750007D0610E014C0812F90E0FC013196EE0F71
:10076000FF1FEC0FFD1F60817181880F991FFE0133
:10077000E80FF91F808191810E947D061F5F8C899F
:10078000181748F3882311F081508C8B8D898E7F48
:100790008D8B8C89811103C08D8982608D8B8A89B4
:1007A0009B89DF91CF911F910895DC0190E00BC0F0
:1007B000E92FF0E0EE0FFF1FEA0FFB1F0190F08121
:1007C000E02D10829F5F993098F35296ED91FC9145
:1007D0005397108254961C92549755968C91559726
:1007E0008E7F826055968C930895FB0180935220F2
:1007F0009093532081E090E0BC0102C0660F771F08
:100800004A95E2F76583618302C0880F991F2A9594
:10081000E2F78283E0915220F09153208CE08683AE
:1008200080E4878383E0858380E2838382E0809312
:10083000A20084818861848380E006C0E82FF0E014
:10084000EA5AFF4D10828F5F8031C0F380E190E063
:100850000E943E05809366209093672080E190E09F
:100860000E943E0580935420909355200895BC012A
:1008700080915420909155200E947D06E091522055
:10088000F0915320838182608383089590EE980FC6
:100890009F3550F4E091512091E09E0F90935120AC
:1008A000F0E0EA5AFF4D80838D3031F0882321F04B
:1008B000809151208D30D0F0A0915120E1E0EA0FDD
:1008C000B0E0AA5ABF4D8AE08C9381E08E0FF0E031
:1008D000EA5AFF4D9DE09083E82FF0E0EA5AFF4D81
:1008E00010821092512086E590E2089580E090E019
:1008F00008951F920F920FB60F9211248F939F931A
:10090000EF93FF9390915020E0915420F091552067
:10091000E90FF11D8081882331F0803298F48A300C
:1009200089F08D3079F0E0915220F09153201082BF
:10093000E0915220F091532083818D7F8383109228
:10094000502008C0E0915220F09153209F5F909377
:1009500050208083FF91EF919F918F910F900FBE58
:100960000F901F9018951F920F920FB60F9211249F
:100970002F933F934F935F936F937F938F939F93A7
:10098000AF93BF93EF93FF93E0915220F0915320E8
:1009900080810E9446048093662090936720009790
:1009A00059F0BC0180914E2090914F200E9481030C
:1009B0001092662010926720FF91EF91BF91AF9146
:1009C0009F918F917F916F915F914F913F912F9167
:1009D0000F900FBE0F901F9018950E9431058091C7
:1009E0004C2090914D200E94170380934C209093AF
:1009F0004D207894E0914C20F0914D200480F581B9
:100A0000E02D09958130B1F760914A2070914B201B
:100A100080914E2090914F200E94F60180914A20B3
:100A200090914B200E946702823049F0833081F020
:100A3000813001F786E490E20E94BE02DBCF609134
:100A40004A2070914B2088E690E20E947601D2CF36
:100A500060914A2070914B2088E690E20E947601D6
:100A6000C9CF82E0809350008091510081FFFCCF7C
:100A700088ED84BF81E08093400008950F931F9319
:100A8000CF93DF938230910510F482E090E0E09103
:100A90007120F091722020E030E0A0E0B0E03097CB
:100AA00019F1408151810281138148175907C8F01B
:100AB0008417950769F4109731F012960C931297EA
:100AC00013961C9327C0009371201093722022C0AC
:100AD0002115310519F04217530718F49A01BD0189
:100AE000EF01DF01F801DBCF21153105F9F0281BFB
:100AF000390B2430310580F48A819B8161157105A1
:100B000021F0FB018283938304C080937120909332
:100B10007220FE01329644C0FE01E20FF31F819362
:100B2000919322503109288339833AC020916F2054
:100B300030917020232B41F420910220309103202A
:100B400020936F203093702020910020309101205D
:100B50002115310541F42DB73EB740910420509145
:100B60000520241B350BE0916F20F0917020E217D7
:100B7000F307A0F42E1B3F0B2817390778F0AC01C0
:100B80004E5F5F4F2417350748F04E0F5F1F4093AD
:100B90006F20509370208193919302C0E0E0F0E0C9
:100BA000CF01DF91CF911F910F910895CF93DF93E4
:100BB000009709F481C0FC01329712821382A09140
:100BC0007120B0917220109781F420813181820FC1
:100BD000931F20916F20309170202817390751F50D
:100BE000E0936F20F093702067C0ED0120E030E0CB
:100BF000CE17DF0740F44A815B819E014115510504
:100C0000F1F0EA01F5CFC283D38340815181840F93
:100C1000951FC817D90759F488819981840F951FAA
:100C20000296808391838A819B818283938321159D
:100C3000310529F4E0937120F09372203DC0E90161
:100C4000EA83FB8349915991C40FD51FEC17FD0727
:100C500061F480819181840F951F0296E901888358
:100C60009983828193818A839B83E0E0F0E01296EE
:100C70008D919C911397009719F0FD01DC01F7CF3E
:100C80008D919C9111979D012E5F3F4F820F931F75
:100C900020916F20309170202817390769F4309720
:100CA00029F4109271201092722002C012821382D5
:100CB000A0936F20B0937020DF91CF910895FC0135
:100CC00088279927E89421912032E9F3293010F000
:100CD0002E30C8F32B3241F02D3239F4689404C021
:100CE0000E949206820F911D219120532A30C0F359
:100CF0001EF4909581959F4F0895FB01DC010190B2
:100D00000D920020E1F70895FB01DC0141505040B5
:100D100030F08D910190801919F40020B9F7881BEB
:100D2000990B08957AE0979F902D879F802D910DC4
:080D300011240895F894FFCF8F
:100D380000007320200016201D20232022202920B7
:100D480028202D203020535441545553004D4F56E0
:100D58004500455441534B00454A4F420045460023
:100D680053460053460A005354415455530A003021
:0A0D78000A0045460A00310A000097
:00000001FF
