S00F0000526F626F41726D2E7372656363
S11300000C9429040C944F040C944F040C944F0446
S11300100C944F040C944F040C944F040C944F0410
S11300200C944F040C944F040C944F040C944F0400
S11300300C944F040C944F040C944F040C944F04F0
S11300400C94F20F0C944C100C944F040C944F0429
S11300500C94160F0C944F040C944F040C944F04FE
S11300600C944F040C944F040C944F040C944F04C0
S11300700C944F040C944F040C944F040C944F04B0
S11300800C944F040C944F040C944F040C944F04A0
S11300900C944F040C944F040C944F040C944F0490
S11300A00C944F040C944F040C944F040C944F0480
S11300B00C944F040C944F040C944F040C944F0470
S11300C00C944F040C944F040C944F040C944F0460
S11300D00C944F040C94840F0C944F040C944F0410
S11300E00C944F040C944F040C944F040C944F0440
S11300F00C944F040C944F040C944F040C944F0430
S11301000C944F040C944F040C944F040C944F041F
S11301100C944F040C944F040C944F040C944F040F
S11301200C944F040C944F040C944F040C944F04FF
S11301300C944F040C944F040C944F040C944F04EF
S11301400C944F040C944F040C944F040C944D0FD6
S11301500C944F040C944F040C944F040C944F04CF
S11301600C9456090C9412090C944F040C944F04EB
S11301700C944F040C944F040C944F040C944F04AF
S11301800C944F040C944F040C944F040C944F049F
S11301900C944F040C944F040C944F040C944F048F
S11301A00C944F040C944F040C944F040C944F047F
S11301B00C9422110C944F040C944F040C944F048F
S11301C00C944F040C944F040C94BB0F0C944F04E8
S11301D00C944F040C944F040C944F040C944F044F
S11301E00C944F040C944F040C944F040C944F043F
S11301F00C944F040C944F040C944F040C94CA06B2
S11302000C940A0A0C943B130C9423070C944E0A86
S11302100C949F090C94380A0C9457130C94A1174E
S11302200C94B0160C9487130C94C7060C940B17FB
S11302300C945A170C942F0A0C94C4130C94221582
S11302400C94C2170C946F130C94D9090C945F0A84
S1130250000000000000000000000000000000009A
S1130260000000000000000000000000000000008A
S1130270000000000000000000000000000000007A
S1130280000000000000000000000000000000006A
S1130290000000000000000000000000000000005A
S11302A0000000000000000000000000000000004A
S11302B0000000000000000000000000000000003A
S11302C0000000000000000000000000000000002A
S11302D0000000000000000000000000000000001A
S11302E0000000000000000000000000000000000A
S11302F000000000000000000000000000000000FA
S113030000000000000000000000000000000000E9
S113031000000000000000005F000000000700076C
S11303200000147F147F1400485556240000433302
S113033008666100324D4D322800000300000000C1
S1130340003E414100000041413E00002A1C3E1C89
S11303502A0008083E080800005030000000000889
S1130360080800000060600000000040300C03003A
S11303703E5149453E0004427F40000066515149C8
S113038046002241494936001816117F10002745BE
S1130390454539003E4949493200412119050300C8
S11303A0364949493600264949493E0000002200A1
S11303B0000000107200000008141422220014141B
S11303C0141414002222141408000601590906000A
S11303D038444438C0007C1211127C007F494949DA
S11303E036003E41414141007F4141413E007F4949
S11303F0494141007F09090101003E4159493A0040
S11304007F0808087F0000007F0000002040403F74
S113041000007F08142241007F40404040007F02DA
S11304200C027F007F021C207F003E4141413E00C0
S11304307F09090906003F4151215E007F091929FE
S1130440460026494949320001017F0101003F402D
S113045040403F000F3040300F007F2018207F00C5
S113046041360836410001067806010061514945CC
S113047043007F41410000000106384000000000B5
S113048041417F000402010204004040404040001A
S11304900001060000003844443840007F444438DA
S11304A00000384444440000003844447F00385479
S11304B054480000087E09010000004E51513F00DD
S11304C07F040478000000007A00000000403A0035
S11304D000007F102844000000003F4000007C041E
S11304E07C0478007C0404780000384444443800D8
S11304F07C2424180000000E11117E0078040408E6
S1130500000048545424000000443F0400003C40D0
S1130510403C00000C3040300C003C4078403C0033
S11305204428102844005C50503C00006454544C4F
S113053000000836414100007F0000000000004137
S11305404136080008040804000000000000000010
S11305508006000000000000000000000000000011
S11305600000000000000000000000000000000087
S11305700000000000000000000000000000000077
S11305800000000000000000000000000000000067
S11305900000000000000000000000000000000057
S1130850000011241FBECFEFCDBFDFE3DEBF00E0F9
S11308600CBF18BE19BE1ABE1BBE11E2A0E0B0E256
S1130870E0EAFEE300E00BBF02C007900D92A4344F
S1130880B107D9F71BBE21E2A4E4B1E201C01D9275
S1130890AA38B207E1F70E94701B0C944E1F0C9407
S11308A00000FF920F931F93CF93DF93F82E8B01D9
S11308B0D42FC22F85E090E00E94F21DFC01F0824B
S11308C001831283D3838481C0FB80F98483CF01A5
S11308D0DF91CF911F910F91FF9008950F931F9374
S11308E0CF93DF938C01EB0184E090E00E94F21D32
S11308F0FC0102831383C083D183DF91CF911F91C5
S11309000F91089587E090E00E94F21DFC01168289
S11309101482158210821182128213820895FC01BE
S113092082819381892B51F462837383DB011D924D
S11309301C92828193818083918307C080819181FD
S1130940DB018D939C936083718380819181848387
S1130950958386818F5F86830895FC01A481B58188
S113096012968D919C9113972D913C9124833583FC
S11309700895FC01A481B58112968D919C911397E1
S11309802D913C912483358308950F931F93CF9326
S1130990DF93DC01ED91FC913097D1F0EC01008103
S11309A01181828193810E948A1EE881F9811082DB
S11309B01182E881F98112821382888199810E94CF
S11309C08A1E088319830C831D838E8181508E8334
S11309D0DF91CF911F910F910895CF93DF93EC0195
S11309E003C0CE010E94C50488819981892BC9F76F
S11309F0188219821C821D821A821B821E82DF9138
S1130A00CF910895EF92FF920F931F93CF93DF93AB
S1130A108C01EB01DC01ED90FC900E948204B70193
S1130A200E946E04BC01C8010E948F048A859B85C4
S1130A300E94131FE82E888599850E94131FF82EA3
S1130A408E819F810E94131FEC81FD812E2D4F2DDD
S1130A50BC0180810E94510460E070E00E946E0439
S1130A60D801ED91FC91BC01828193810E948F0495
S1130A70DF91CF911F910F91FF90EF900895BF9256
S1130A80CF92DF92EF92FF920F931F93CF93DF9356
S1130A907C01EB01B42EDC01CD90DC90F6010281E7
S1130AA0138180910620882381F00E948204B6017C
S1130AB00E946E04BC01C7010E948F04D701ED910E
S1130AC0FC910281138110920620F801E080F180EC
S1130AD08A859B850E94131FC82E888599850E944C
S1130AE0131FD82E8E819F810E94131FEC81FD81DC
S1130AF02C2D4D2DBC0180810E945104B7010E9410
S1130B006E04BC01C8010E948F04BB2019F081E06F
S1130B1080930620DF91CF911F910F91FF90EF906A
S1130B20DF90CF90BF900895E0915C21F0915D211A
S1130B3080819181848395830EC0828193810E94F8
S1130B40ED04E0915C21F0915D21A481B5818D914A
S1130B509C9184839583A0915C21B0915D2114962E
S1130B60ED91FC911597309741F7CD010E94ED046A
S1130B700895CF93DF9380E190E00E94F21DEC0191
S1130B8080E190E00E94F21D88839983FC01108229
S1130B9080E190E00E94F21D8A839B83FC01108215
S1130BA080E190E00E94F21D8C839D83FC01108201
S1130BB080E190E00E94F21D8E839F83FC011082ED
S1130BC080E190E00E94F21D88879987FC011082E1
S1130BD080E190E00E94F21D8A879B87FC011082CD
S1130BE080E190E00E94F21D8E879F87FC011082B5
S1130BF0CE01DF91CF9108950F931F93CF93DF938D
S1130C008C01EB010E943308BC01888199810E9408
S1130C10311F6881798142E050E0809115209091E4
S1130C2016200E94381F892B09F04EC0C8010E946B
S1130C303308BC018A819B810E94311FC8010E9434
S1130C403308BC018C819D810E94311FC8010E9420
S1130C503308BC018E819F810E94311FC8010E940C
S1130C603308BC01888599850E94311FC8010E9400
S1130C703308BC018A859B850E94311FC8010E94EC
S1130C803308BC018C859D850E94311FC8010E94D8
S1130C903308BC018E859F850E94311F6E857F8538
S1130CA042E050E080911320909114200E94381F5C
S1130CB0892B29F4C8010E94690881E009C0C80190
S1130CC00E94690880E004C0C8010E94690880E0AD
S1130CD0DF91CF911F910F910895CF93DF93FC0182
S1130CE0C281D38143E050E0BE01809111209091F4
S1130CF012200E94381F892B71F143E050E0BE019D
S1130D0080910F20909110200E94381F892B29F187
S1130D1043E050E0BE0180910D2090910E200E948E
S1130D20381F892BE1F043E050E0BE0180910B2095
S1130D3090910C200E94381F892B99F043E050E0D9
S1130D40BE018091092090910A200E94381F892BAE
S1130D5051F482E009C086E007C085E005C084E064
S1130D6003C083E001C081E0DF91CF910895FC01CD
S1130D708081813331F0823331F0833331F483E085
S1130D80089581E0089582E0089583E608950E941D
S1130D90D0080895CF93DF93EC018FE890E20E948E
S1130DA0D0088FEB9AED0197F1F700C0000083E9BA
S1130DB090E20E94D0089FEF28EA81E09150204001
S1130DC08040E1F700C00000CE010E94D0088FEB04
S1130DD09AED0197F1F700C000008BE990E20E94C0
S1130DE0D0088FEB9AED0197F1F700C000008BE972
S1130DF090E20E94D0088FEB9AED0197F1F700C0C2
S1130E0000008BE990E20E94D0088FEB9AED0197E5
S1130E10F1F700C000008BE990E20E94D0088FEB4C
S1130E209AED0197F1F700C000008EE990E20E946C
S1130E30D0088FEB9AED0197F1F700C0000081E034
S1130E40DF91CF910895E0914821F091492185895E
S1130E5080FF80C06091442170914521CF010E94A0
S1130E60FC05882309F472C08091442190914521A6
S1130E700E946D068330E1F128F4813061F0823004
S1130E8041F10895853009F453C008F441C0863017
S1130E9009F455C00895E0914421F09145218481DD
S1130EA095810E94B706823051F0833069F0813019
S1130EB009F050C082EA90E20E94CA06089585EAC9
S1130EC090E20E94CA06089588EA90E20E94CA0647
S1130ED00895609144217091452180915C21909105
S1130EE05D210E94020582EA90E20E94CA060895EA
S1130EF0609144217091452140E080915C21909162
S1130F005D210E943F0582EA90E20E94CA0608958C
S1130F10609144217091452141E080915C21909140
S1130F205D210E943F0582EA90E20E94CA0608956C
S1130F308BEA90E20E94CA060E94DD1008958EEAB0
S1130F4090E20E94CA060E94EA10089581EB90E2A2
S1130F500E94CA060895CF93DF9386E090E00E9432
S1130F60F21DEC0160E180914821909149210E9499
S1130F70DF07809348219093492122E043E060E613
S1130F8076E080EA99E00E9489088091442190915A
S1130F9045210E94B905809344219093452183E221
S1130FA097E08C839D8387EC96E0888399838AEC11
S1130FB096E08A839B83CE01DF91CF910895EF92CF
S1130FC0FF920F931F93CF93DF93062F86E190E058
S1130FD00E94F21D7C0110E00FC0C12FD0E0802FD1
S1130FE090E00E94F21DCC0FDD1FCE0DDF1D888323
S1130FF09983FC0110821F5F193078F3802F90E0F1
S11310000E94F21DF701828B938BFC011082F70181
S1131010148A85898E7F8260858BC701DF91CF9189
S11310201F910F91FF90EF900895CF93DF93EC0100
S1131030EC89E93060F481E08E0F8C8BF0E0EE0FE8
S1131040FF1FEC0FFD1F808191810E94311F8D894C
S11310508D7F8D8B8C89883019F48D8981608D8B7F
S1131060DF91CF9108951F93CF93DF93EC016881B3
S113107079818A899B890E94311F10E014C0812FD5
S113108090E0FC013196EE0FFF1FEC0FFD1F608115
S11310907181880F991FFE01E80FF91F80819181EA
S11310A00E94311F1F5F8C89181748F3882311F0A1
S11310B081508C8B8D898E7F8D8B8C89811103C09F
S11310C08D8982608D8B8A899B89DF91CF911F9155
S11310D00895DC0190E00BC0E92FF0E0EE0FFF1F54
S11310E0EA0FFB1F0190F081E02D10829F5F993081
S11310F098F35296ED91FC915397108254961C925A
S1131100549755968C9155978E7F826055968C9303
S11311100895FB0180934C2190934D2181E090E050
S1131120BC0102C0660F771F4A95E2F765836183AD
S113113002C0880F991F2A95E2F78283E0914C211F
S1131140F0914D218CE0868380E4878383E085835E
S113115080E28383A0EAB0E012968C9112978260B9
S113116012968C9384818861848380E006C0E82F82
S1131170F0E0E05AFE4D10828F5F8031C0F380E1D1
S113118090E00E94F21D809370219093712180E180
S113119090E00E94F21D80935E2190935F21089558
S11311A0BC0180915E2190915F210E94311FE091EA
S11311B04C21F0914D21838182608383089590EEC8
S11311C0980F9F3550F4E0914B2191E09E0F90933E
S11311D04B21F0E0E05AFE4D80838D3031F08823BE
S11311E021F080914B218D30D0F0A0914B21E1E092
S11311F0EA0FB0E0A05ABE4D8AE08C9381E08E0FD6
S1131200F0E0E05AFE4D9DE09083E82FF0E0E05AD4
S1131210FE4D108210924B2180E691E2089580E009
S113122090E008951F920F920FB60F92112408B602
S11312300F9218BE0BB60F921BBE8F939F93EF9322
S1131240FF9390914A21E0915E21F0915F21E90F93
S1131250F11D8081882331F0803298F48A3089F03E
S11312608D3079F0E0914C21F0914D211082E09184
S11312704C21F0914D2183818D7F838310924A21EB
S113128008C0E0914C21F0914D219F5F90934A2139
S11312908083FF91EF919F918F910F900BBE0F90E0
S11312A008BE0F900FBE0F901F9018951F920F92BB
S11312B00FB60F92112408B60F9218BE09B60F92FA
S11312C019BE0BB60F921BBE2F933F934F935F93A0
S11312D06F937F938F939F93AF93BF93EF93FF93FA
S11312E0E0914C21F0914D2180810E94DF08809390
S11312F0702190937121009759F0BC01809148218D
S1131300909149210E941508109270211092712128
S1131310FF91EF91BF91AF919F918F917F916F91C9
S11313205F914F913F912F910F900BBE0F9009BE8B
S11313300F9008BE0F900FBE0F901F901895CF927C
S1131340DF92EF92FF920F931F93CF93DF938C0161
S1131350EB0189899A892B89289FB001299F700DF7
S1131360112480E090E00E94EF1C2C893D894E8975
S11313705F890E947D1D20E030E044EB53E40E942D
S1131380471C6B017C01B801110F880B990B0E945B
S1131390F11CA70196010E947D1D0E94B91CCB017E
S11313A0DF91CF911F910F91FF90EF90DF90CF903D
S11313B00895FC0180898160808BA385B48581E0D8
S11313C090E0058402C0880F991F0A94E2F71596ED
S11313D08C938085882369F0A385B48581E090E0AF
S11313E0068402C0880F991F0A94E2F715968C931D
S11313F00CC0A385B48581E090E0068402C0880F08
S1131400991F0A94E2F716968C930184F285E02DD5
S113141060830895FC01A085B18581E090E0028499
S113142002C0880F991F0A94E2F711968C93838562
S1131430816083878285811109C0A681B7818081FB
S1131440918198968D939C9399970895A681B781DD
S1131450808191819A968D939C939B970895FC012A
S113146080898E7F808B0184F285E02D108208951F
S1131470BC01990F880B990B0E94F11C2DE33AE0F3
S113148047E951E40E947D1D20E030EC4FE055E433
S11314900E94DB1B0E94C01CCB010895DC011B963B
S11314A0ED91FC911C9721E030E0A9011D960C9070
S11314B002C0440F551F0A94E2F746830895FC01C5
S11314C0A085B18581E090E0028402C0880F991F55
S11314D00A94E2F711968C9383858E7F83878285A5
S11314E081110BC08CEF98E080839183A681B78132
S11314F098968D939C9399970AC08CEF98E080837B
S11315009183A681B7819A968D939C939B972FEF95
S113151087EA91E6215080409040E1F700C0000046
S1131520A085B18581E090E0028402C0880F991FF4
S11315300A94E2F712968C9308958F929F92AF9239
S1131540BF92CF92DF92EF92FF920F93CF93DF93EC
S1131550EB015A01490181E290E00E94F21DFC0175
S11315601282138285E590E0808391831482158230
S113157016821782108686E0858785E0868784E058
S1131580878780898E7F808BC187D287A386B48624
S1131590818A928A038BC48AD58AE68AF78A86E985
S11315A0808F80E2D50111968C93119780E4119677
S11315B08C93119780E111968C93188291E0998312
S11315C08981806189839E8389ED99E0818F928FDF
S11315D08FE29AE0838F948F8EE49AE0858F968FC2
S11315E08FE999E0878F90A3A0EAB0E012968C91DE
S11315F01297816012968C93CF01DF91CF910F9156
S1131600FF90EF90DF90CF90BF90AF909F908F901E
S11316100895EF92FF920F931F93CF937B018A015A
S1131620C22F82E190E00E94F21DFC010087118725
S1131630E682F78283858E7F83878AE590E08283C2
S113164093831482158210821182C2872C2F30E07A
S113165081E090E00C2E02C0880F991F0A94E2F7F3
S1131660D80112968C93C11109C0A681B7818CEF61
S113167098E098968D939C93999708C0A681B7811A
S11316808CEF98E09A968D939C939B97A681B78153
S113169011968C911197856011968C93A681B781D0
S11316A01196CC91119765E070E0621B730B81E099
S11316B090E0AC0102C0440F551F6A95E2F74C2B31
S11316C011964C93A681B78117964C911797220FC8
S11316D0331F02C0880F991F2A95E2F7842B1796AF
S11316E08C93A681B78180E49CE996968D939C9314
S11316F09797A681B78184E08C938AE09AE08487E7
S113170095878FE59AE08687978788E39AE0808BB0
S1131710918BA0EAB0E012968C9112978160129698
S11317208C93CF01CF911F910F91FF90EF9008956B
S1131730DC011996ED91FC911A978FE99FE080A73F
S113174091A70895EF92FF921F93CF93DF93EC013B
S11317507A01122F0E94980B112359F0EF8DF8A1F2
S1131760BE01882799278E199F0919958883998323
S113177007C0EF8DF8A1BE01C7011995888399832D
S11317801887DF91CF911F91FF90EF900895CF9329
S1131790DF93EC01CB01E889F98919958883998352
S11317A0DF91CF91089584E090E00E94F21DFC0146
S11317B010821182128213820895CF92DF92EF92E7
S11317C0FF920F93CF93DF930F2EF6E6CF2EDC2CF0
S11317D0F6E4EF2EF0E4FF2EF02D00E128EC30E0EB
S11317E040EA56E060E47BE0809176219091772195
S11317F00E949D0AEC018093762190937721EF8DCE
S1131800F8A1BC018CED90E019958C839D83C09167
S11318107621D0917721EF8DF8A1BE0184E29FEF6C
S113182019958E839F830F2EC12CD12CF8E8EF2EAF
S1131830F0E4FF2EF02D28EC30E040E856E060E4C0
S11318407AE080917821909179210E949D0AEC019F
S11318508093782190937921EF8DF8A1BC0180E3E6
S113186091E019958C839D83C0917821D091792141
S1131870EF8DF8A1BE0180ED9EEF19958E839F83B5
S113188028EC30E040E656E060E479E080917E2187
S113189090917F210E949D0AEC0180937E21909378
S11318A07F21EF8DF8A1BC018CED90E019958C831C
S11318B09D83C0917E21D0917F21EF8DF8A1BE013F
S11318C084E29FEF19958E839F8328EC30E040E4F7
S11318D056E060E478E080917221909173210E9437
S11318E09D0AEC018093722190937321EF8DF8A1EE
S11318F0BC0184EB90E019958C839D83C091722187
S1131900D0917321EF8DF8A1BE018CE49FEF19955E
S11319108E839F8320E040E456E060E078E080918D
S11319207A2190917B210E94090B80937A219093D4
S11319307B2121E040E456E060E078E080917C2166
S113194090917D210E94090B80937C2190937D21AD
S11319500E94D30B8093742190937521DF91CF91D2
S11319600F91FF90EF90DF90CF900895CF93DF9386
S1131970EC0184E090E00E94F21DFC0110821182CF
S1131980C283D383DF91CF9108951F93CF93DF93C5
S1131990EC01162F83E090E00E94F21DFC011083FD
S11319A0C183D283DF91CF911F910895CF93DF93A9
S11319B0EC01CB01642F0E94C50C0E94B60C2A8155
S11319C03B81232B41F48A839B8388839983FC0185
S11319D01082118207C028813981FC012083318360
S11319E088839983DF91CF910895FC01908193348A
S11319F0F1F128F4913469F0923411F10895943599
S1131A0009F477C09A3509F449C0973409F084C0C1
S1131A105CC024812170418152816381809176214F
S1131A20909177210E94A20B609176217091772189
S1131A3040E080917421909175210E94D60C089504
S1131A402481217041815281638180917821909118
S1131A5079210E94A20B609178217091792140E054
S1131A6080917421909175210E94D60C089524814F
S1131A70217041815281638180917E2190917F21E7
S1131A800E94A20B60917E2170917F2140E08091A1
S1131A907421909175210E94D60C0895248121709F
S1131AA041815281638180917221909173210E94BE
S1131AB0A20B609172217091732140E08091742196
S1131AC0909175210E94D60C089561817281809154
S1131AD07A2190917B210E94C70B60917A217091A9
S1131AE07B2141E080917421909175210E94D60C54
S1131AF008956181728180917C2190917D210E9461
S1131B00C70B60917C2170917D2141E0809174210B
S1131B10909175210E94D60C0895EF92FF920F9335
S1131B201F93CF93DF93DC0112962D913C91139771
S1131B30232BD1F1EC0183E090E00E94F21D8C0193
S1131B40E881F981A281B3818C91D8018C93A2811F
S1131B50B38111968D919C911297D80111968D9312
S1131B609C931297E080F1800280F381E02D118232
S1131B701282E881F981828193810E948A1EE88120
S1131B80F98112821382E881F9811082118288819D
S1131B9099810E948A1EE882F982EF2841F41A8210
S1131BA01B82802F912F05C080E090E002C0802F1F
S1131BB0912FDF91CF911F910F91FF90EF90089596
S1131BC0CF93DF93E0917421F09175218281938109
S1131BD0892B71F1F89441E028C00E948D0DEC012D
S1131BE0888181110AC089819A81DC015996ED911D
S1131BF0FC915A9764E0199509C089819A81DC01A6
S1131C001C96ED91FC911D9764E0199519821A8236
S1131C10CE010E948A1E8091742190917521FC014D
S1131C202281338140E0232BC1F64111F4CF789413
S1131C30DF91CF910895F89481E03EC080917621A0
S1131C4090917721DC015D96ED91FC915E97199559
S1131C50E0917621F091772112821382809178218C
S1131C6090917921FC0112821382E0917E21F091FE
S1131C707F2112821382E0917221F09173211282EA
S1131C801382DC015D96ED91FC915E97199580912C
S1131C907E2190917F21DC015D96ED91FC915E9710
S1131CA019958091722190917321DC015D96ED91DB
S1131CB0FC915E97199580E08111C0CF78940895C6
S1131CC0F89481E03DC08091762190917721DC01E8
S1131CD05B96ED91FC915C97199580917821909198
S1131CE07921DC015B96ED91FC915C9719958091CB
S1131CF07E2190917F21DC015B96ED91FC915C97B4
S1131D0019958091722190917321DC015B96ED917C
S1131D10FC915C97199580917A2190917B21DC014B
S1131D201E96ED91FC911F97199580917C219091BD
S1131D307D21DC011E96ED91FC911F97199580E0A1
S1131D408111C1CF789408950E94600E0E941B0EE9
S1131D500895E0917621F091772180898170E09156
S1131D607821F091792140894170E0917E21F091B0
S1131D707F2130893170E0917221F09173212089A3
S1131D802170E0917A21F0917B2153855170E0918B
S1131D907C21F0917D2193859170840F830F820FB4
S1131DA0890F850F0895CF93DF93EC018A819B817E
S1131DB0809356219093572128813981209354216F
S1131DC0309355214E815F8140935221509353218A
S1131DD06C817D816093502170935121E885EE23BD
S1131DE029F0FC013197EA83FB8304C0FC0131969E
S1131DF0EA83FB838217930731F0841795071CF05D
S1131E006817790734F4EB8DFC8DCE0119951A828D
S1131E101B820E94A90E811106C080911720909107
S1131E2018200E94A610DF91CF9108951F920F925F
S1131E300FB60F92112408B60F9218BE09B60F926E
S1131E4019BE0BB60F921BBE2F933F934F935F9314
S1131E506F937F938F939F93AF93BF93EF93FF936E
S1131E6080917221909173210E94D30EFF91EF9182
S1131E70BF91AF919F918F917F916F915F914F919E
S1131E803F912F910F900BBE0F9009BE0F9008BE8B
S1131E900F900FBE0F901F9018951F920F920FB6C0
S1131EA00F92112408B60F9218BE09B60F9219BEEC
S1131EB00BB60F921BBE2F933F934F935F936F9379
S1131EC07F938F939F93AF93BF93EF93FF938091EF
S1131ED07E2190917F210E94D30EFF91EF91BF91BB
S1131EE0AF919F918F917F916F915F914F913F91AE
S1131EF02F910F900BBE0F9009BE0F9008BE0F904C
S1131F000FBE0F901F9018951F920F920FB60F924D
S1131F10112408B60F9218BE09B60F9219BE0BB65B
S1131F200F921BBE2F933F934F935F936F937F93B7
S1131F308F939F93AF93BF93EF93FF9380917821F7
S1131F40909179210E94D30EFF91EF91BF91AF91AF
S1131F509F918F917F916F915F914F913F912F91BD
S1131F600F900BBE0F9009BE0F9008BE0F900FBECE
S1131F700F901F9018951F920F920FB60F92112475
S1131F8008B60F9218BE09B60F9219BE0BB60F927F
S1131F901BBE2F933F934F935F936F937F938F93C6
S1131FA09F93AF93BF93EF93FF938091762190918A
S1131FB077210E94D30EFF91EF91BF91AF919F9132
S1131FC08F917F916F915F914F913F912F910F90DE
S1131FD00BBE0F9009BE0F9008BE0F900FBE0F905E
S1131FE01F9018951F920F920FB60F92112408B6E6
S1131FF00F9218BE09B60F9219BE0BB60F921BBEF4
S11320002F933F934F935F936F937F938F939F93FC
S1132010AF93BF93EF93FF93E0917A21F0917B21EB
S1132020838580FF22C080914F218F5F80934F2151
S11320308A3188F083858E7F8387A085B18581E08E
S113204090E0028402C0880F991F0A94E2F7129666
S11320508C9310924F210E94A90E811106C0809189
S11320601720909118200E94A610FF91EF91BF9124
S1132070AF919F918F917F916F915F914F913F911C
S11320802F910F900BBE0F9009BE0F9008BE0F90BA
S11320900FBE0F901F9018951F920F920FB60F92BC
S11320A0112408B60F9218BE09B60F9219BE0BB6CA
S11320B00F921BBE2F933F934F935F936F937F9326
S11320C08F939F93AF93BF93EF93FF93E0917C2102
S11320D0F0917D21838580FF22C080914E218F5F06
S11320E080934E218A3188F083858E7F8387A085F3
S11320F0B18581E090E0028402C0880F991F0A94A0
S1132100E2F712968C9310924E210E94A90E81112F
S113211006C080911720909118200E94A610FF916C
S1132120EF91BF91AF919F918F917F916F915F914B
S11321304F913F912F910F900BBE0F9009BE0F90BE
S113214008BE0F900FBE0F901F90189527E0FC015A
S113215020830895FC0110820895CF93DF93EC014E
S113216082E090E08EA39FA318A219A2CE010E9440
S1132170AA1081E08E83E0EAF0E0828181608283AC
S1132180DF91CF910895CF93DF93FC0124813581B2
S1132190232B79F00E94AD04EC0105C0CE010E940E
S11321A0B9040E94F50C8C819D81892BB9F781E0DB
S11321B001C080E0DF91CF91089580911720909124
S11321C018200E94AD1080911720909118200E9431
S11321D0A610089580911720909118200E94AA10AB
S11321E00E94A40E0895CF93DF93EB0120915A210E
S11321F0211103C00E94C31001C080E090915A21B4
S1132200911102C0882341F00E94E00D81E0809387
S11322105B2180935A2113C0811111C080915B21ED
S1132220882349F010925B210E94940585EB90E28B
S1132230FE01199504C081EB90E2FE011995DF912E
S1132240CF9108951F920F920FB60F92112408B6E2
S11322500F9218BE09B60F9219BE0BB60F921BBE91
S11322602F933F934F935F936F937F938F939F939A
S1132270AF93BF93EF93FF9380915821909159218D
S113228081159D4720F480915B21811114C0109227
S11322905A2180E09BE00E94AA106AEC76E08091CB
S11322A05C2190915D210E94F31081E090E0809385
S11322B05821909359218091582190915921019648
S11322C08093582190935921FF91EF91BF91AF9141
S11322D09F918F917F916F915F914F913F912F913A
S11322E00F900BBE0F9009BE0F9008BE0F900FBE4B
S11322F00F901F9018951F93CF93DF93EC01142F29
S11323000E945F1B60E8CE010E94651B612FCE0115
S11323100E94651B60E8CE010E94651B612FCE01FF
S11323200E94651BCE010E946B1BDF91CF911F9110
S113233008950F931F93CF93DF93EC01142F022F73
S11323400E945F1B60E8CE010E94651B612FCE01D5
S11323500E94651B60E8CE010E94651B612FCE01BF
S11323600E94651B602FCE010E94651BCE010E9456
S11323706B1BDF91CF911F910F910895CF93DF9342
S1132380EC0124E14DE868E70E9499114FEA68E7FF
S1132390CE010E947B11DF91CF910895CF93DF93FB
S11323A0EC0123E04AED68E70E94991148EC68E7E4
S11323B0CE010E947B1122E040E268E7CE010E9438
S11323C0991140EB68E7CE010E947B1140E068E779
S11323D0CE010E947B1140E168E7CE010E947B118F
S11323E040E468E7CE010E947B1141EA68E7CE0130
S11323F00E947B11CE010E94BE11DF91CF910895FE
S11324001F93CF93DF93EC01142F0E945F1B60ECAA
S1132410CE010E94651B612FCE010E94651BCE0177
S11324200E946B1BDF91CF911F9108950F931F930F
S1132430CF938C01C62F405568E70E947B114C2F27
S11324404F7068E7C8010E947B114C2F42954F7072
S1132450405F68E7C8010E947B11CF911F910F91E3
S113246008955F926F927F928F929F92AF92BF92E4
S1132470CF92DF92EF92FF920F931F93CF93DF934C
S11324805C01D42FF52E6801E22E862F8F77582E0B
S1132490962F991F9927991F7370770F972E992A52
S11324A0092D069510E01DC0492D410F652DC5016C
S11324B00E941612C0E012C036018E2C8FEF681AEB
S11324C0780A880AF6015E2D0E94EA1D462F68E705
S11324D0C5010E940012CF5FE82C6301CD1760F3A1
S11324E01F5F1F1508F3D50D992D9F0D892F879513
S11324F088278795DF77969593700C7F8D2B902B8B
S1132500DF91CF911F910F91FF90EF90DF90CF90CB
S1132510BF90AF909F908F907F906F905F90089541
S1132520CF92DF92FF920F931F93CF93DF938C018F
S1132530F62EC12CD12C14C04C2D60E0C8010E9491
S11325401612C0E0D0E006C04F2D68E7C8010E9413
S113255000122196C038D105B8F38FEFC81AD80AF3
S113256088E0C816D10440F3DF91CF911F910F91F9
S1132570FF90DF90CF9008956F927F928F92AF92E9
S1132580BF92CF92DF92EF92FF920F931F93CF935C
S1132590DF935C013901842E462F441F4427441FD6
S11325A07370770F472BF42ED62FDF776D2F0E9491
S11325B016124FC090E06C01CC0CDD1CC80ED91E65
S11325C0CC0CDD1C8D2F90E00696803891055CF0D4
S11325D0F39428E0F21201C0F12C4F2D61E0C50103
S11325E00E941612D1E0C0E030C0DF5FEE20B1F0EF
S11325F0C6018C0F911D482D9301280F391F411DD1
S113260097FD4A95A42FC901F9015A2F0E94EA1D8A
S1132610462F68E7C5010E94001216C0C6018C0F40
S1132620911D482D9301280F391F411D97FD4A958F
S1132630A42FC901F9015A2F0E94EA1D462F409583
S113264068E7C5010E940012CF5FC63070F20F5FC9
S11326501F4FF80180818111ADCFDF91CF911F9180
S11326600F91FF90EF90DF90CF90BF90AF908F903D
S11326707F906F900895DC011496ED91FC9115976D
S1132680A481B581ED91FC9111970480F581E02D31
S11326900480F581E02D868180FD08C081608683F9
S11326A01496ED91FC911597CD0119950895CF934A
S11326B0DF93DC011496ED91FC911597C481D581CB
S11326C0888580FD09C0BE01888199810E94F81A1D
S11326D0EC81FD81CE011995DF91CF910895CF93BF
S11326E0DF93DC011496ED91FC911597C481D5819B
S11326F0888580FD09C0BE01888199810E94251BBF
S1132700EC81FD81CE011995DF91CF9108950F934E
S11327101F93CF93DF93EC01EC81FD810480F5815D
S1132720E02D0190F081E02D0480F581E02D0481FD
S11327301581D80116968C91169780FD13C01296B8
S1132740ED91FC911397808191810E941916F801F3
S113275082819381DC011496ED91FC91159761E0DF
S113276019950DC0CE010E941916EC81FD8184815A
S11327709581DC011496ED91FC9115971995DF91E3
S1132780CF911F910F9108950F931F93CF93DF93D0
S1132790EC01EC81FD810480F581E02D0190F08154
S11327A0E02D0480F581E02D04811581D801169671
S11327B08C91169780FD13C01296ED91FC9113979E
S11327C0808191810E940B16F80182819381DC0142
S11327D01496ED91FC91159761E019950DC0CE0109
S11327E00E940B16EC81FD8184819581DC01149695
S11327F0ED91FC9115971995DF91CF911F910F9150
S113280008956F927F928F929F92AF92BF92CF92D0
S1132810DF92EF92FF920F931F93CF93DF938CE09D
S113282090E00E94F21D8C0186E090E00E94F21D6F
S11328304C0183E0D40112968C931297C0E2D6E047
S1132840CD93DC9311978881877F8883ED91FC91E8
S11328501197248166246394712CC30112960C9001
S1132860129702C0880F991F0A94E2F7822B84837F
S113287087E593E114968D939C93159786E090E0F9
S11328800E94F21D5C01FC011282C083D183888105
S11328908E7F88830190F081E02D2481C301D501CE
S11328A012960C90129702C0880F991F0A94E2F7AF
S11328B0822B84838FE693E114968D939C931597D2
S11328C086E090E00E94F21D6C0184E0F6018283B0
S11328D0C083D18388818F7E88830190F081E02D2D
S11328E02481C301D60112960C90129702C0880F5E
S11328F0991F0A94E2F7822B848387E893E1149664
S11329008D939C93159786E090E00E94F21D7C01C4
S113291081E0F7018283C083D18388818D7F88839E
S11329200190F081E02D2481C301D70112960C900F
S1132930129702C0880F991F0A94E2F7822B8483AE
S113294084EC93E114968D939C93159786E090E024
S11329500E94F21DFC0182E08283C083D1838881BE
S11329608B7F8883A081B18114968C911497028007
S113297002C0660C771C0A94E2F7682A14966C92DB
S11329808BE393E184839583D8018D929C92119774
S11329901296AD92BC9213971496CD92DC92159731
S11329A01696ED92FC9217971896ED93FC9319974F
S11329B082E295E11A968D939C931B97C801DF914F
S11329C0CF911F910F91FF90EF90DF90CF90BF9028
S11329D0AF909F908F907F906F900895FC01A0819D
S11329E0B18118962C9130E0028002C0359527956C
S11329F00A94E2F720FD1DC02FEF80E792E02150FA
S1132A0080409040E1F700C00000A081B181189699
S1132A108C9190E0028002C0959587950A94E2F724
S1132A2080FD0CC0838180FD0BC08160838381E0C5
S1132A30089583818E7F838380E0089580E00895E4
S1132A4080E008950F931F93CF93DF93EC018B01E4
S1132A50888199810E94EE14882339F0E881F981F4
S1132A600480F581E02DC80119958A819B810E941B
S1132A70EE14882339F0EA81FB810480F581E02D8E
S1132A80C80119958C819D810E94EE14882339F028
S1132A90EC81FD810480F581E02DC80119958E81BA
S1132AA09F810E94EE14882339F0EE81FF81048017
S1132AB0F581E02DC8011995888599850E94EE1449
S1132AC0882339F0E885F9850480F581E02DC80173
S1132AD01995DF91CF911F910F91089587E090E0B0
S1132AE00E94F21DFC011082118212821382148250
S1132AF0158216820895CF93DF93EC0186E090E06F
S1132B000E94F21DFC011082118212821382C4837E
S1132B10D583DF91CF910895EF92FF920F931F9386
S1132B20CF93DF937C018B01C42FD22F87E090E0F9
S1132B300E94F21DFC01E082F18202831383C483AC
S1132B40D583D7011296CC9312971396DC93C05C6D
S1132B50D8011296CC9312971396DC9386818160E8
S1132B608683CF01DF91CF911F910F91FF90EF905A
S1132B700895FC0182819381892B21F580819181C3
S1132B80892B01F564837583608371836283738306
S1132B90DB016D937C93A081B18182819381129634
S1132BA08D939C931397A281B381808191818D939E
S1132BB09C93A281B3818081918112968D939C9381
S1132BC0139719C0A081B1816D937C938081918109
S1132BD0DB0112968D939C931397828193818D933D
S1132BE09C93A281B38112966D937C931397608317
S1132BF071836483758386818F5F86830895FC0166
S1132C0082819381892B21F480819181009711F035
S1132C10848195810895FC0180819181892B41F003
S1132C20A481B58112968D919C9113978483958389
S1132C300895FC0180819181892B31F0A481B581B3
S1132C408D919C91848395830895EF92FF920F93C5
S1132C501F93CF93DF938C01E62EF42EE90186E0D7
S1132C6090E00E94F21DFC01E282F3820083118352
S1132C70C483D583DF91CF911F910F91FF90EF9083
S1132C8008956F927F928F929F92AF92BF92CF924C
S1132C90DF92EF92FF920F931F93CF93DF937C0108
S1132CA0D62F642E722E86E090E00E94F21D4C0115
S1132CB00E946E155C01C0E00FC0670182E0C80E7F
S1132CC0D11CF701808191810E947B15BC01C50153
S1132CD00E94B915CF5F7601CD1778F3F401A08275
S1132CE0B1820483158362827382C401DF91CF9120
S1132CF01F910F91FF90EF90DF90CF90BF90AF9016
S1132D009F908F907F906F900895BF92CF92DF92A3
S1132D10EF92FF920F931F93CF93DF93B82E8B0103
S1132D207A01690189E090E00E94F21DEC010E94A1
S1132D306E15888399838885B0FA80F98887CE8256
S1132D40DF82EC82FD820A831B83CE01DF91CF9167
S1132D501F910F91FF90EF90DF90CF90BF90089557
S1132D60AF92BF92CF92DF92EF92FF920F931F9395
S1132D70CF93DF93CDB7DEB72797CDBFDEBF7C01FE
S1132D80C62E87E0E1E6F0E2DE01119601900D9295
S1132D908A95E1F7F701808191810E94FF15FC017A
S1132DA0A480B580F7019281F3808F2D87958827C1
S1132DB087959F77D92ED82A8F2D86958370F82EE4
S1132DC0EE24E3948E010F5F1F4F20E532E040E0D4
S1132DD06D2D782F8091192090911A200E94BC1299
S1132DE0EC2C850120E532E040E06D2D7F2D8091B3
S1132DF0192090911A200E94BC122796CDBFDEBFE5
S1132E00DF91CF911F910F91FF90EF90DF90CF90C2
S1132E10BF90AF900895AF92BF92CF92DF92EF929E
S1132E20FF920F931F93CF93DF93CDB7DEB72A970B
S1132E30CDBFDEBF5A01C22E9AE0E8E6F0E2DE0121
S1132E40119601900D929A95E1F7962F97959927EF
S1132E5097958F77D82ED92A66956370F62EEE242F
S1132E60E3948E010F5F1F4F20E532E040E06D2DAB
S1132E707F2D8091192090911A200E94BC12EC2C75
S1132E80850120E532E040E06D2D7F2D80911920F1
S1132E9090911A200E94BC122A96CDBFDEBFDF910A
S1132EA0CF911F910F91FF90EF90DF90CF90BF9043
S1132EB0AF900895CF92DF92EF92FF921F93CF933A
S1132EC0DF93DC01ED91FC91268121112AC031C0F0
S1132ED0CE010E94FF15DC011496ED91FC9115972B
S1132EE012968D919C9113978C839D83A081B181BF
S1132EF0C281D3811496CD90DC90159726812170E0
S1132F004D915C91119713966C91139712968C9135
S1132F10F6011995EC81FD8161E0CE0119951F5FE1
S1132F2002C07C0110E0D701CD91DC918E8118178D
S1132F3078F2DF91CF911F91FF90EF90DF90CF90C7
S1132F4008950F931F9380E595E0A0E021E535E017
S1132F5040E0F901542F0E94EA1D362FFC015A2F3C
S1132F600E94EA1D462F02E515E020E0532F60E0A1
S1132F7071E08091192090911A200E9431121F91C2
S1132F800F910895CF93DF93EC01EE81FF811995A2
S1132F90EA81FB81CE011995DF91CF910895CF92FB
S1132FA0DF92EF92FF920F931F93CF93DF9321EA67
S1132FB037E142EC57E16AE577E10E948516EC01BE
S1132FC00F2EF5E5EF2EF0E2FF2EF02D2BE037E18A
S1132FD043E061E0F701808191810E9425166C0134
S1132FE000EB16E123E040E462E083E390E20E9418
S1132FF0411623E041E0BC01C6010E948C150E94E9
S11330007B15BC01888199810E94B9152BE037E1B9
S113301043E061E0F701828193810E9425166C01EF
S113302024E040E463E08DE290E20E94411624E053
S113303041E0BC01C6010E948C150E947B15BC01B5
S1133040888199810E94B9152BE037E143E061E062
S1133050F701848195810E9425166C0125E040E4E6
S113306064E085E290E20E94411625E041E0BC0163
S1133070C6010E948C150E947B15BC018881998130
S11330800E94B9152BE037E143E061E0F701868146
S113309097810E9425166C0126E040E465E08BE1EF
S11330A090E20E94411626E041E0BC01C6010E9464
S11330B08C150E947B15BC01888199810E94B915E9
S11330C02BE037E143E061E0F701808591850E94C0
S11330D025167C0127E040E463E08DE290E20E9443
S11330E0411627E041E0BC01C7010E948C150E94F3
S11330F07B15BC01888199810E94B915E881F98109
S11331008281938184839583CE01DF91CF911F9136
S11331100F91FF90EF90DF90CF900895CF92DF92C0
S1133120EF92FF920F931F93CF93DF9321EA37E13E
S113313042EC57E16AE577E10E948516EC010F2E17
S1133140FBE4EF2EF0E2FF2EF02D2BE037E143E01D
S113315061E0F701808191810E9425166C0100EBEA
S113316016E123E040E462E083E390E20E9441162A
S113317023E041E0BC01C6010E948C150E947B152E
S1133180BC01888199810E94B9152BE037E143E0A5
S113319061E0F701828193810E9425166C0124E08D
S11331A040E463E08DE290E20E94411624E041E0B5
S11331B0BC01C6010E948C150E947B15BC0188814C
S11331C099810E94B9152BE037E143E061E0F701F2
S11331D0848195810E9425166C0125E040E464E019
S11331E085E290E20E94411625E041E0BC01C6015F
S11331F00E948C150E947B15BC01888199810E94D4
S1133200B9152BE037E143E061E0F701868197814E
S11332100E9425166C0126E040E465E08BE190E213
S11332200E94411626E041E0BC01C6010E948C15B3
S11332300E947B15BC01888199810E94B9152BE0FD
S113324037E143E061E0F701808591850E9425160E
S11332507C0127E040E463E08DE290E20E944116A5
S113326027E041E0BC01C7010E948C150E947B1538
S1133270BC01888199810E94B915E881F981828114
S1133280938184839583CE01DF91CF911F910F9118
S1133290FF90EF90DF90CF900895CF92DF92EF925E
S11332A0FF920F931F93CF93DF9321EA37E142EC10
S11332B057E16AE577E10E948516EC010F2EF1E4EF
S11332C0EF2EF0E2FF2EF02D2BE037E143E061E03A
S11332D0F701808191810E9425166C0100EB16E1B3
S11332E023E040E462E083E390E20E94411623E09D
S11332F041E0BC01C6010E948C150E947B15BC01F3
S1133300888199810E94B9152BE037E143E061E09F
S1133310F701828193810E9425166C0124E040E428
S113332063E08DE290E20E94411624E041E0BC019A
S1133330C6010E948C150E947B15BC01888199816D
S11333400E94B9152BE037E143E061E0F701848185
S113335095810E9425166C0125E040E464E085E235
S113336090E20E94411625E041E0BC01C6010E94A2
S11333708C150E947B15BC01888199810E94B91526
S11333802BE037E143E061E0F701868197810E94F9
S113339025166C0126E040E465E08BE190E20E9492
S11333A0411626E041E0BC01C6010E948C150E9432
S11333B07B15BC01888199810E94B9152BE037E106
S11333C043E061E0F701808591850E9425167C0128
S11333D027E040E463E08DE290E20E94411627E09A
S11333E041E0BC01C7010E948C150E947B15BC0101
S11333F0888199810E94B915E881F981828193813C
S113340084839583CE01DF91CF911F910F91FF901B
S1133410EF90DF90CF900895CF92DF92EF92FF92DA
S11334200F931F93CF93DF9321EA37E142EC57E1E7
S11334306AE577E10E948516EC010F2EF7E3EF2E83
S1133440F0E2FF2EF02D2BE037E143E061E0F701DD
S1133450808191810E9425166C0100EB16E123E026
S113346040E462E083E390E20E94411623E041E0FD
S1133470BC01C6010E948C150E947B15BC01888189
S113348099810E94B9152BE037E143E061E0F7012F
S1133490828193810E9425166C0124E040E463E05C
S11334A08DE290E20E94411624E041E0BC01C60195
S11334B00E948C150E947B15BC01888199810E9411
S11334C0B9152BE037E143E061E0F7018481958190
S11334D00E9425166C0125E040E464E085E290E258
S11334E00E94411625E041E0BC01C6010E948C15F2
S11334F00E947B15BC01888199810E94B9152BE03B
S113350037E143E061E0F701868197810E94251647
S11335106C0126E040E465E08BE190E20E944116F4
S113352026E041E0BC01C6010E948C150E947B1577
S1133530BC01888199810E94B9152BE037E143E0F1
S113354061E0F701808591850E9425167C0127E0C2
S113355040E463E08DE290E20E94411627E041E0FE
S1133560BC01C7010E948C150E947B15BC01888197
S113357099810E94B915E881F981828193818483BC
S11335809583CE01DF91CF911F910F91FF90EF9022
S1133590DF90CF900895CF93DF930E946E15EC01D6
S11335A080E00E94CF170E947B15BC01CE010E94CF
S11335B0B91580E00E948E180E947B15BC01CE01D3
S11335C00E94B91580E00E944D190E947B15BC0130
S11335D0CE010E94B91580E00E940C1A0E947B154E
S11335E0BC01CE010E94B915CE01DF91CF9108959F
S11335F0CF93DF93DB0118962C9120FD21C0EC01C1
S11336000E94FF15DC011496ED91FC91159726811B
S113361020FD10C02160268312968D919C911397F2
S11336208C839D83CE010E94FF15DC011496ED91DD
S1133630FC91159786818E7F86838E2F9F2F02C0E3
S113364080E090E0DF91CF910895CF93DF93DB0189
S113365018962C9120FD1FC0EC010E94FF15DC017F
S11336601496ED91FC911597268120FD0EC02160E2
S113367026838D919C918C839D83CE010E94FF159E
S1133680DC011496ED91FC91159786818E7F8683DB
S11336908E2F9F2F02C080E090E0DF91CF9108959C
S11336A0FC0165838281816082838181886081835A
S11336B08181806C81838481816084830895FC018D
S11336C06683948195FFFDCF0895FC0167839481FF
S11336D095FFFDCF0895FC01938193609383089532
S11336E00E94CD1B63E280915F20909160200E9434
S11336F0501B80915F20909160200E94CE1160E069
S113370080915F20909160200E9490120E94DD0BB6
S11337100E94820480935C2190935D2180914621D4
S1133720909147210E94AB078093462190934721B3
S11337300E94011480938021909381210E94CB1ACE
S11337408093822190938321DC011496ED91FC9166
S11337501597848195818093842190938521DC0140
S11337601296ED91FC91139719957894E091462166
S1133770F09147210480F581E02D199580918021F5
S113378090918121DC011A96ED91FC911B97609137
S11337908221709183211995E9CF82E080935000B2
S11337A08091510081FFFCCF88ED84BF81E080933C
S11337B0400008955058BB27AA270E94F21B0C947E
S11337C0431D0E94351D38F00E943C1D20F039F441
S11337D09F3F19F426F40C94321D0EF4E095E7FB98
S11337E00C942C1DE92F0E94541D58F3BA1762073C
S11337F073078407950720F079F4A6F50C94761DD9
S11338000EF4E0950B2EBA2FA02D0B01B9019001F7
S11338100C01CA01A0011124FF27591B99F0593F3B
S113382050F4503E68F11A16F040A22F232F342F83
S11338304427585FF3CF469537952795A795F040D1
S11338405395C9F77EF41F16BA0B620B730B840BE6
S1133850BAF09150A1F0FF0FBB1F661F771F881F9E
S1133860C2F70EC0BA0F621F731F841F48F48795F6
S113387077956795B795F7959E3F08F0B0CF9395E8
S1133880880F08F09927EE0F9795879508950E9461
S11338905B1C0C94431D0E943C1D58F00E94351D76
S11338A040F029F45F3F29F00C942C1D51110C9425
S11338B0771D0C94321D0E94541D68F39923B1F3B3
S11338C0552391F3951B550BBB27AA276217730742
S11338D0840738F09F5F5F4F220F331F441FAA1FD6
S11338E0A9F335D00E2E3AF0E0E832D09150504092
S11338F0E695001CCAF72BD0FE2F29D0660F771F40
S1133900881FBB1F261737074807AB07B0E809F025
S1133910BB0B802DBF01FF2793585F4F3AF09E3FAA
S1133920510578F00C942C1D0C94771D5F3FE4F343
S1133930983ED4F3869577956795B795F7959F5FED
S1133940C9F7880F911D9695879597F90895E1E039
S1133950660F771F881FBB1F621773078407BA0798
S113396020F0621B730B840BBA0BEE1F88F7E095F3
S113397008950E94C01C6894B1110C94771D089599
S11339800E945C1D88F09F5798F0B92F9927B75172
S1133990B0F0E1F0660F771F881F991F1AF0BA95EF
S11339A0C9F714C0B13091F00E94761DB1E00895BA
S11339B00C94761D672F782F8827B85F39F0B93FAC
S11339C0CCF3869577956795B395D9F73EF49095A2
S11339D08095709561957F4F8F4F9F4F0895E89420
S11339E009C097FB3EF490958095709561957F4F43
S11339F08F4F9F4F9923A9F0F92F96E9BB279395F1
S1133A00F695879577956795B795F111F8CFFAF400
S1133A10BB0F11F460FF1BC06F5F7F4F8F4F9F4F31
S1133A2016C0882311F096E911C0772321F09EE88F
S1133A30872F762F05C0662371F096E8862F70E0F5
S1133A4060E02AF09A95660F771F881FDAF7880FCF
S1133A509695879597F9089597F99F6780E870E0A0
S1133A6060E008959FEF80EC089500240A941616F0
S1133A70170618060906089500240A941216130658
S1133A80140605060895092E0394000C11F48823E6
S1133A9052F0BB0F40F4BF2B11F460FF04C06F5F02
S1133AA07F4F8F4F9F4F089557FD9058440F551FD8
S1133AB059F05F3F71F04795880F97FB991F61F0AC
S1133AC09F3F79F087950895121613061406551F23
S1133AD0F2CF4695F1DF08C0161617061806991F8F
S1133AE0F1CF86957105610508940895E894BB2784
S1133AF066277727CB0197F908950E94901D0C94AF
S1133B00431D0E94351D38F00E943C1D20F0952372
S1133B1011F00C942C1D0C94321D11240C94771D5F
S1133B200E94541D70F3959FC1F3950F50E0551FEB
S1133B30629FF001729FBB27F00DB11D639FAA27FE
S1133B40F00DB11DAA1F649F6627B00DA11D661F4D
S1133B50829F2227B00DA11D621F739FB00DA11D6E
S1133B60621F839FA00D611D221F749F3327A00D28
S1133B70611D231F849F600D211D822F762F6A2FC4
S1133B8011249F5750409AF0F1F088234AF0EE0F29
S1133B90FF1FBB1F661F771F881F91505040A9F756
S1133BA09E3F510580F00C942C1D0C94771D5F3FB3
S1133BB0E4F3983ED4F3869577956795B795F79592
S1133BC0E7959F5FC1F7FE2B880F911D969587950A
S1133BD097F9089557FD04C05BBF67911BBE089514
S1133BE0608108950F931F93CF93DF9382309105E3
S1133BF010F482E090E0E0918821F091892120E0A6
S1133C0030E0A0E0B0E0309719F1408151810281A9
S1133C10138148175907C8F08417950769F410975A
S1133C2031F012960C93129713961C9327C00093AD
S1133C3088211093892122C02115310519F04217DA
S1133C40530718F49A01BD01EF01DF01F801DBCF3E
S1133C5021153105F9F0281B390B2430310580F486
S1133C608A819B816115710521F0FB018283938315
S1133C7004C08093882190938921FE01329644C028
S1133C80FE01E20FF31F819391932250310928839F
S1133C9039833AC02091862130918721232B41F426
S1133CA02091022030910320209386213093872194
S1133CB020910020309101202115310541F42DB7C8
S1133CC03EB74091042050910520241B350BE09110
S1133CD08621F0918721E217F307A0F42E1B3F0BF6
S1133CE02817390778F0AC014E5F5F4F241735076A
S1133CF048F04E0F5F1F4093862150938721819394
S1133D00919302C0E0E0F0E0CF01DF91CF911F91E9
S1133D100F910895CF93DF93009709F481C0FC01BC
S1133D20329712821382A0918821B0918921109731
S1133D3081F420813181820F931F2091862130915B
S1133D4087212817390751F5E0938621F0938721BD
S1133D5067C0ED0120E030E0CE17DF0740F44A8170
S1133D605B819E0141155105F1F0EA01F5CFC28353
S1133D70D38340815181840F951FC817D90759F403
S1133D8088819981840F951F0296808391838A810B
S1133D909B81828393832115310529F4E093882143
S1133DA0F09389213DC0E901EA83FB83499159914C
S1133DB0C40FD51FEC17FD0761F480819181840F36
S1133DC0951F0296E90188839983828193818A836E
S1133DD09B83E0E0F0E012968D919C9113970097FD
S1133DE019F0FD01DC01F7CF8D919C9111979D0194
S1133DF02E5F3F4F820F931F2091862130918721A0
S1133E002817390769F4309729F410928821109201
S1133E10892102C012821382A0938621B093872144
S1133E20DF91CF910895FC0188279927E894219187
S1133E302032E9F3293010F02E30C8F32B3241F050
S1133E402D3239F4689404C00E94461F820F911DDC
S1133E50219120532A30C0F31EF4909581959F4FF1
S1133E600895FB01DC0101900D920020E1F7089513
S1133E70FB01DC014150504030F08D9101908019DC
S1133E8019F40020B9F7881B990B08957AE0979FDD
S1133E90902D879F802D910D11240895F894FFCFC4
S1133EA000008A21200001722079207F207E208555
S1133EB020842089208C20000BA00426212D21346D
S1133EC0213B21422126212D2134213B2126212D54
S1133ED021342126212D21B820BF20C620CD20D475
S1133EE020DB20E220E920F020F720FE2005210C31
S1133EF02113211A21212128212F2136213D21A0FE
S1133F0004202020202020002020202020202020E9
S1133F102000535441545553004D4F5645004554C9
S1133F2041534B00454A4F42004546005346005317
S1133F30460A005354415455530A00300A0045467A
S1133F400A00310A00320A00330A00340A00350A32
S1133F500039390A00360A00536372345031005371
S1133F6063723450320053637234503300536372BB
S1133F7034503400536372345035005363723350F9
S1133F803100536372335032005363723350330041
S1133F9053637233503400536372335035005363A8
S1133FA072325031005363723250320053637232B2
S1133FB050330053637232503400536372325035BD
S1133FC000536372315031005363723150320053E5
S1133FD0637231503300536372315034005363724F
S1073FE03150350023
S9030000FC
