:100000000C9404010C942A010C942A010C942A01EA
:100010000C942A010C942A010C942A010C942A01B4
:100020000C942A010C942A010C942A010C942A01A4
:100030000C942A010C942A010C942A010C942A0194
:100040000C942A010C942A010C942A010C942A0184
:100050000C941D060C942A010C942A010C942A017C
:100060000C942A010C942A010C942A010C942A0164
:100070000C942A010C942A010C942A010C942A0154
:100080000C942A010C942A010C942A010C942A0144
:100090000C942A010C942A010C942A010C942A0134
:1000A0000C942A010C942A010C942A010C942A0124
:1000B0000C942A010C942A010C942A010C942A0114
:1000C0000C942A010C942A010C942A010C942A0104
:1000D0000C942A010C942A010C942A010C942A01F4
:1000E0000C942A010C942A010C942A010C942A01E4
:1000F0000C942A010C94BE050C947A050C942A01E8
:100100000C942A010C942A010C942A010C942A01C3
:100110000C942A010C942A010C942A010C942A01B3
:100120000C942A010C942A010C942A010C942A01A3
:100130000C942A010C942A010C942A010C942A0193
:100140000C942A010C942A010C942A010C942A0183
:100150000C942A010C942A010C942A010C942A0173
:100160000C942A010C942A010C942A010C942A0163
:100170000C942A010C942A010C942A010C942A0153
:100180000C942A010C942A010C942A010C942A0143
:100190000C942A010C942A010C942A010C942A0133
:1001A0000C942A010C942A010C942A010C942A0123
:1001B0000C942A010C942A010C942A010C942A0113
:1001C0000C942A010C942A010C942A010C942A0103
:1001D0000C942A010C942A010C942A010C942A01F3
:1001E0000C942A010C942A010C942A010C942A01E3
:1001F0000C942A010C942A010C942A010C944003BB
:100200000C9499030C943D0311241FBECFEFCDBF76
:10021000DFE3DEBF00E00CBF18BE19BE1ABE1BBE76
:1002200010E2A0E0B0E2E8EAF1E100E00BBF02C0BA
:1002300007900D92A635B107D9F71BBE20E2A6E5BF
:10024000B0E201C01D92AB37B207E1F70E94390757
:100250000C94D2080C9400000F931F93CF93DF935C
:10026000082F162FD42FC22F84E090E00E9476072B
:10027000FC0100831183D2838381C0FB80F98383D7
:10028000CF01DF91CF911F910F9108950F931F938D
:10029000CF93DF938C01EB0184E090E00E9476071E
:1002A000FC0102831383C083D183DF91CF911F911F
:1002B0000F91089587E090E00E947607FC01168276
:1002C0001482158210821182128213820895FC0119
:1002D00082819381892B51F462837383DB011D92A8
:1002E0001C92828193818083918307C08081918158
:1002F000DB018D939C9360837183808191818483E2
:10030000958386818F5F86830895FC01A481B581E2
:1003100012968D919C9113972D913C912483358356
:100320000895FC01A481B58112968D919C9113973B
:100330002D913C91248335830895EF92FF920F9382
:100340001F93CF93DF938C01EB01DC01ED90FC90C8
:100350000E945A01B7010E944601BC01C8010E94D7
:1003600067018A859B850E949708E82E8885998574
:100370000E949708F82E8E819F810E949708EC8139
:10038000FD812E2D4F2D682F80810E942C0160E071
:1003900070E00E944601D801ED91FC91BC01828180
:1003A00093810E946701DF91CF911F910F91FF9080
:1003B000EF900895BF92CF92DF92EF92FF920F934A
:1003C0001F93CF93DF937C01EB01B42EDC01CD9022
:1003D000DC90F6010281138180910620882381F050
:1003E0000E945A01B6010E944601BC01C7010E9449
:1003F0006701D701ED91FC910281138110920620D3
:10040000F801E080F1808A859B850E949708C82EBC
:10041000888599850E949708D82E8E819F810E9499
:100420009708EC81FD812C2D4D2D682F80810E9435
:100430002C01B7010E944601BC01C8010E9467015E
:10044000BB2019F081E080930620DF91CF911F91AE
:100450000F91FF90EF90DF90CF90BF900895CF93D2
:10046000DF9380E190E00E947607EC0180E190E06C
:100470000E94760788839983FC01108280E190E0D6
:100480000E9476078A839B83FC01108280E190E0C2
:100490000E9476078C839D83FC01108280E190E0AE
:1004A0000E9476078E839F83FC01108280E190E09A
:1004B0000E94760788879987FC01108280E190E08E
:1004C0000E9476078A879B87FC01108280E190E07A
:1004D0000E9476078E879F87FC011082CE01DF91F4
:1004E000CF9108950F931F93CF93DF938C01EB016E
:1004F0000E94A004BC01888199810E94B50868818E
:10050000798142E050E080911520909116200E9460
:10051000BC08892B09F04EC0C8010E94A004BC0190
:100520008A819B810E94B508C8010E94A004BC0179
:100530008C819D810E94B508C8010E94A004BC0165
:100540008E819F810E94B508C8010E94A004BC0151
:10055000888599850E94B508C8010E94A004BC0145
:100560008A859B850E94B508C8010E94A004BC0131
:100570008C859D850E94B508C8010E94A004BC011D
:100580008E859F850E94B5086E857F8542E050E08C
:1005900080911320909114200E94BC08892B29F48B
:1005A000C8010E94D60481E009C0C8010E94D60497
:1005B00080E004C0C8010E94D60480E0DF91CF91A2
:1005C0001F910F910895CF93DF93FC01C281D381D6
:1005D00043E050E0BE0180911120909112200E94D2
:1005E000BC08892B71F143E050E0BE0180910F20DF
:1005F000909110200E94BC08892B29F143E050E023
:10060000BE0180910D2090910E200E94BC08892B84
:10061000E1F043E050E0BE0180910B2090910C206E
:100620000E94BC08892B99F043E050E0BE01809104
:10063000092090910A200E94BC08892B51F482E085
:1006400009C086E007C085E005C084E003C083E000
:1006500001C081E0DF91CF910895FC018081813359
:1006600031F0823331F0833331F483E0089581E057
:10067000089582E0089583E608950E94380508955C
:10068000CF93DF93EC0186E390E20E9438058FEB75
:100690009AED0197F1F700C000008AE390E20E9412
:1006A00038059FEF28EA81E0915020408040E1F733
:1006B00000C00000CE010E9438058FEB9AED019733
:1006C000F1F700C0000082E490E20E9438058FEB51
:1006D0009AED0197F1F700C0000082E490E20E94D9
:1006E00038058FEB9AED0197F1F700C0000082E426
:1006F00090E20E9438058FEB9AED0197F1F700C068
:10070000000082E490E20E9438058FEB9AED019799
:10071000F1F700C0000085E490E20E9438058FEBFD
:100720009AED0197F1F700C0000081E0DF91CF91D1
:100730000895E0915A20F0915B20858980FF77C071
:100740006091562070915720CF010E947202882339
:1007500009F469C080915620909157200E94E302CD
:100760008330D1F128F4813051F0823031F1089595
:10077000843009F441C0853009F44EC00895E091F9
:100780005620F0915720848195810E942D0382305C
:1007900051F0833069F0813009F049C089E490E27A
:1007A0000E94400308958CE490E20E944003089563
:1007B0008FE490E20E94400308956091562070916A
:1007C000572080916120909162200E949D0189E4D0
:1007D00090E20E9440030895609156207091572046
:1007E00040E080916120909162200E94DA0189E4CA
:1007F00090E20E9440030895609156207091572026
:1008000041E080916120909162200E94DA0189E4A8
:1008100090E20E94400308958091612090916220AF
:100820000E940706089582E590E20E944003089521
:10083000CF93DF9386E090E00E947607EC0160E1C1
:1008400080915A2090915B200E944C0480935A2002
:1008500090935B2026E047E060E876E080EB9AE04A
:100860000E94F60480915620909157200E942F02FA
:10087000809356209093572089E993E08C839D8341
:100880008DE393E08883998380E493E08A839B835C
:10089000CE01DF91CF910895EF92FF920F931F93B6
:1008A000CF93DF93062F86E190E00E9476077C01CC
:1008B00010E00FC0C12FD0E0802F90E00E9476079B
:1008C000CC0FDD1FCE0DDF1D88839983FC011082C4
:1008D0001F5F193078F3802F90E00E947607F701B0
:1008E000828B938BFC011082F701148A85898E7F9D
:1008F0008260858BC701DF91CF911F910F91FF908F
:10090000EF900895CF93DF93EC01EC89E93060F428
:1009100081E08E0F8C8BF0E0EE0FFF1FEC0FFD1FC0
:10092000808191810E94B5088D898D7F8D8B8C8906
:10093000883019F48D8981608D8BDF91CF91089576
:100940001F93CF93DF93EC01688179818A899B891A
:100950000E94B50810E014C0812F90E0FC01319690
:10096000EE0FFF1FEC0FFD1F60817181880F991F33
:10097000FE01E80FF91F808191810E94B5081F5F79
:100980008C89181748F3882311F081508C8B8D893E
:100990008E7F8D8B8C89811103C08D8982608D8BB8
:1009A0008A899B89DF91CF911F910895DC0190E0A6
:1009B0000BC0E92FF0E0EE0FFF1FEA0FFB1F0190C5
:1009C000F081E02D10829F5F993098F35296ED915F
:1009D000FC915397108254961C92549755968C9183
:1009E00055978E7F826055968C930895FB01809376
:1009F0005E2090935F2081E090E0BC0102C0660F12
:100A0000771F4A95E2F76583618302C0880F991FBB
:100A10002A95E2F78283E0915E20F0915F208CE0DE
:100A2000868380E4878383E0858380E2838382E01A
:100A30008093A20084818861848380E006C0E82FCF
:100A4000F0E0EB59FF4D10828F5F8031C0F380E101
:100A500090E00E947607809375209093762080E145
:100A600090E00E947607809363209093642008951D
:100A7000BC0180916320909164200E94B508E091B0
:100A80005E20F0915F20838182608383089590EEE1
:100A9000980F9F3550F4E0915D2091E09E0F909368
:100AA0005D20F0E0EB59FF4D80838D3031F08823DD
:100AB00021F080915D208D30D0F0A0915D20E1E0AB
:100AC000EA0FB0E0AB59BF4D8AE08C9381E08E0F06
:100AD000F0E0EB59FF4D9DE09083E82FF0E0EB59FB
:100AE000FF4D108210925D2085E690E2089580E02F
:100AF00090E008951F920F920FB60F92112408B63E
:100B00000F9218BE0BB60F921BBE8F939F93EF935D
:100B1000FF9390915C20E0916320F0916420E90FB5
:100B2000F11D8081882331F0803298F48A3089F079
:100B30008D3079F0E0915E20F0915F201082E0919D
:100B40005E20F0915F2083818D7F838310925C20F3
:100B500008C0E0915E20F0915F209F5F90935C2041
:100B60008083FF91EF919F918F910F900BBE0F901B
:100B700008BE0F900FBE0F901F9018951F920F92F6
:100B80000FB60F92112408B60F9218BE09B60F9235
:100B900019BE0BB60F921BBE2F933F934F935F93DB
:100BA0006F937F938F939F93AF93BF93EF93FF9335
:100BB000E0915E20F0915F2080810E944705809344
:100BC000752090937620009759F0BC0180915A20AF
:100BD00090915B200E9482041092752010927620E2
:100BE000FF91EF91BF91AF919F918F917F916F9105
:100BF0005F914F913F912F910F900BBE0F9009BEC7
:100C00000F9008BE0F900FBE0F901F901895CF93B6
:100C1000DF93FC018681882369F0CF010E94850162
:100C2000EC0103C0CE010E9491018C819D81892B32
:100C3000C9F781E0DF91CF9108951F920F920FB60F
:100C40000F92112408B60F9218BE8F9380916020E6
:100C50008F5F80936020813011F4109260208F911B
:100C60000F9008BE0F900FBE0F901F9018951F9306
:100C7000CF93DF93EC01142F0E94280760E8CE0188
:100C80000E942E07612FCE010E942E0760E8CE0140
:100C90000E942E07612FCE010E942E07CE010E94D6
:100CA0003407DF91CF911F9108950F931F93CF9336
:100CB000DF93EC01142F022F0E94280760E8CE0179
:100CC0000E942E07612FCE010E942E0760E8CE0100
:100CD0000E942E07612FCE010E942E07602FCE01A9
:100CE0000E942E07CE010E943407DF91CF911F9101
:100CF0000F910895CF93DF93EC0124E14DE868E76D
:100D00000E9455064FEA68E7CE010E943706DF9140
:100D1000CF910895CF93DF93EC0123E04AED68E78C
:100D20000E94550648EC68E7CE010E94370622E093
:100D300040E268E7CE010E94550640EB68E7CE012D
:100D40000E94370640E068E7CE010E94370640E186
:100D500068E7CE010E94370640E468E7CE010E94B2
:100D6000370641EA68E7CE010E943706CE010E94AD
:100D70007A06DF91CF9108951F93CF93DF93EC0113
:100D8000142F0E94280760ECCE010E942E07612FCD
:100D9000CE010E942E07CE010E943407DF91CF9131
:100DA0001F9108950F931F93CF938C01C62F405529
:100DB00068E70E9437064C2F4F7068E7C8010E9411
:100DC00037064C2F42954F70405F68E7C8010E947C
:100DD0003706CF911F910F910895CF92DF92FF9226
:100DE0000F931F93CF93DF938C01F62EC12CD12C40
:100DF00014C04C2D60E0C8010E94D206C0E0D0E0D3
:100E000006C04F2D68E7C8010E94BC062196C03875
:100E1000D105B8F38FEFC81AD80A88E0C816D104F4
:100E200040F3DF91CF911F910F91FF90DF90CF9012
:100E30000895FC016583828181608283818188605D
:100E400081838181806C8183848181608483089522
:100E5000FC016683948195FFFDCF0895FC016783B3
:100E6000948195FFFDCF0895FC0193819360938356
:100E700008950E94690763E28091172090911820DD
:100E80000E94190780911720909118200E948A06CD
:100E90006AEA80911720909118200E94ED060E9426
:100EA0005A01809361209093622080915820909104
:100EB00059200E94180480935820909359207894C8
:100EC000E0915820F09159200480F581E02D19958A
:100ED000F7CF82E0809350008091510081FFFCCFDA
:100EE00088ED84BF81E08093400008950F931F93A5
:100EF000CF93DF938230910510F482E090E0E0918F
:100F00007920F0917A2020E030E0A0E0B0E0309746
:100F100019F1408151810281138148175907C8F0A6
:100F20008417950769F4109731F012960C93129775
:100F300013961C9327C00093792010937A2022C027
:100F40002115310519F04217530718F49A01BD0114
:100F5000EF01DF01F801DBCF21153105F9F0281B86
:100F6000390B2430310580F48A819B81611571052C
:100F700021F0FB018283938304C0809379209093B6
:100F80007A20FE01329644C0FE01E20FF31F8193E6
:100F9000919322503109288339833AC020917720D8
:100FA00030917820232B41F42091022030910320AE
:100FB00020937720309378202091002030910120D9
:100FC0002115310541F42DB73EB7409104205091D1
:100FD0000520241B350BE0917720F0917820E21753
:100FE000F307A0F42E1B3F0B2817390778F0AC014C
:100FF0004E5F5F4F2417350748F04E0F5F1F409339
:101000007720509378208193919302C0E0E0F0E044
:10101000CF01DF91CF911F910F910895CF93DF936F
:10102000009709F481C0FC01329712821382A091CB
:101030007920B0917A20109781F420813181820F3C
:10104000931F20917720309178202817390751F588
:10105000E0937720F093782067C0ED0120E030E046
:10106000CE17DF0740F44A815B819E01411551058F
:10107000F1F0EA01F5CFC283D38340815181840F1F
:10108000951FC817D90759F488819981840F951F36
:101090000296808391838A819B8182839383211529
:1010A000310529F4E0937920F0937A203DC0E901DD
:1010B000EA83FB8349915991C40FD51FEC17FD07B3
:1010C00061F480819181840F951F0296E9018883E4
:1010D0009983828193818A839B83E0E0F0E012967A
:1010E0008D919C911397009719F0FD01DC01F7CFCA
:1010F0008D919C9111979D012E5F3F4F820F931F01
:1011000020917720309178202817390769F430979B
:1011100029F41092792010927A2002C01282138250
:10112000A0937720B0937820DF91CF910895FC01B0
:1011300088279927E89421912032E9F3293010F08B
:101140002E30C8F32B3241F02D3239F4689404C0AC
:101150000E94CA08820F911D219120532A30C0F3AA
:101160001EF4909581959F4F0895FB01DC0101903D
:101170000D920020E1F70895FB01DC014150504041
:1011800030F08D910190801919F40020B9F7881B77
:10119000990B08957AE0979F902D879F802D910D50
:0811A00011240895F894FFCF1B
:1011A80000007B2020000119202020262025202C4B
:1011B800202B2030203320800453544154555300B1
:1011C8004D4F564500455441534B00454A4F420048
:1011D80045460053460053460A005354415455535C
:1011E8000A00300A0045460A00310A00320A003374
:0611F8000A0039390A006B
:00000001FF
