S00F0000526F626F41726D2E7372656363
S11300000C94FE000C941B010C941B010C941B011A
S11300100C941B010C941B010C941B010C941B01EC
S11300200C941B010C941B010C941B010C941B01DC
S11300300C941B010C941B010C941B010C941B01CC
S11300400C941B010C941B010C941B010C941B01BC
S11300500C941B010C941B010C941B010C941B01AC
S11300600C941B010C941B010C941B010C941B019C
S11300700C941B010C941B010C941B010C941B018C
S11300800C941B010C941B010C941B010C941B017C
S11300900C941B010C941B010C941B010C941B016C
S11300A00C941B010C941B010C941B010C941B015C
S11300B00C941B010C941B010C941B010C941B014C
S11300C00C941B010C941B010C941B010C941B013C
S11300D00C941B010C941B010C941B010C941B012C
S11300E00C941B010C941B010C941B010C941B011C
S11300F00C941B010C941B010C941B010C941B010C
S11301000C941B010C941B010C941B010C941B01FB
S11301100C941B010C941B010C941B010C941B01EB
S11301200C941B010C941B010C941B010C941B01DB
S11301300C941B010C941B010C941B010C941B01CB
S11301400C941B010C941B010C941B010C941B01BB
S11301500C941B010C941B010C941B010C941B01AB
S11301600C941B010C941B010C941B010C940C03A8
S11301700C94D2020C941B010C941B010C941B01D3
S11301800C941B010C941B010C941B010C941B017B
S11301900C941B010C941B010C941B010C941B016B
S11301A00C941B010C941B010C941B010C941B015B
S11301B00C941B010C941B010C941B010C941B014B
S11301C00C941B010C941B010C941B010C941B013B
S11301D00C941B010C941B010C941B010C941B012B
S11301E00C941B010C941B010C941B010C941B011B
S11301F00C941B010C941B010C941B0111241FBEB5
S1130200CFEFCDBFD7E2DEBF10E2A0E0B0E2E2E57F
S1130210FBE002C005900D92AC31B107D9F720E2A2
S1130220ACE1B0E201C01D92AE33B207E1F70E9427
S113023048040C94A7050C940000CF93DF9380E14D
S113024090E00E947F04EC0180E190E00E947F0432
S113025088839983FC01108280E190E00E947F04EE
S11302608A839B83FC01108280E190E00E947F04DA
S11302708C839D83FC01108280E190E00E947F04C6
S11302808E839F83FC01108280E190E00E947F04B2
S113029088879987FC01108280E190E00E947F04A6
S11302A08A879B87FC01108280E190E00E947F0492
S11302B08E879F87FC011082CE01DF91CF91089534
S11302C0E0912020F09121209589892F817090FD63
S11302D081E008950E9490020895CF93DF93EC018A
S11302E088E090E20E9490028FEB9AED0197F1F77B
S11302F000C000008CE090E20E9490029FEF28EA88
S113030081E0915020408040E1F700C00000CE0120
S11303100E9490028FEB9AED0197F1F700C0000064
S113032084E190E20E9490028FEB9AED0197F1F73D
S113033000C0000084E190E20E9490028FEB9AEDED
S11303400197F1F700C0000084E190E20E9490025E
S11303508FEB9AED0197F1F700C0000084E190E281
S11303600E9490028FEB9AED0197F1F700C0000014
S113037087E190E20E9490028FEB9AED0197F1F7EA
S113038000C0000081E0DF91CF910895CF93DF9307
S113039086E090E00E947F04EC0160E180912020DF
S11303A0909121200E94FA01809320209093212093
S11303B026E047E060E676E080EB99E00E944E029A
S11303C080911C2090911D200E941D0180931C206F
S11303D090931D2080E691E08C839D838AE691E0D2
S11303E0888399838DE691E08A839B83CE01DF9194
S11303F0CF910895EF92FF920F931F93CF93DF93C2
S1130400062F86E190E00E947F047C0110E00FC07B
S1130410C12FD0E0802F90E00E947F04CC0FDD1F1D
S1130420CE0DDF1D88839983FC0110821F5F193074
S113043078F3802F90E00E947F04F701828B938BE6
S1130440FC011082F701148A85898E7F8260858B76
S1130450C701DF91CF911F910F91FF90EF90089505
S1130460CF93DF93EC01EC89E93060F481E08E0FE7
S11304708C8BF0E0EE0FFF1FEC0FFD1F808191814C
S11304800E94A0058D898D7F8D8B8C89883019F40D
S11304908D8981608D8BDF91CF910895FB018093CD
S11304A024209093252081E090E0BC0102C0660FD7
S11304B0771F4A95E2F76583618302C0880F991F0D
S11304C02A95E2F78283E0912420F09125208CE0A4
S11304D0868380E4878383E0858380E2838382E06C
S11304E08093A20084818861848380E006C0E82F21
S11304F0F0E0E85DFF4D10828F5F8031C0F380E152
S113050090E00E947F04809338209093392080E10A
S113051090E00E947F0480932620909327200895E2
S1130520BC0180912620909127200E94A005E09193
S11305302420F0912520838182608383089590EEA6
S1130540980F9F3550F4E091232091E09E0F9093F3
S11305502320F0E0E85DFF4D80838D3031F0882367
S113056021F0809123208D30D0F0A0912320E1E070
S1130570EA0FB0E0A85DBF4D8AE08C9381E08E0F56
S1130580F0E0E85DFF4D9DE09083E82FF0E0E85D4A
S1130590FF4D10821092232088E290E2089580E0BB
S11305A090E008951F920F920FB60F9211248F932B
S11305B09F93EF93FF9390912220E0912620F09156
S11305C02720E90FF11D8081882331F0803298F4CF
S11305D08A3089F08D3079F0E0912420F091252043
S11305E01082E0912420F091252083818D7F8383E4
S11305F01092222008C0E0912420F09125209F5FD2
S1130600909322208083FF91EF919F918F910F907F
S11306100FBE0F901F9018951F920F920FB60F9256
S113062011242F933F934F935F936F937F938F93F3
S11306309F93AF93BF93EF93FF93E0912420F091A6
S1130640252080810E949F02809338209093392036
S1130650009759F0BC0180912020909121200E94A4
S113066030021092382010923920FF91EF91BF91FF
S1130670AF919F918F917F916F915F914F913F9136
S11306802F910F900FBE0F901F9018951F93CF932B
S1130690DF93EC01142F0E94370460E8CE010E941E
S11306A03D04612FCE010E943D0460E8CE010E940A
S11306B03D04612FCE010E943D04CE010E944304FB
S11306C0DF91CF911F9108950F931F93CF93DF93E1
S11306D0EC01142F022F0E94370460E8CE010E941F
S11306E03D04612FCE010E943D0460E8CE010E94CA
S11306F03D04612FCE010E943D04602FCE010E9473
S11307003D04CE010E944304DF91CF911F910F91CC
S11307100895CF93DF93EC0124E14DE868E70E944C
S113072064034FEA68E7CE010E944603DF91CF914C
S11307300895CF93DF93EC0123E04AED68E70E942C
S1130740640348EC68E7CE010E94460322E040E2DD
S113075068E7CE010E94640340EB68E7CE010E9483
S1130760460340E068E7CE010E94460340E168E7A3
S1130770CE010E94460340E468E7CE010E9446038E
S113078041EA68E7CE010E944603CE010E94890334
S1130790DF91CF9108951F93CF93DF93EC01142F32
S11307A00E94370460ECCE010E943D04612FCE010B
S11307B00E943D04CE010E944304DF91CF911F911A
S11307C008950F931F93CF938C01C62F405568E76C
S11307D00E9446034C2F4F7068E7C8010E944603ED
S11307E04C2F42954F70405F68E7C8010E94460352
S11307F0CF911F910F910895CF92DF92FF920F93A3
S11308001F93CF93DF938C01F62EC12CD12C14C0EF
S11308104C2D60E0C8010E94E103C0E0D0E006C0B6
S11308204F2D68E7C8010E94CB032196C038D1053B
S1130830B8F38FEFC81AD80A88E0C816D10440F379
S1130840DF91CF911F910F91FF90DF90CF9008958A
S1130850FC016583828181608283818188608183D8
S11308608181806C81838481816084830895FC010B
S11308706683948195FFFDCF0895FC01678394817D
S113088095FFFDCF0895FC019381936093830895B0
S11308900E94720463E280910620909107200E94D6
S11308A0280480910620909107200E9499036AEA07
S11308B080910620909107200E94FC0380911E20C5
S11308C090911F200E94C60180931E2090931F20A8
S11308D07894E0911E20F0911F200480F581E02D92
S11308E00995F7CF82E0809350008091510081FFF9
S11308F0FCCF88ED84BF81E08093400008950F937E
S11309001F93CF93DF938230910510F482E090E03F
S1130910E0913C20F0913D2020E030E0A0E0B0E008
S1130920309719F140815181028113814817590789
S1130930C8F08417950769F4109731F012960C9358
S1130940129713961C9327C000933C2010933D20CC
S113095022C02115310519F04217530718F49A01E2
S1130960BD01EF01DF01F801DBCF21153105F9F0FD
S1130970281B390B2430310580F48A819B81611551
S1130980710521F0FB018283938304C080933C2092
S113099090933D20FE01329644C0FE01E20FF31F06
S11309A08193919322503109288339833AC020914D
S11309B03A2030913B20232B41F4209102203091A6
S11309C0032020933A2030933B2020910020309143
S11309D001202115310541F42DB73EB74091042083
S11309E050910520241B350BE0913A20F0913B20D7
S11309F0E217F307A0F42E1B3F0B2817390778F0F2
S1130A00AC014E5F5F4F2417350748F04E0F5F1F50
S1130A1040933A2050933B208193919302C0E0E0AD
S1130A20F0E0CF01DF91CF911F910F910895CF9303
S1130A30DF93009709F481C0FC013297128213827C
S1130A40A0913C20B0913D20109781F42081318108
S1130A50820F931F20913A2030913B2028173907A9
S1130A6051F5E0933A20F0933B2067C0ED0120E07C
S1130A7030E0CE17DF0740F44A815B819E014115C7
S1130A805105F1F0EA01F5CFC283D383408151814E
S1130A90840F951FC817D90759F488819981840F49
S1130AA0951F0296808391838A819B81828393839D
S1130AB02115310529F4E0933C20F0933D203DC0FD
S1130AC0E901EA83FB8349915991C40FD51FEC17BF
S1130AD0FD0761F480819181840F951F0296E901DD
S1130AE088839983828193818A839B83E0E0F0E009
S1130AF012968D919C911397009719F0FD01DC01DA
S1130B00F7CF8D919C9111979D012E5F3F4F820FDE
S1130B10931F20913A2030913B202817390769F41C
S1130B20309729F410923C2010923D2002C012828A
S1130B301382A0933A20B0933B20DF91CF91089584
S1130B40FB01DC0101900D920020E1F70895F89477
S1050B50FFCFD1
S1130B5200003E202000800453460A0053544154AE
S10F0B6255530A00300A0045460A000002
S9030000FC
