S00F0000526F626F41726D2E7372656363
S11300000C94FE000C941B010C941B010C941B011A
S11300100C941B010C941B010C941B010C941B01EC
S11300200C941B010C941B010C941B010C941B01DC
S11300300C941B010C941B010C941B010C941B01CC
S11300400C941B010C941B010C941B010C941B01BC
S11300500C9412060C941B010C941B010C941B01B0
S11300600C941B010C941B010C941B010C941B019C
S11300700C941B010C941B010C941B010C941B018C
S11300800C941B010C941B010C941B010C941B017C
S11300900C941B010C941B010C941B010C941B016C
S11300A00C941B010C941B010C941B010C941B015C
S11300B00C941B010C941B010C941B010C941B014C
S11300C00C941B010C941B010C941B010C941B013C
S11300D00C941B010C941B010C941B010C941B012C
S11300E00C941B010C941B010C941B010C941B011C
S11300F00C941B010C941B010C941B010C941B010C
S11301000C941B010C941B010C941B010C941B01FB
S11301100C941B010C941B010C941B010C941B01EB
S11301200C941B010C941B010C941B010C941B01DB
S11301300C941B010C941B010C941B010C941B01CB
S11301400C941B010C941B010C941B010C941B01BB
S11301500C941B010C941B010C941B010C941B01AB
S11301600C941B010C941B010C941B010C94B00502
S11301700C9476050C941B010C941B010C941B012C
S11301800C941B010C941B010C941B010C941B017B
S11301900C941B010C941B010C941B010C941B016B
S11301A00C941B010C941B010C941B010C941B015B
S11301B00C941B010C941B010C941B010C941B014B
S11301C00C941B010C941B010C941B010C941B013B
S11301D00C941B010C941B010C941B010C941B012B
S11301E00C941B010C941B010C941B010C941B011B
S11301F00C941B010C941B010C941B0111241FBEB5
S1130200CFEFCDBFD7E2DEBF10E2A0E0B0E2ECE575
S1130210FFE002C005900D92AA35B107D9F720E29C
S1130220AAE5B0E201C01D92A338B207E1F70E942B
S113023027060C94AC070C9400000F931F93CF93E4
S1130240DF93082F162FD42FC22F84E090E00E9452
S11302505006FC0100831183D2838381C0FB80F9A3
S11302608383CF01DF91CF911F910F9108950F9355
S11302701F93CF93DF938C01EB0184E090E00E9405
S11302805006FC0102831383C083D183DF91CF9195
S11302901F910F91089587E090E00E945006FC01A1
S11302A0168214821582108211821282138208959A
S11302B0FC0182819381892B51F462837383DB0176
S11302C01D921C92828193818083918307C08081D7
S11302D09181DB018D939C936083718380819181F3
S11302E08483958386818F5F86830895FC01A4812E
S11302F0B58112968D919C9113972D913C912483F5
S113030035830895FC01A481B58112968D919C9149
S113031013972D913C91248335830895EF92FF9296
S11303200F931F93CF93DF938C01EB01DC01ED90CE
S1130330FC900E944B01B7010E943701BC01C80127
S11303400E9458018A859B850E947107E82E888542
S113035099850E947107F82E8E819F810E947107F2
S1130360EC81FD812E2D4F2D682F80810E941D016F
S113037060E070E00E943701D801ED91FC91BC016E
S1130380828193810E945801DF91CF911F910F9137
S1130390FF90EF900895BF92CF92DF92EF92FF9279
S11303A00F931F93CF93DF937C01EB01B42EDC01F9
S11303B0CD90DC90F6010281138180910620882380
S11303C081F00E944B01B6010E943701BC01C701B4
S11303D00E945801D701ED91FC9102811381109282
S11303E00620F801E080F1808A859B850E947107D0
S11303F0C82E888599850E947107D82E8E819F8189
S11304000E947107EC81FD812C2D4D2D682F808178
S11304100E941D01B7010E943701BC01C8010E945E
S11304205801BB2019F081E080930620DF91CF9121
S11304301F910F91FF90EF90DF90CF90BF900895A0
S1130440CF93DF9380E190E00E945006EC0180E1BD
S113045090E00E94500688839983FC01108280E119
S113046090E00E9450068A839B83FC01108280E105
S113047090E00E9450068C839D83FC01108280E1F1
S113048090E00E9450068E839F83FC01108280E1DD
S113049090E00E94500688879987FC01108280E1D1
S11304A090E00E9450068A879B87FC01108280E1BD
S11304B090E00E9450068E879F87FC011082CE0137
S11304C0DF91CF9108950F931F93CF93DF938C0106
S11304D0EB010E949C04BC01888199810E948F07D2
S11304E06881798142E050E0809115209091162036
S11304F00E949607892B09F04EC0C8010E949C04F3
S1130500BC018A819B810E948F07C8010E949C04C0
S1130510BC018C819D810E948F07C8010E949C04AC
S1130520BC018E819F810E948F07C8010E949C0498
S1130530BC01888599850E948F07C8010E949C048C
S1130540BC018A859B850E948F07C8010E949C0478
S1130550BC018C859D850E948F07C8010E949C0464
S1130560BC018E859F850E948F076E857F8542E042
S113057050E080911320909114200E949607892BBB
S113058029F4C8010E94D20481E009C0C8010E9474
S1130590D20480E004C0C8010E94D20480E0DF914C
S11305A0CF911F910F910895CF93DF93FC01C281E6
S11305B0D38143E050E0BE0180911120909112203C
S11305C00E949607892B71F143E050E0BE018091AF
S11305D00F20909110200E949607892B29F143E067
S11305E050E0BE0180910D2090910E200E9496074C
S11305F0892BE1F043E050E0BE0180910B20909103
S11306000C200E949607892B99F043E050E0BE012C
S11306108091092090910A200E949607892B51F419
S113062082E009C086E007C085E005C084E003C01D
S113063083E001C081E0DF91CF910895FC018081C6
S1130640813331F0823331F0833331F483E0089520
S113065081E0089582E0089583E608950E943405B8
S11306600895CF93DF93EC0184E390E20E94340574
S11306708FEB9AED0197F1F700C0000088E390E258
S11306800E9434059FEF28EA81E091502040804089
S1130690E1F700C00000CE010E9434058FEB9AED13
S11306A00197F1F700C0000080E490E20E94340555
S11306B08FEB9AED0197F1F700C0000080E490E21F
S11306C00E9434058FEB9AED0197F1F700C000000A
S11306D080E490E20E9434058FEB9AED0197F1F7E4
S11306E000C0000080E490E20E9434058FEB9AED94
S11306F00197F1F700C0000083E490E20E94340502
S11307008FEB9AED0197F1F700C0000081E0DF91D3
S1130710CF910895E0915E20F0915F20858980FF5C
S113072082C060915A2070915B20CF010E946302C5
S1130730882309F474C080915A2090915B200E9410
S1130740D4028330E1F128F4813061F0823041F148
S11307500895853009F453C008F441C0863009F483
S113076059C00895E0915A20F0915B2084819581CD
S11307700E941E03823051F0833069F0813009F009
S113078052C087E490E20E94310308958AE490E223
S11307900E94310308958DE490E20E94310308958C
S11307A060915A2070915B208091692090916A2019
S11307B00E948E0187E490E20E94310308956091C3
S11307C05A2070915B2040E08091692090916A20CA
S11307D00E94CB0187E490E20E9431030895609166
S11307E05A2070915B2041E08091692090916A20A9
S11307F00E94CB0187E490E20E9431030895809126
S1130800692090916A200E94EA0580E590E20E94A6
S11308103103089583E590E20E943103089586E54B
S113082090E20E9431030895CF93DF9386E090E035
S11308300E945006EC0160E180915E2090915F205F
S11308400E94480480935E2090935F2026E047E056
S113085060E676E080EB99E00E94F20480915A20F1
S113086090915B200E94200280935A2090935B20F9
S11308708AE893E08C839D838EE293E08883998356
S113088081E393E08A839B83CE01DF91CF91089526
S1130890EF92FF920F931F93CF93DF93062F86E17E
S11308A090E00E9450067C0110E00FC0C12FD0E000
S11308B0802F90E00E945006CC0FDD1FCE0DDF1D6F
S11308C088839983FC0110821F5F193078F3802F8D
S11308D090E00E945006F701828B938BFC011082FA
S11308E0F701148A85898E7F8260858BC701DF9129
S11308F0CF911F910F91FF90EF900895CF93DF93C5
S1130900EC01EC89E93060F481E08E0F8C8BF0E02F
S1130910EE0FFF1FEC0FFD1F808191810E948F0756
S11309208D898D7F8D8B8C89883019F48D898160B8
S11309308D8BDF91CF9108951F93CF93DF93EC01BB
S1130940688179818A899B890E948F0710E014C08D
S1130950812F90E0FC013196EE0FFF1FEC0FFD1F7D
S113096060817181880F991FFE01E80FF91F808152
S113097091810E948F071F5F8C89181748F3882381
S113098011F081508C8B8D898E7F8D8B8C89811198
S113099003C08D8982608D8B8A899B89DF91CF9179
S11309A01F910895DC0190E00BC0E92FF0E0EE0FF9
S11309B0FF1FEA0FFB1F0190F081E02D10829F5F63
S11309C0993098F35296ED91FC9153971082549676
S11309D01C92549755968C9155978E7F82605596AC
S11309E08C930895FB01809362209093632081E0AF
S11309F090E0BC0102C0660F771F4A95E2F7658359
S1130A00618302C0880F991F2A95E2F78283E091DF
S1130A106220F09163208CE0868380E4878383E006
S1130A20858380E2838382E08093A200848188614D
S1130A30848380E006C0E82FF0E0E359FF4D108284
S1130A408F5F8031C0F380E190E00E945006809374
S1130A507D2090937E2080E190E00E945006809358
S1130A606B2090936C200895BC0180916B20909131
S1130A706C200E948F07E0916220F09163208381B3
S1130A8082608383089590EE980F9F3550F4E0912F
S1130A90612091E09E0F90936120F0E0E359FF4DB7
S1130AA080838D3031F0882321F0809161208D3056
S1130AB0D0F0A0916120E1E0EA0FB0E0A359BF4D6E
S1130AC08AE08C9381E08E0FF0E0E359FF4D9DE0C6
S1130AD09083E82FF0E0E359FF4D108210926120DB
S1130AE08DE690E2089580E090E008951F920F92C1
S1130AF00FB60F9211248F939F93EF93FF939091CE
S1130B006020E0916B20F0916C20E90FF11D808151
S1130B10882331F0803298F48A3089F08D3079F06E
S1130B20E0916220F09163201082E0916220F091C4
S1130B30632083818D7F83831092602008C0E091BD
S1130B406220F09163209F5F909360208083FF91E7
S1130B50EF919F918F910F900FBE0F901F9018955A
S1130B601F920F920FB60F9211242F933F934F931E
S1130B705F936F937F938F939F93AF93BF93EF9301
S1130B80FF93E0916220F091632080810E944305ED
S1130B9080937D2090937E20009759F0BC01809132
S1130BA05E2090915F200E947E0410927D2010921E
S1130BB07E20FF91EF91BF91AF919F918F917F9193
S1130BC06F915F914F913F912F910F900FBE0F90B6
S1130BD01F901895CF93DF93FC0186818823F9F049
S1130BE0CF010E947601EC0115C0CE010E94820162
S1130BF0FC0180819181A281B381809365209093CF
S1130C006620A0936720B0936820E5E6F0E2818136
S1130C108F5F81838C819D81892B39F781E0DF91FE
S1130C20CF9108951F920F920FB60F9211248F93B4
S1130C30809164208F5F80936420813011F410923E
S1130C4064208F910F900FBE0F901F9018950E94F3
S1130C5043060E944B018093692090936A208091FF
S1130C605C2090915D200E94140480935C209093FA
S1130C705D207894E0915C20F0915D200480F58102
S1130C80E02D0995F7CF82E08093500080915100C8
S1130C9081FFFCCF88ED84BF81E0809340000895FC
S1130CA00F931F93CF93DF938230910510F482E06A
S1130CB090E0E0918120F091822020E030E0A0E0FB
S1130CC0B0E0309719F140815181028113814817B6
S1130CD05907C8F08417950769F4109731F01296F4
S1130CE00C93129713961C9327C0009381201093A2
S1130CF0822022C02115310519F04217530718F438
S1130D009A01BD01EF01DF01F801DBCF21153105A7
S1130D10F9F0281B390B2430310580F48A819B813A
S1130D206115710521F0FB018283938304C08093D4
S1130D30812090938220FE01329644C0FE01E20F8E
S1130D40F31F8193919322503109288339833AC048
S1130D5020917F2030918020232B41F42091022088
S1130D603091032020937F20309380202091002015
S1130D70309101202115310541F42DB73EB7409142
S1130D80042050910520241B350BE0917F20F09125
S1130D908020E217F307A0F42E1B3F0B2817390716
S1130DA078F0AC014E5F5F4F2417350748F04E0FC3
S1130DB05F1F40937F20509380208193919302C0C2
S1130DC0E0E0F0E0CF01DF91CF911F910F91089502
S1130DD0CF93DF93009709F481C0FC01329712820C
S1130DE01382A0918120B0918220109781F42081F8
S1130DF03181820F931F20917F203091802028170A
S1130E00390751F5E0937F20F093802067C0ED010E
S1130E1020E030E0CE17DF0740F44A815B819E0179
S1130E2041155105F1F0EA01F5CFC283D383408126
S1130E305181840F951FC817D90759F48881998166
S1130E40840F951F0296808391838A819B8182837C
S1130E5093832115310529F4E0938120F0938220B6
S1130E603DC0E901EA83FB8349915991C40FD51F21
S1130E70EC17FD0761F480819181840F951F029620
S1130E80E90188839983828193818A839B83E0E04B
S1130E90F0E012968D919C911397009719F0FD0143
S1130EA0DC01F7CF8D919C9111979D012E5F3F4FEF
S1130EB0820F931F20917F203091802028173907BB
S1130EC069F4309729F4109281201092822002C094
S1130ED012821382A0937F20B0938020DF91CF9160
S1130EE00895FC0188279927E89421912032E9F399
S1130EF0293010F02E30C8F32B3241F02D3239F462
S1130F00689404C00E94A407820F911D219120536C
S1130F102A30C0F31EF4909581959F4F0895FB01EC
S1130F20DC0101900D920020E1F70895FB01DC0142
S1130F304150504030F08D910190801919F40020F7
S1130F40B9F7881B990B08957AE0979F902D879F96
S10F0F50802D910D11240895F894FFCF1A
S1130F5C0000832020000117201E20242023202A97
S1130F6C2029202E203120535441545553004D4FE9
S1130F7C564500455441534B00454A4F42004546A3
S1130F8C0053460053460A005354415455530A0027
S1130F9C300A0045460A00310A00320A00330A00BE
S10D0FAC340A00350A0039390A003E
S9030000FC
