:100000000C9404010C942A010C942A010C942A01EA
:100010000C942A010C942A010C942A010C942A01B4
:100020000C942A010C942A010C942A010C942A01A4
:100030000C942A010C942A010C942A010C942A0194
:100040000C942A010C942A010C942A010C942A0184
:100050000C9486060C942A010C942A010C942A0113
:100060000C942A010C942A010C942A010C942A0164
:100070000C942A010C942A010C942A010C942A0154
:100080000C942A010C942A010C942A010C942A0144
:100090000C942A010C942A010C942A010C942A0134
:1000A0000C942A010C942A010C942A010C942A0124
:1000B0000C942A010C942A010C942A010C942A0114
:1000C0000C942A010C942A010C942A010C942A0104
:1000D0000C942A010C942A010C942A010C942A01F4
:1000E0000C942A010C942A010C942A010C942A01E4
:1000F0000C942A010C942A010C942A010C942A01D4
:100100000C942A010C942A010C942A010C942A01C3
:100110000C942A010C942A010C942A010C942A01B3
:100120000C942A010C942A010C942A010C942A01A3
:100130000C942A010C942A010C942A010C942A0193
:100140000C942A010C942A010C942A010C942A0183
:100150000C942A010C942A010C942A010C942A0173
:100160000C942E060C94EA050C942A010C942A0196
:100170000C942A010C942A010C942A010C942A0153
:100180000C942A010C942A010C942A010C942A0143
:100190000C942A010C942A010C942A010C942A0133
:1001A0000C942A010C942A010C942A010C942A0123
:1001B0000C940D070C942A010C942A010C942A012A
:1001C0000C942A010C942A010C942A010C942A0103
:1001D0000C942A010C942A010C942A010C942A01F3
:1001E0000C942A010C942A010C942A010C942A01E3
:1001F0000C942A010C942A010C942A010C94A20359
:100200000C94FB030C949F0311241FBECFEFCDBFB2
:10021000DFE3DEBF00E00CBF18BE19BE1ABE1BBE76
:1002200010E2A0E0B0E2EAECF3E100E00BBF02C0B4
:1002300007900D92A436B107D9F71BBE20E2A4E6C1
:10024000B0E201C01D92AA38B207E1F70E944A0845
:100250000C94E3090C9400000F931F93CF93DF934A
:10026000082F162FD42FC22F84E090E00E94870819
:10027000FC0100831183D2838381C0FB80F98383D7
:10028000CF01DF91CF911F910F9108950F931F938D
:10029000CF93DF938C01EB0184E090E00E9487080C
:1002A000FC0102831383C083D183DF91CF911F911F
:1002B0000F91089587E090E00E948708FC01168264
:1002C0001482158210821182128213820895FC0119
:1002D00082819381892B51F462837383DB011D92A8
:1002E0001C92828193818083918307C08081918158
:1002F000DB018D939C9360837183808191818483E2
:10030000958386818F5F86830895FC01A481B581E2
:1003100012968D919C9113972D913C912483358356
:100320000895FC01A481B58112968D919C9113973B
:100330002D913C912483358308950F931F93CF9380
:10034000DF93DC01ED91FC913097D1F0EC0100815D
:100350001181828193810E941F09E881F9811082B5
:100360001182E881F98112821382888199810E9429
:100370001F09088319830C831D838E8181508E830E
:10038000DF91CF911F910F910895CF93DF93EC01EF
:1003900003C0CE010E949D0188819981892BC9F7F4
:1003A000188219821C821D821A821B821E82DF9192
:1003B000CF910895EF92FF920F931F93CF93DF9306
:1003C0008C01EB01DC01ED90FC900E945A01B70119
:1003D0000E944601BC01C8010E9467018A859B8575
:1003E0000E94A809E82E888599850E94A809F82E00
:1003F0008E819F810E94A809EC81FD812E2D4F2DB9
:10040000682F80810E942C0160E070E00E9446010C
:10041000D801ED91FC91BC01828193810E9467011A
:10042000DF91CF911F910F91FF90EF900895BF92B0
:10043000CF92DF92EF92FF920F931F93CF93DF93B0
:100440007C01EB01B42EDC01CD90DC90F601028141
:10045000138180910620882381F00E945A01B60101
:100460000E944601BC01C7010E946701D701ED91BE
:10047000FC910281138110920620F801E080F18046
:100480008A859B850E94A809C82E888599850E9427
:10049000A809D82E8E819F810E94A809EC81FD8138
:1004A0002C2D4D2D682F80810E942C01B7010E94B8
:1004B0004601BC01C8010E946701BB2019F081E020
:1004C00080930620DF91CF911F910F91FF90EF90C5
:1004D000DF90CF90BF900895E0917020F09171204F
:1004E00080819181848395830EC0828193810E9453
:1004F000C501E0917020F0917120A481B5818D91AA
:100500009C9184839583A0917020B0917120149662
:10051000ED91FC911597309741F7CD010E94C501EF
:100520000895CF93DF9380E190E00E948708EC016B
:1005300080E190E00E94870888839983FC01108203
:1005400080E190E00E9487088A839B83FC011082EF
:1005500080E190E00E9487088C839D83FC011082DB
:1005600080E190E00E9487088E839F83FC011082C7
:1005700080E190E00E94870888879987FC011082BB
:1005800080E190E00E9487088A879B87FC011082A7
:1005900080E190E00E9487088E879F87FC0110828F
:1005A000CE01DF91CF9108950F931F93CF93DF93E7
:1005B0008C01EB010E940B05BC01888199810E948E
:1005C000C6096881798142E050E0809115209091C0
:1005D00016200E94CD09892B09F04EC0C8010E9447
:1005E0000B05BC018A819B810E94C609C8010E943B
:1005F0000B05BC018C819D810E94C609C8010E9427
:100600000B05BC018E819F810E94C609C8010E9412
:100610000B05BC01888599850E94C609C8010E9406
:100620000B05BC018A859B850E94C609C8010E94F2
:100630000B05BC018C859D850E94C609C8010E94DE
:100640000B05BC018E859F850E94C6096E857F853E
:1006500042E050E080911320909114200E94CD0937
:10066000892B29F4C8010E94410581E009C0C80115
:100670000E94410580E004C0C8010E94410580E05D
:10068000DF91CF911F910F910895CF93DF93FC01DC
:10069000C281D38143E050E0BE018091112090914E
:1006A00012200E94CD09892B71F143E050E0BE0178
:1006B00080910F20909110200E94CD09892B29F163
:1006C00043E050E0BE0180910D2090910E200E94E9
:1006D000CD09892BE1F043E050E0BE0180910B2071
:1006E00090910C200E94CD09892B99F043E050E0B5
:1006F000BE018091092090910A200E94CD09892B8A
:1007000051F482E009C086E007C085E005C084E0BE
:1007100003C083E001C081E0DF91CF910895FC0127
:100720008081813331F0823331F0833331F483E0DF
:10073000089581E0089582E0089583E608950E9477
:10074000A8050895CF93DF93EC018AE390E20E941D
:10075000A8058FEB9AED0197F1F700C000008EE33A
:1007600090E20E94A8059FEF28EA81E09150204086
:100770008040E1F700C00000CE010E94A8058FEB89
:100780009AED0197F1F700C0000086E490E20E9424
:10079000A8058FEB9AED0197F1F700C0000086E401
:1007A00090E20E94A8058FEB9AED0197F1F700C047
:1007B000000086E490E20E94A8058FEB9AED019775
:1007C000F1F700C0000086E490E20E94A8058FEBDC
:1007D0009AED0197F1F700C0000089E490E20E94D1
:1007E000A8058FEB9AED0197F1F700C0000081E0BA
:1007F000DF91CF910895E0916820F091692085897B
:1008000080FF80C06091642070916520CF010E94BC
:10081000D402882309F472C08091642090916520ED
:100820000E9445038330E1F128F4813061F0823089
:1008300041F10895853009F453C008F441C0863071
:1008400009F455C00895E0916420F09165208481F9
:1008500095810E948F03823051F0833069F081309E
:1008600009F050C08DE490E20E94A203089580E553
:1008700090E20E94A203089583E590E20E94A20301
:10088000089560916420709165208091702090910E
:1008900071200E94DA018DE490E20E94A203089583
:1008A000609164207091652040E08091702090916B
:1008B00071200E9417028DE490E20E94A203089525
:1008C000609164207091652041E08091702090914A
:1008D00071200E9417028DE490E20E94A203089505
:1008E00086E590E20E94A2030E94CC06089589E565
:1008F00090E20E94A2030E94D90608958CE590E23E
:100900000E94A2030895CF93DF9386E090E00E94B7
:100910008708EC0160E180916820909169200E9435
:10092000B704809368209093692022E043E060E65A
:1009300076E080EA99E00E946105809164209091C0
:1009400065200E94910280936420909365208BEF34
:1009500093E08C839D838FE993E08883998382EA77
:1009600093E08A839B83CE01DF91CF910895EF922C
:10097000FF920F931F93CF93DF93062F86E190E0B2
:100980000E9487087C0110E00FC0C12FD0E0802FAB
:1009900090E00E948708CC0FDD1FCE0DDF1D8883FD
:1009A0009983FC0110821F5F193078F3802F90E04B
:1009B0000E948708F701828B938BFC011082F7015C
:1009C000148A85898E7F8260858BC701DF91CF91E4
:1009D0001F910F91FF90EF900895CF93DF93EC015B
:1009E000EC89E93060F481E08E0F8C8BF0E0EE0F43
:1009F000FF1FEC0FFD1F808191810E94C6098D8928
:100A00008D7F8D8B8C89883019F48D8981608D8BD9
:100A1000DF91CF9108951F93CF93DF93EC0168810D
:100A200079818A899B890E94C60910E014C0812FB0
:100A300090E0FC013196EE0FFF1FEC0FFD1F60816F
:100A40007181880F991FFE01E80FF91F8081918144
:100A50000E94C6091F5F8C89181748F3882311F07C
:100A600081508C8B8D898E7F8D8B8C89811103C0F9
:100A70008D8982608D8B8A899B89DF91CF911F91AF
:100A80000895DC0190E00BC0E92FF0E0EE0FFF1FAE
:100A9000EA0FFB1F0190F081E02D10829F5F9930DB
:100AA00098F35296ED91FC915397108254961C92B4
:100AB000549755968C9155978E7F826055968C935E
:100AC0000895FB0180936C2090936D2081E090E06D
:100AD000BC0102C0660F771F4A95E2F76583618308
:100AE00002C0880F991F2A95E2F78283E0916C205B
:100AF000F0916D208CE0868380E4878383E085839A
:100B000080E28383A0EAB0E012968C911297826013
:100B100012968C9384818861848380E006C0E82FDC
:100B2000F0E0EC58FF4D10828F5F8031C0F380E120
:100B300090E00E948708809384209093852080E134
:100B400090E00E948708809372209093732008950C
:100B5000BC0180917220909173200E94C609E0919F
:100B60006C20F0916D20838182608383089590EEE4
:100B7000980F9F3550F4E0916B2091E09E0F909379
:100B80006B20F0E0EC58FF4D80838D3031F08823EE
:100B900021F080916B208D30D0F0A0916B20E1E0AE
:100BA000EA0FB0E0AC58BF4D8AE08C9381E08E0F25
:100BB000F0E0EC58FF4D9DE09083E82FF0E0EC581A
:100BC000FF4D108210926B2084E790E2089580E040
:100BD00090E008951F920F920FB60F92112408B65D
:100BE0000F9218BE0BB60F921BBE8F939F93EF937D
:100BF000FF9390916A20E0917220F0917320E90FA9
:100C0000F11D8081882331F0803298F48A3089F098
:100C10008D3079F0E0916C20F0916D201082E091A0
:100C20006C20F0916D2083818D7F838310926A20E8
:100C300008C0E0916C20F0916D209F5F90936A2036
:100C40008083FF91EF919F918F910F900BBE0F903A
:100C500008BE0F900FBE0F901F9018951F920F9215
:100C60000FB60F92112408B60F9218BE09B60F9254
:100C700019BE0BB60F921BBE2F933F934F935F93FA
:100C80006F937F938F939F93AF93BF93EF93FF9354
:100C9000E0916C20F0916D2080810E94B7058093D7
:100CA000842090938520009759F0BC0180916820A2
:100CB000909169200E94ED0410928420109285206A
:100CC000FF91EF91BF91AF919F918F917F916F9124
:100CD0005F914F913F912F910F900BBE0F9009BEE6
:100CE0000F9008BE0F900FBE0F901F901895209187
:100CF0001720309118202630310538F0FC01818111
:100D000090E0809317209093182008951F920F92DF
:100D10000FB60F92112408B60F9218BE0F9008BE9E
:100D20000F900FBE0F901F90189527E0FC012083B5
:100D30000895FC0110820895CF93DF93EC0182E0C7
:100D400090E08EA39FA318A219A2CE010E9499063B
:100D500081E08E83E0EAF0E0828181608283DF912E
:100D6000CF910895CF93DF93FC0124813581232B0C
:100D700079F00E948501EC0105C0CE010E9491012D
:100D80000E9477068C819D81892BB9F781E001C093
:100D900080E0DF91CF9108958091192090911A20E1
:100DA0000E949C068091192090911A200E9495061D
:100DB00008958091192090911A200E949906089513
:100DC000CF93DF93EB0120916E20211103C00E948D
:100DD000B20601C080E090916E20911102C088237C
:100DE00031F081E080936F2080936E2013C08111D9
:100DF00011C080916F20882349F010926F200E94CB
:100E00006C0280E690E2FE01199504C08CE590E248
:100E1000FE011995DF91CF9108951F920F920FB6A1
:100E20000F92112408B60F9218BE09B60F9219BE80
:100E30000BB60F921BBE2F933F934F935F936F930D
:100E40007F938F939F93AF93BF93EF93FF9362EA48
:100E500073E080917020909171200E94E0060E94C2
:100E6000D906FF91EF91BF91AF919F918F917F91A3
:100E70006F915F914F913F912F910F900BBE0F900B
:100E800009BE0F9008BE0F900FBE0F901F901895CF
:100E90001F93CF93DF93EC01142F0E94390860E871
:100EA000CE010E943F08612FCE010E943F0860E8FA
:100EB000CE010E943F08612FCE010E943F08CE0163
:100EC0000E944508DF91CF911F9108950F931F93C2
:100ED000CF93DF93EC01142F022F0E94390860E8B2
:100EE000CE010E943F08612FCE010E943F0860E8BA
:100EF000CE010E943F08612FCE010E943F08602F63
:100F0000CE010E943F08CE010E944508DF91CF919B
:100F10001F910F910895CF93DF93EC0124E14DE8E9
:100F200068E70E9466074FEA68E7CE010E9448071B
:100F3000DF91CF910895CF93DF93EC0123E04AED49
:100F400068E70E94660748EC68E7CE010E94480700
:100F500022E040E268E7CE010E94660740EB68E7C6
:100F6000CE010E94480740E068E7CE010E94480792
:100F700040E168E7CE010E94480740E468E7CE01FF
:100F80000E94480741EA68E7CE010E944807CE0167
:100F90000E948B07DF91CF9108951F93CF93DF932A
:100FA000EC01142F0E94390860ECCE010E943F082A
:100FB000612FCE010E943F08CE010E944508DF91BB
:100FC000CF911F9108950F931F93CF938C01C62F3C
:100FD000405568E70E9448074C2F4F7068E7C801EA
:100FE0000E9448074C2F42954F70405F68E7C80148
:100FF0000E944807CF911F910F910895CF92DF92E1
:10100000FF920F931F93CF93DF938C01F62EC12C89
:10101000D12C14C04C2D60E0C8010E94E307C0E051
:10102000D0E006C04F2D68E7C8010E94CD07219689
:10103000C038D105B8F38FEFC81AD80A88E0C816AF
:10104000D10440F3DF91CF911F910F91FF90DF907A
:10105000CF900895FC0165838281816082838181C4
:10106000886081838181806C8183848181608483B5
:101070000895FC016683948195FFFDCF0895FC01DE
:101080006783948195FFFDCF0895FC019381936060
:10109000938308950E947A0863E280911B209091C7
:1010A0001C200E942A0880911B2090911C200E94E5
:1010B0009B076AEA80911B2090911C200E94FE07EA
:1010C0000E945A0180937020909371208091662035
:1010D000909167200E9483048093662090936720FC
:1010E0007894E0916620F09167200480F581E02DEE
:1010F0001995F7CF82E0809350008091510081FFD5
:10110000FCCF88ED84BF81E08093400008950F9369
:101110001F93CF93DF938230910510F482E090E02B
:10112000E0918820F091892020E030E0A0E0B0E05C
:10113000309719F140815181028113814817590775
:10114000C8F08417950769F4109731F012960C9344
:10115000129713961C9327C0009388201093892020
:1011600022C02115310519F04217530718F49A01CE
:10117000BD01EF01DF01F801DBCF21153105F9F0E9
:10118000281B390B2430310580F48A819B8161153D
:10119000710521F0FB018283938304C08093882032
:1011A00090938920FE01329644C0FE01E20FF31FA6
:1011B0008193919322503109288339833AC0209139
:1011C000862030918720232B41F4209102203091FA
:1011D0000320209386203093872020910020309197
:1011E00001202115310541F42DB73EB7409104206F
:1011F00050910520241B350BE0918620F09187202B
:10120000E217F307A0F42E1B3F0B2817390778F0DD
:10121000AC014E5F5F4F2417350748F04E0F5F1F3C
:1012200040938620509387208193919302C0E0E001
:10123000F0E0CF01DF91CF911F910F910895CF93EF
:10124000DF93009709F481C0FC0132971282138268
:10125000A0918820B0918920109781F4208131815C
:10126000820F931F209186203091872028173907FD
:1012700051F5E0938620F093872067C0ED0120E0D0
:1012800030E0CE17DF0740F44A815B819E014115B3
:101290005105F1F0EA01F5CFC283D383408151813A
:1012A000840F951FC817D90759F488819981840F35
:1012B000951F0296808391838A819B818283938389
:1012C0002115310529F4E0938820F09389203DC051
:1012D000E901EA83FB8349915991C40FD51FEC17AB
:1012E000FD0761F480819181840F951F0296E901C9
:1012F00088839983828193818A839B83E0E0F0E0F5
:1013000012968D919C911397009719F0FD01DC01C5
:10131000F7CF8D919C9111979D012E5F3F4F820FCA
:10132000931F20918620309187202817390769F470
:10133000309729F4109288201092892002C01282DE
:101340001382A0938620B0938720DF91CF910895D8
:10135000FC0188279927E89421912032E9F329306C
:1013600010F02E30C8F32B3241F02D3239F468944E
:1013700004C00E94DB09820F911D219120532A3065
:10138000C0F31EF4909581959F4F0895FB01DC01F9
:1013900001900D920020E1F70895FB01DC0141501E
:1013A000504030F08D910190801919F40020B9F768
:1013B000881B990B08957AE0979F902D879F802D29
:0A13C000910D11240895F894FFCF59
:1013CA0000008A202000011D2024202A2029203004
:1013DA00202F20342037201D09000B80045354414C
:1013EA00545553004D4F564500455441534B004503
:1013FA004A4F420045460053460053460A0053549A
:10140A00415455530A00300A0045460A00310A0081
:10141A00320A00330A00340A00350A0039390A0050
:04142A00360A00007E
:00000001FF
