:100000000C9412010C9438010C9438010C943801B2
:100010000C9438010C9438010C9438010C9438017C
:100020000C9438010C9438010C9438010C9438016C
:100030000C9438010C9438010C9438010C9438015C
:100040000C94CD0C0C94270D0C9438010C943801B1
:100050000C94F10B0C9438010C9438010C94380179
:100060000C9438010C9438010C9438010C9438012C
:100070000C9438010C9438010C9438010C9438011C
:100080000C9438010C9438010C9438010C9438010C
:100090000C9438010C9438010C9438010C943801FC
:1000A0000C9438010C9438010C9438010C943801EC
:1000B0000C9438010C9438010C9438010C943801DC
:1000C0000C9438010C9438010C9438010C943801CC
:1000D0000C9438010C945F0C0C9438010C9438018A
:1000E0000C9438010C9438010C9438010C943801AC
:1000F0000C9438010C9438010C9438010C9438019C
:100100000C9438010C9438010C9438010C9438018B
:100110000C9438010C9438010C9438010C9438017B
:100120000C9438010C9438010C9438010C9438016B
:100130000C9438010C9438010C9438010C9438015B
:100140000C9438010C9438010C9438010C94280C50
:100150000C9438010C9438010C9438010C9438013B
:100160000C943C060C94F8050C9438010C9438015E
:100170000C9438010C9438010C9438010C9438011B
:100180000C9438010C9438010C9438010C9438010B
:100190000C9438010C9438010C9438010C943801FB
:1001A0000C9438010C9438010C9438010C943801EB
:1001B0000C94FD0D0C9438010C9438010C9438010A
:1001C0000C9438010C9438010C94960C0C94380162
:1001D0000C9438010C9438010C9438010C943801BB
:1001E0000C9438010C9438010C9438010C943801AB
:1001F0000C9438010C9438010C9438010C94B00321
:100200000C94EF060C9409040C9433070C948506A7
:100210000C941D070C94AD030C9414070C94BE06AB
:100220000C94440711241FBECFEFCDBFDFE3DEBF28
:1002300000E00CBF18BE19BE1ABE1BBE10E2A0E043
:10024000B0E2EAE0F6E200E00BBF02C007900D92D8
:10025000A236B107D9F71BBE20E2A2E6B0E201C088
:100260001D92A23AB207E1F70E94580F0C940313B3
:100270000C9400000F931F93CF93DF93082F162F3A
:10028000D42FC22F84E090E00E94A711FC010083CC
:100290001183D2838381C0FB80F98383CF01DF91F7
:1002A000CF911F910F9108950F931F93CF93DF93D9
:1002B0008C01EB0184E090E00E94A711FC01028315
:1002C0001383C083D183DF91CF911F910F91089544
:1002D00087E090E00E94A711FC011682148215822B
:1002E00010821182128213820895FC01828193810F
:1002F000892B51F462837383DB011D921C928281EE
:1003000093818083918307C080819181DB018D93EC
:100310009C9360837183808191818483958386819E
:100320008F5F86830895FC01A481B58112968D911B
:100330009C9113972D913C91248335830895FC0162
:10034000A481B58112968D919C9113972D913C912A
:100350002483358308950F931F93CF93DF93DC019C
:10036000ED91FC913097D1F0EC01008111818281F7
:1003700093810E943F12E881F98110821182E88105
:10038000F98112821382888199810E943F12088329
:1003900019830C831D838E8181508E83DF91CF91D1
:1003A0001F910F910895CF93DF93EC0103C0CE010D
:1003B0000E94AB0188819981892BC9F71882198223
:1003C0001C821D821A821B821E82DF91CF910895AA
:1003D000EF92FF920F931F93CF93DF938C01EB016A
:1003E000DC01ED90FC900E946801B7010E9454016D
:1003F000BC01C8010E9475018A859B850E94C812B4
:10040000E82E888599850E94C812F82E8E819F81DA
:100410000E94C812EC81FD812E2D4F2D682F808106
:100420000E943A0160E070E00E945401D801ED9111
:10043000FC91BC01828193810E947501DF91CF9173
:100440001F910F91FF90EF900895BF92CF92DF928E
:10045000EF92FF920F931F93CF93DF937C01EB01F9
:10046000B42EDC01CD90DC90F601028113818091E5
:100470000620882381F00E946801B6010E94540181
:10048000BC01C7010E947501D701ED91FC91028169
:10049000138110920620F801E080F1808A859B8507
:1004A0000E94C812C82E888599850E94C812D82E2D
:1004B0008E819F810E94C812EC81FD812C2D4D2DD3
:1004C000682F80810E943A01B7010E945401BC014B
:1004D000C8010E947501BB2019F081E080930620BD
:1004E000DF91CF911F910F91FF90EF90DF90CF9010
:1004F000BF900895E0917A20F0917B2080819181D6
:10050000848395830EC0828193810E94D301E09100
:100510007A20F0917B20A481B5818D919C91848378
:100520009583A0917A20B0917B201496ED91FC9157
:100530001597309741F7CD010E94D3010895CF93CD
:10054000DF9380E190E00E94A711EC0180E190E050
:100550000E94A71188839983FC01108280E190E0BA
:100560000E94A7118A839B83FC01108280E190E0A6
:100570000E94A7118C839D83FC01108280E190E092
:100580000E94A7118E839F83FC01108280E190E07E
:100590000E94A71188879987FC01108280E190E072
:1005A0000E94A7118A879B87FC01108280E190E05E
:1005B0000E94A7118E879F87FC011082CE01DF91D8
:1005C000CF9108950F931F93CF93DF938C01EB018D
:1005D0000E941905BC01888199810E94E6126881F8
:1005E000798142E050E080911520909116200E9480
:1005F000ED12892B09F04EC0C8010E941905BC01FB
:100600008A819B810E94E612C8010E941905BC01E3
:100610008C819D810E94E612C8010E941905BC01CF
:100620008E819F810E94E612C8010E941905BC01BB
:10063000888599850E94E612C8010E941905BC01AF
:100640008A859B850E94E612C8010E941905BC019B
:100650008C859D850E94E612C8010E941905BC0187
:100660008E859F850E94E6126E857F8542E050E070
:1006700080911320909114200E94ED12892B29F46F
:10068000C8010E944F0581E009C0C8010E944F05C2
:1006900080E004C0C8010E944F0580E0DF91CF9147
:1006A0001F910F910895CF93DF93FC01C281D381F5
:1006B00043E050E0BE0180911120909112200E94F1
:1006C000ED12892B71F143E050E0BE0180910F20C3
:1006D000909110200E94ED12892B29F143E050E007
:1006E000BE0180910D2090910E200E94ED12892B69
:1006F000E1F043E050E0BE0180910B2090910C208E
:100700000E94ED12892B99F043E050E0BE018091E8
:10071000092090910A200E94ED12892B51F482E069
:1007200009C086E007C085E005C084E003C083E01F
:1007300001C081E0DF91CF910895FC018081813378
:1007400031F0823331F0833331F483E0089581E076
:10075000089582E0089583E608950E94B6050895FD
:10076000CF93DF93EC0188E390E20E94B6058FEB14
:100770009AED0197F1F700C000008CE390E20E942F
:10078000B6059FEF28EA81E0915020408040E1F7D4
:1007900000C00000CE010E94B6058FEB9AED0197D4
:1007A000F1F700C0000084E490E20E94B6058FEBF0
:1007B0009AED0197F1F700C0000084E490E20E94F6
:1007C000B6058FEB9AED0197F1F700C0000084E4C5
:1007D00090E20E94B6058FEB9AED0197F1F700C009
:1007E000000084E490E20E94B6058FEB9AED019739
:1007F000F1F700C0000087E490E20E94B6058FEB9D
:100800009AED0197F1F700C0000081E0DF91CF91F0
:100810000895E0916620F0916720858980FF80C06F
:100820006091622070916320CF010E94E2028823D0
:1008300009F472C080916220909163200E9453035A
:100840008330E1F128F4813061F0823041F1089584
:10085000853009F453C008F441C0863009F455C00E
:100860000895E0916220F0916320848195810E9437
:100870009D03823051F0833069F0813009F050C01F
:100880008BE490E20E94B00308958EE490E20E940F
:10089000B003089581E590E20E94B003089560914D
:1008A00062207091632080917A2090917B200E9439
:1008B000E8018BE490E20E94B00308956091622009
:1008C0007091632040E080917A2090917B200E947B
:1008D00025028BE490E20E94B003089560916220AB
:1008E0007091632041E080917A2090917B200E945A
:1008F00025028BE490E20E94B003089584E590E223
:100900000E94B0030E94B80D089587E590E20E940E
:10091000B0030E94C50D08958AE590E20E94B003DD
:100920000895CF93DF9386E090E00E94A711EC0139
:1009300060E180916620909167200E94C5048093B9
:1009400066209093672022E043E060E676E080EA4C
:1009500099E00E946F0580916220909163200E942F
:100960009F02809362209093632089E094E08C83BF
:100970009D838DEA93E08883998380EB93E08A835B
:100980009B83CE01DF91CF910895EF92FF920F9359
:100990001F93CF93DF93062F86E190E00E94A7116B
:1009A0007C0110E00FC0C12FD0E0802F90E00E94AA
:1009B000A711CC0FDD1FCE0DDF1D88839983FC01AD
:1009C00010821F5F193078F3802F90E00E94A711EA
:1009D000F701828B938BFC011082F701148A8589C1
:1009E0008E7F8260858BC701DF91CF911F910F9120
:1009F000FF90EF900895CF93DF93EC01EC89E930FD
:100A000060F481E08E0F8C8BF0E0EE0FFF1FEC0F97
:100A1000FD1F808191810E94E6128D898D7F8D8BD3
:100A20008C89883019F48D8981608D8BDF91CF910D
:100A300008951F93CF93DF93EC01688179818A89B0
:100A40009B890E94E61210E014C0812F90E0FC0107
:100A50003196EE0FFF1FEC0FFD1F60817181880F33
:100A6000991FFE01E80FF91F808191810E94E61213
:100A70001F5F8C89181748F3882311F081508C8BE5
:100A80008D898E7F8D8B8C89811103C08D898260C9
:100A90008D8B8A899B89DF91CF911F910895DC010D
:100AA00090E00BC0E92FF0E0EE0FFF1FEA0FFB1FF5
:100AB0000190F081E02D10829F5F993098F352965B
:100AC000ED91FC915397108254961C925497559631
:100AD0008C9155978E7F826055968C930895FB017B
:100AE00080936A2090936B2081E090E0BC0102C06B
:100AF000660F771F4A95E2F76583618302C0880F0E
:100B0000991F2A95E2F78283E0916A20F0916B2089
:100B10008CE0868380E4878383E0858380E283831F
:100B2000A0EAB0E012968C911297826012968C9394
:100B300084818861848380E006C0E82FF0E0E25879
:100B4000FF4D10828F5F8031C0F380E190E00E9402
:100B5000A71180938E2090938F2080E190E00E94D7
:100B6000A71180937C2090937D200895BC018091F3
:100B70007C2090917D200E94E612E0916A20F09105
:100B80006B20838182608383089590EE980F9F3558
:100B900050F4E091692091E09E0F90936920F0E07D
:100BA000E258FF4D80838D3031F0882321F0809111
:100BB00069208D30D0F0A0916920E1E0EA0FB0E02B
:100BC000A258BF4D8AE08C9381E08E0FF0E0E2588E
:100BD000FF4D9DE09083E82FF0E0E258FF4D10823A
:100BE000109269208EE790E2089580E090E00895E9
:100BF0001F920F920FB60F92112408B60F9218BED3
:100C00000BB60F921BBE8F939F93EF93FF93909120
:100C10006820E0917C20F0917D20E90FF11D80811A
:100C2000882331F0803298F48A3089F08D3079F061
:100C3000E0916A20F0916B201082E0916A20F0919F
:100C40006B2083818D7F83831092682008C0E091A0
:100C50006A20F0916B209F5F909368208083FF91C2
:100C6000EF919F918F910F900BBE0F9008BE0F9048
:100C70000FBE0F901F9018951F920F920FB60F92F4
:100C8000112408B60F9218BE09B60F9219BE0BB602
:100C90000F921BBE2F933F934F935F936F937F935E
:100CA0008F939F93AF93BF93EF93FF93E0916A204D
:100CB000F0916B2080810E94C50580938E209093D7
:100CC0008F20009759F0BC01809166209091672099
:100CD0000E94FB0410928E2010928F20FF91EF91C2
:100CE000BF91AF919F918F917F916F915F914F9144
:100CF0003F912F910F900BBE0F9009BE0F9008BE31
:100D00000F900FBE0F901F901895CF92DF92EF9229
:100D1000FF921F93CF93DF93182FEB0189899A8954
:100D20002B89289FB001299F700D112480E090E04D
:100D30000E94AC102C893D894E895F890E943A112E
:100D400020E030E044EB53E40E9404106B017C018E
:100D5000612F110F770B880B990B0E94AE10A70122
:100D600096010E943A110E947610CB01DF91CF913B
:100D70001F91FF90EF90DF90CF900895FC01808944
:100D80008160808BA385B48581E090E0058402C0FA
:100D9000880F991F0A94E2F715968C938085882313
:100DA00069F0A385B48581E090E0068402C0880FD5
:100DB000991F0A94E2F715968C930CC0A385B4850D
:100DC00081E090E0068402C0880F991F0A94E2F740
:100DD00016968C930184F285E02D60830895FC01C2
:100DE000A085B18581E090E0028402C0880F991F40
:100DF0000A94E2F711968C938385816083878285BC
:100E0000811109C0A681B7818081918198968D93C7
:100E10009C9399970895A681B781808191819A9634
:100E20008D939C939B970895FC0180898E7F808B86
:100E30000184F285E02D10820895682F70E080E033
:100E400090E00E94AE102DE33AE047E951E40E94A1
:100E50003A1120E030EC4FE055E40E94980F0E94D8
:100E60007D10CB010895DC011B96ED91FC911C9740
:100E700021E030E0A9011D960C9002C0440F551FDF
:100E80000A94E2F746830895FC01A085B18581E0CC
:100E900090E0028402C0880F991F0A94E2F711962D
:100EA0008C9383858E7F8387828581110BC08CEF25
:100EB00098E080839183A681B78198968D939C93C7
:100EC00099970AC08CEF98E080839183A681B781BF
:100ED0009A968D939C939B972FEF87EA91E62150EA
:100EE00080409040E1F700C00000A085B18581E01E
:100EF00090E0028402C0880F991F0A94E2F71296CC
:100F00008C9308958F929F92AF92BF92CF92DF926F
:100F1000EF92FF920F93CF93DF93EB015A014901B8
:100F200081E290E00E94A711FC011282138285E504
:100F300090E0808391831482158216821782108636
:100F400086E0858785E0868784E0878780898E7F35
:100F5000808BC187D287A386B486818A928A038BCD
:100F6000C48AD58AE68AF78A86E9808F80E2D5012D
:100F700011968C93119780E411968C93119780E1D0
:100F800011968C93188291E099838981806189837D
:100F90009E838EEB96E0818F928F84E197E0838F22
:100FA000948F83E397E0858F968F85E896E0878F0F
:100FB00090A3A0EAB0E012968C91129781601296ED
:100FC0008C93CF01DF91CF910F91FF90EF90DF9045
:100FD000CF90BF90AF909F908F900895EF92FF9227
:100FE0000F931F93CF937B018A01C22F82E190E080
:100FF0000E94A711FC0100871187E682F782838592
:101000008E7F83878AE590E08283938314821582A2
:1010100010821182C2872C2F30E081E090E00C2EEC
:1010200002C0880F991F0A94E2F7D80112968C9398
:10103000C11109C0A681B7818CEF98E098968D9375
:101040009C93999708C0A681B7818CEF98E09A96F7
:101050008D939C939B97A681B78111968C91119744
:10106000856011968C93A681B7811196CC911197CA
:1010700065E070E0621B730B81E090E0AC0102C0A0
:10108000440F551F6A95E2F74C2B11964C93A6819D
:10109000B78117964C911797220F331F02C0880F04
:1010A000991F2A95E2F7842B17968C93A681B78116
:1010B00080E49CE996968D939C939797A681B7813F
:1010C00084E08C938FEE96E08487958784E497E0A4
:1010D000868797878DE197E0808B918BA0EAB0E0BF
:1010E00012968C911297816012968C93CF01CF91BA
:1010F0001F910F91FF90EF900895DC011996ED91EB
:10110000FC911A978FEC97E080A791A708950F9311
:101110001F93CF93DF93EC01042F122F0E947D08C1
:10112000112349F0EF8DF8A1BE01802F819519950B
:101130008883998307C0EF8DF8A1BE01802F199590
:10114000888399831887DF91CF911F910F9108951C
:10115000CF93DF93EC01862FE889F989199588836D
:101160009983DF91CF91089584E090E00E94A711C8
:10117000FC0110821182128213820895CF92DF92B5
:10118000EF92FF920F93CF93DF930F2EC12CD12CB0
:10119000F8EBEF2EF1E4FF2EF02D00E128EC30E02B
:1011A00040EA56E060E47BE08091942090919520A5
:1011B0000E948207EC018093942090939520EF8DFC
:1011C000F8A1BC018AE519958C839D83C091942078
:1011D000D0919520EF8DF8A1BE0186EA19958E83F6
:1011E0009F830F2EC12CD12CF0ECEF2EF0E4FF2EBC
:1011F000F02D28EC30E040E856E060E47AE08091A1
:101200009620909197200E948207EC01809396206F
:1012100090939720EF8DF8A1BC018AE519958C83F6
:101220009D83C0919620D0919720EF8DF8A1BE01AB
:1012300086EA19958E839F8328EC30E040E656E0DD
:1012400060E479E080919C2090919D200E9482072B
:10125000EC0180939C2090939D20EF8DF8A1BC0120
:101260008AE519958C839D83C0919C20D0919D2007
:10127000EF8DF8A1BE0186EA19958E839F8328EC35
:1012800030E040E456E060E478E080919020909176
:1012900091200E948207EC018093902090939120EE
:1012A000EF8DF8A1BC018AE519958C839D83C091CF
:1012B0009020D0919120EF8DF8A1BE0186EA19957A
:1012C0008E839F8320E040E456E060E078E08091E8
:1012D0009820909199200E94EE07809398209093F7
:1012E000992021E040E456E060E078E080919A2087
:1012F00090919B200E94EE0780939A2090939B20D0
:101300000E94B4088093922090939320DF91CF9114
:101310000F91FF90EF90DF90CF900895CF93DF93E0
:10132000EC0184E090E00E94A711FC011082118280
:10133000C283D383DF91CF9108951F93CF93DF931F
:10134000EC01162F83E090E00E94A711FC011083AE
:10135000C183D283DF91CF911F910895CF93DF9303
:10136000EC01CB01642F0E949D090E948E092A8105
:101370003B81232B41F48A839B8388839983FC01DF
:101380001082118207C028813981FC0120833183BA
:1013900088839983DF91CF910895FC0190819334E4
:1013A000E1F128F4913469F0923409F1089594350B
:1013B00009F472C09A3509F446C0973409F07EC02A
:1013C00058C0238121704181628180919420909145
:1013D00095200E948708609194207091952040E0AC
:1013E00080919220909193200E94AE0908952381CC
:1013F00021704181628180919620909197200E9476
:101400008708609196207091972040E0809192200B
:10141000909193200E94AE0908952381217041810B
:10142000628180919C2090919D200E94870860910C
:101430009C2070919D2040E080919220909193207B
:101440000E94AE09089523812170418162818091BB
:101450009020909191200E94870860919020709137
:10146000912040E080919220909193200E94AE09BB
:101470000895618180919820909199200E94A808F8
:10148000609198207091992041E0809192209091F4
:1014900093200E94AE090895618180919A209091D5
:1014A0009B200E94A80860919A2070919B2041E0A7
:1014B00080919220909193200E94AE090895EF921E
:1014C000FF920F931F93CF93DF93DC0112962D9120
:1014D0003C911397232BD1F1EC0183E090E00E9423
:1014E000A7118C01E881F981A281B3818C91D80187
:1014F0008C93A281B38111968D919C911297D80102
:1015000011968D939C931297E080F1800280F38175
:10151000E02D11821282E881F981828193810E94FB
:101520003F12E881F98112821382E881F9811082E9
:101530001182888199810E943F12E882F982EF2806
:1015400041F41A821B82802F912F05C080E090E029
:1015500002C0802F912FDF91CF911F910F91FF90AB
:10156000EF900895CF93DF93E0919220F091932034
:1015700082819381892B71F1F89441E028C00E9407
:101580005F0AEC01888181110AC089819A81DC019E
:101590005996ED91FC915A9764E0199509C089819B
:1015A0009A81DC011C96ED91FC911D9764E01995E0
:1015B00019821A82CE010E943F128091922090914E
:1015C0009320FC012281338140E0232BC1F641119D
:1015D000F4CF7894DF91CF910895F89481E03EC0E4
:1015E0008091942090919520DC015D96ED91FC9185
:1015F0005E971995E0919420F091952012821382C4
:101600008091962090919720FC0112821382E091A4
:101610009C20F0919D2012821382E0919020F09105
:10162000912012821382DC015D96ED91FC915E9710
:10163000199580919C2090919D20DC015D96ED9103
:10164000FC915E9719958091902090919120DC01FA
:101650005D96ED91FC915E97199580E08111C0CF68
:1016600078940895F89481E03DC080919420909101
:101670009520DC015B96ED91FC915C97199580912A
:10168000962090919720DC015B96ED91FC915C9700
:10169000199580919C2090919D20DC015B96ED91A5
:1016A000FC915C9719958091902090919120DC019C
:1016B0005B96ED91FC915C971995809198209091A3
:1016C0009920DC011E96ED91FC911F971995809150
:1016D0009A2090919B20DC011E96ED91FC911F9722
:1016E000199580E08111C1CF789408950E94320B42
:1016F0000E94ED0A0895E0919420F0919520808950
:101700008170E0919620F091972040894170E0919E
:101710009C20F0919D2030893170E0919020F091D3
:10172000912020892170E0919820F0919920538593
:101730005170E0919A20F0919B2093859170840FD5
:10174000830F820F890F850F0895DC0112968D910A
:101750009C91139780937420909375202D913C91C8
:101760001197209372203093732016964D915C91BF
:101770001797409370205093712014966D917C912F
:10178000159760936E2070936F201896EC911897C0
:10179000EE2339F0FC0131971296ED93FC931397E9
:1017A00006C0FC0131961296ED93FC9313978217B5
:1017B000930731F0481759071CF48617970734F040
:1017C0005B96ED91FC915C97CD0119950E947B0B86
:1017D000811106C080911720909118200E94810DE0
:1017E00008951F920F920FB60F92112408B60F9210
:1017F00018BE09B60F9219BE0BB60F921BBE2F93DF
:101800003F934F935F936F937F938F939F93AF9388
:10181000BF93EF93FF9380919020909191200E942D
:10182000A50BFF91EF91BF91AF919F918F917F9108
:101830006F915F914F913F912F910F900BBE0F9041
:1018400009BE0F9008BE0F900FBE0F901F90189505
:101850001F920F920FB60F92112408B60F9218BE66
:1018600009B60F9219BE0BB60F921BBE2F933F9372
:101870004F935F936F937F938F939F93AF93BF9398
:10188000EF93FF9380919C2090919D200E94A50B47
:10189000FF91EF91BF91AF919F918F917F916F9148
:1018A0005F914F913F912F910F900BBE0F9009BE0A
:1018B0000F9008BE0F900FBE0F901F9018951F92AB
:1018C0000F920FB60F92112408B60F9218BE09B6E8
:1018D0000F9219BE0BB60F921BBE2F933F934F93DF
:1018E0005F936F937F938F939F93AF93BF93EF9388
:1018F000FF9380919620909197200E94A50BFF91D5
:10190000EF91BF91AF919F918F917F916F915F9177
:101910004F913F912F910F900BBE0F9009BE0F90EA
:1019200008BE0F900FBE0F901F9018951F920F9238
:101930000FB60F92112408B60F9218BE09B60F9277
:1019400019BE0BB60F921BBE2F933F934F935F931D
:101950006F937F938F939F93AF93BF93EF93FF9377
:1019600080919420909195200E94A50BFF91EF917A
:10197000BF91AF919F918F917F916F915F914F91A7
:101980003F912F910F900BBE0F9009BE0F9008BE94
:101990000F900FBE0F901F9018951F920F920FB6C9
:1019A0000F92112408B60F9218BE09B60F9219BEF5
:1019B0000BB60F921BBE2F933F934F935F936F9382
:1019C0007F938F939F93AF93BF93EF93FF93E09198
:1019D0009820F0919920838580FF22C080916D200E
:1019E0008F5F80936D208A3188F083858E7F838717
:1019F000A085B18581E090E0028402C0880F991F24
:101A00000A94E2F712968C9310926D200E947B0B41
:101A1000811106C080911720909118200E94810D9D
:101A2000FF91EF91BF91AF919F918F917F916F91B6
:101A30005F914F913F912F910F900BBE0F9009BE78
:101A40000F9008BE0F900FBE0F901F9018951F9219
:101A50000F920FB60F92112408B60F9218BE09B656
:101A60000F9219BE0BB60F921BBE2F933F934F934D
:101A70005F936F937F938F939F93AF93BF93EF93F6
:101A8000FF93E0919A20F0919B20838580FF22C0F4
:101A900080916C208F5F80936C208A3188F08385E1
:101AA0008E7F8387A085B18581E090E0028402C0AB
:101AB000880F991F0A94E2F712968C9310926C206B
:101AC0000E947B0B811106C08091172090911820F5
:101AD0000E94810DFF91EF91BF91AF919F918F91E6
:101AE0007F916F915F914F913F912F910F900BBE1E
:101AF0000F9009BE0F9008BE0F900FBE0F901F9061
:101B0000189527E0FC0120830895FC0110820895B8
:101B1000CF93DF93EC0182E090E08EA39FA318A205
:101B200019A2CE010E94850D81E08E83E0EAF0E0EB
:101B3000828181608283DF91CF910895CF93DF937B
:101B4000FC0124813581232B79F00E949301EC0163
:101B500005C0CE010E949F010E94CD098C819D810C
:101B6000892BB9F781E001C080E0DF91CF91089522
:101B700080911720909118200E94880D8091172045
:101B8000909118200E94810D0895809117209091C6
:101B900018200E94850D0E94760B0895CF93DF9345
:101BA000EB0120917820211103C00E949E0D01C0FD
:101BB00080E090917820911102C0882341F00E942A
:101BC000B20A81E0809379208093782013C081113C
:101BD00011C080917920882349F0109279200E94C9
:101BE0007A028EE590E2FE01199504C08AE590E242
:101BF000FE011995DF91CF9108951F920F920FB6B4
:101C00000F92112408B60F9218BE09B60F9219BE92
:101C10000BB60F921BBE2F933F934F935F936F931F
:101C20007F938F939F93AF93BF93EF93FF93809195
:101C300076209091772081159D4720F4809179201E
:101C4000811114C01092782080E09BE00E94850DE5
:101C500060EB73E080917A2090917B200E94CE0D02
:101C600081E090E080937620909377208091762099
:101C70009091772001968093762090937720FF9122
:101C8000EF91BF91AF919F918F917F916F915F91F4
:101C90004F913F912F910F900BBE0F9009BE0F9067
:101CA00008BE0F900FBE0F901F9018951F93CF93F3
:101CB000DF93EC01142F0E94470F60E8CE010E94D1
:101CC0004D0F612FCE010E944D0F60E8CE010E94A2
:101CD0004D0F612FCE010E944D0FCE010E94530F78
:101CE000DF91CF911F9108950F931F93CF93DF93AF
:101CF000EC01142F022F0E94470F60E8CE010E94D2
:101D00004D0F612FCE010E944D0F60E8CE010E9461
:101D10004D0F612FCE010E944D0F602FCE010E940A
:101D20004D0FCE010E94530FDF91CF911F910F9164
:101D30000895CF93DF93EC0124E14DE868E70E941A
:101D4000740E4FEA68E7CE010E94560EDF91CF91E4
:101D50000895CF93DF93EC0123E04AED68E70E94FA
:101D6000740E48EC68E7CE010E94560E22E040E275
:101D700068E7CE010E94740E40EB68E7CE010E9436
:101D8000560E40E068E7CE010E94560E40E168E73B
:101D9000CE010E94560E40E468E7CE010E94560E26
:101DA00041EA68E7CE010E94560ECE010E94990ECC
:101DB000DF91CF9108951F93CF93DF93EC01142F00
:101DC0000E94470F60ECCE010E944D0F612FCE01A3
:101DD0000E944D0FCE010E94530FDF91CF911F91B2
:101DE00008950F931F93CF938C01C62F405568E73A
:101DF0000E94560E4C2F4F7068E7C8010E94560E85
:101E00004C2F42954F70405F68E7C8010E94560E04
:101E1000CF911F910F910895CF92DF92FF920F9370
:101E20001F93CF93DF938C01F62EC12CD12C14C0BD
:101E30004C2D60E0C8010E94F10EC0E0D0E006C069
:101E40004F2D68E7C8010E94DB0E2196C038D105EE
:101E5000B8F38FEFC81AD80A88E0C816D10440F347
:101E6000DF91CF911F910F91FF90DF90CF90089558
:101E7000FC016583828181608283818188608183A6
:101E80008181806C81838481816084830895FC01D9
:101E90006683948195FFFDCF0895FC01678394814B
:101EA00095FFFDCF0895FC0193819360938308957E
:101EB0000E948A0F63E28091192090911A200E945B
:101EC000380F8091192090911A200E94A90E6AEA79
:101ED0008091192090911A200E940C0F0E94BE0838
:101EE0000E94680180937A2090937B2080916420E7
:101EF000909165200E9491048093642090936520C6
:101F00007894E0916420F09165200480F581E02DC3
:101F10001995F7CF82E0809350008091510081FFA6
:101F2000FCCF88ED84BF81E0809340000895505835
:101F3000BB27AA270E94AF0F0C9400110E94F21039
:101F400038F00E94F91020F039F49F3F19F426F47C
:101F50000C94EF100EF4E095E7FB0C94E910E92FD8
:101F60000E94111158F3BA17620773078407950787
:101F700020F079F4A6F50C9433110EF4E0950B2EB5
:101F8000BA2FA02D0B01B90190010C01CA01A001CB
:101F90001124FF27591B99F0593F50F4503E68F126
:101FA0001A16F040A22F232F342F4427585FF3CF67
:101FB000469537952795A795F0405395C9F77EF438
:101FC0001F16BA0B620B730B840BBAF09150A1F081
:101FD000FF0FBB1F661F771F881FC2F70EC0BA0F07
:101FE000621F731F841F48F4879577956795B7958F
:101FF000F7959E3F08F0B0CF9395880F08F099278A
:10200000EE0F9795879508950E9418100C94001173
:102010000E94F91058F00E94F21040F029F45F3F3E
:1020200029F00C94E91051110C9434110C94EF1018
:102030000E94111168F39923B1F3552391F3951B75
:10204000550BBB27AA2762177307840738F09F5FD9
:102050005F4F220F331F441FAA1FA9F335D00E2E46
:102060003AF0E0E832D091505040E695001CCAF7B3
:102070002BD0FE2F29D0660F771F881FBB1F261776
:1020800037074807AB07B0E809F0BB0B802DBF014D
:10209000FF2793585F4F3AF09E3F510578F00C941C
:1020A000E9100C9434115F3FE4F3983ED4F3869525
:1020B00077956795B795F7959F5FC9F7880F911D3D
:1020C0009695879597F90895E1E0660F771F881F29
:1020D000BB1F621773078407BA0720F0621B730BDC
:1020E000840BBA0BEE1F88F7E09508950E947D10CF
:1020F0006894B1110C94341108950E94191188F05C
:102100009F5798F0B92F9927B751B0F0E1F0660FBB
:10211000771F881F991F1AF0BA95C9F714C0B130FC
:1021200091F00E943311B1E008950C943311672FA0
:10213000782F8827B85F39F0B93FCCF3869577952B
:102140006795B395D9F73EF4909580957095619514
:102150007F4F8F4F9F4F0895E89409C097FB3EF43F
:1021600090958095709561957F4F8F4F9F4F9923E4
:10217000A9F0F92F96E9BB279395F6958795779562
:102180006795B795F111F8CFFAF4BB0F11F460FF22
:102190001BC06F5F7F4F8F4F9F4F16C0882311F07A
:1021A00096E911C0772321F09EE8872F762F05C08E
:1021B000662371F096E8862F70E060E02AF09A9529
:1021C000660F771F881FDAF7880F9695879597F91E
:1021D000089597F99F6780E870E060E008959FEFA9
:1021E00080EC089500240A941616170618060906AE
:1021F000089500240A94121613061406050608957D
:10220000092E0394000C11F4882352F0BB0F40F404
:10221000BF2B11F460FF04C06F5F7F4F8F4F9F4F44
:10222000089557FD9058440F551F59F05F3F71F0C6
:102230004795880F97FB991F61F09F3F79F087952D
:102240000895121613061406551FF2CF4695F1DFB6
:1022500008C0161617061806991FF1CF8695710546
:10226000610508940895E894BB2766277727CB017A
:1022700097F908950E944D110C9400110E94F210DC
:1022800038F00E94F91020F0952311F00C94E91019
:102290000C94EF1011240C9434110E94111170F35E
:1022A000959FC1F3950F50E0551F629FF001729FFB
:1022B000BB27F00DB11D639FAA27F00DB11DAA1F0A
:1022C000649F6627B00DA11D661F829F2227B00D57
:1022D000A11D621F739FB00DA11D621F839FA00DE2
:1022E000611D221F749F3327A00D611D231F849F32
:1022F000600D211D822F762F6A2F11249F57504089
:102300009AF0F1F088234AF0EE0FFF1FBB1F661F03
:10231000771F881F91505040A9F79E3F510580F0CC
:102320000C94E9100C9434115F3FE4F3983ED4F31D
:10233000869577956795B795F795E7959F5FC1F770
:10234000FE2B880F911D9695879597F908950F9309
:102350001F93CF93DF938230910510F482E090E0D9
:10236000E091A020F091A12020E030E0A0E0B0E0DA
:10237000309719F140815181028113814817590723
:10238000C8F08417950769F4109731F012960C93F2
:10239000129713961C9327C00093A0201093A1209E
:1023A00022C02115310519F04217530718F49A017C
:1023B000BD01EF01DF01F801DBCF21153105F9F097
:1023C000281B390B2430310580F48A819B816115EB
:1023D000710521F0FB018283938304C08093A020C8
:1023E0009093A120FE01329644C0FE01E20FF31F3C
:1023F0008193919322503109288339833AC02091E7
:102400009E2030919F20232B41F420910220309177
:10241000032020939E2030939F2020910020309114
:1024200001202115310541F42DB73EB7409104201C
:1024300050910520241B350BE0919E20F0919F20A8
:10244000E217F307A0F42E1B3F0B2817390778F08B
:10245000AC014E5F5F4F2417350748F04E0F5F1FEA
:1024600040939E2050939F208193919302C0E0E07F
:10247000F0E0CF01DF91CF911F910F910895CF939D
:10248000DF93009709F481C0FC0132971282138216
:10249000A091A020B091A120109781F420813181DA
:1024A000820F931F20919E2030919F20281739077B
:1024B00051F5E0939E20F0939F2067C0ED0120E04E
:1024C00030E0CE17DF0740F44A815B819E01411561
:1024D0005105F1F0EA01F5CFC283D38340815181E8
:1024E000840F951FC817D90759F488819981840FE3
:1024F000951F0296808391838A819B818283938337
:102500002115310529F4E093A020F093A1203DC0CE
:10251000E901EA83FB8349915991C40FD51FEC1758
:10252000FD0761F480819181840F951F0296E90176
:1025300088839983828193818A839B83E0E0F0E0A2
:1025400012968D919C911397009719F0FD01DC0173
:10255000F7CF8D919C9111979D012E5F3F4F820F78
:10256000931F20919E2030919F202817390769F4EE
:10257000309729F41092A0201092A12002C012825C
:102580001382A0939E20B0939F20DF91CF91089556
:10259000FC0188279927E89421912032E9F329301A
:1025A00010F02E30C8F32B3241F02D3239F46894FC
:1025B00004C00E94FB12820F911D219120532A30EA
:1025C000C0F31EF4909581959F4F0895FB01DC01A7
:1025D00001900D920020E1F70895FB01DC014150CC
:1025E000504030F08D910190801919F40020B9F716
:1025F000881B990B08957AE0979F902D879F802DD7
:0A260000910D11240895F894FFCF06
:10260A000000A2202000011B202220282027202EA3
:10261A00202D2032203520000BA00453544154555C
:10262A0053004D4F564500455441534B00454A4FC0
:10263A00420045460053460053460A00535441544B
:10264A0055530A00300A0045460A00310A00320A88
:10265A0000330A00340A00350A0039390A00360AFA
:02266A0000006E
:00000001FF
