:100000000C94FE000C941B010C941B010C941B011E
:100010000C941B010C941B010C941B010C941B01F0
:100020000C941B010C941B010C941B010C941B01E0
:100030000C941B010C941B010C941B010C941B01D0
:100040000C941B010C941B010C941B010C941B01C0
:100050000C941B010C941B010C941B010C941B01B0
:100060000C941B010C941B010C941B010C941B01A0
:100070000C941B010C941B010C941B010C941B0190
:100080000C941B010C941B010C941B010C941B0180
:100090000C941B010C941B010C941B010C941B0170
:1000A0000C941B010C941B010C941B010C941B0160
:1000B0000C941B010C941B010C941B010C941B0150
:1000C0000C941B010C941B010C941B010C941B0140
:1000D0000C941B010C941B010C941B010C941B0130
:1000E0000C941B010C941B010C941B010C941B0120
:1000F0000C941B010C941B010C941B010C941B0110
:100100000C941B010C941B010C941B010C941B01FF
:100110000C941B010C941B010C941B010C941B01EF
:100120000C941B010C941B010C941B010C941B01DF
:100130000C941B010C941B010C941B010C941B01CF
:100140000C941B010C941B010C941B010C941B01BF
:100150000C941B010C941B010C941B010C941B01AF
:100160000C941B010C941B010C941B010C947B053B
:100170000C9441050C941B010C941B010C941B0165
:100180000C941B010C941B010C941B010C941B017F
:100190000C941B010C941B010C941B010C941B016F
:1001A0000C941B010C941B010C941B010C941B015F
:1001B0000C941B010C941B010C941B010C941B014F
:1001C0000C941B010C941B010C941B010C941B013F
:1001D0000C941B010C941B010C941B010C941B012F
:1001E0000C941B010C941B010C941B010C941B011F
:1001F0000C941B010C941B010C941B0111241FBEB9
:10020000CFEFCDBFD7E2DEBF10E2A0E0B0E2ECE678
:10021000FEE002C005900D92A435B107D9F720E2A7
:10022000A4E5B0E201C01D92AD37B207E1F70E942C
:10023000B5050C9434070C9400000F931F93CF93D3
:10024000DF93082F162FD42FC22F84E090E00E9456
:10025000D805FC0100831183D2838381C0FB80F920
:100260008383CF01DF91CF911F910F9108950F9359
:100270001F93CF93DF938C01EB0184E090E00E9409
:10028000D805FC0102831383C083D183DF91CF9112
:100290001F910F91089587E090E00E94D805FC011E
:1002A000168214821582108211821282138208959E
:1002B000FC0182819381892B51F462837383DB017A
:1002C0001D921C92828193818083918307C08081DB
:1002D0009181DB018D939C936083718380819181F7
:1002E0008483958386818F5F86830895EF92FF9242
:1002F0000F931F93CF93DF938C01EB01DC01ED9003
:10030000FC900E944B01B7010E943701BC01C8015B
:100310000E9458018A859B850E94F906E82E8885EF
:1003200099850E94F906F82E8E819F810E94F90618
:10033000EC81FD812E2D4F2D682F80810E941D01A3
:1003400060E070E00E943701D801ED91FC91BC01A2
:10035000828193810E945801DF91CF911F910F916B
:10036000FF90EF900895BF92CF92DF92EF92FF92AD
:100370000F931F93CF93DF937C01EB01B42EDC012D
:10038000CD90DC90F60102811381809106208823B4
:1003900081F00E944B01B6010E943701BC01C701E8
:1003A0000E945801D701ED91FC91028113811092B6
:1003B0000620F801E080F1808A859B850E94F9067D
:1003C000C82E888599850E94F906D82E8E819F8136
:1003D0000E94F906EC81FD812C2D4D2D682F808126
:1003E0000E941D01B7010E943701BC01C8010E9493
:1003F0005801BB2019F081E080930620DF91CF9156
:100400001F910F91FF90EF90DF90CF90BF900895D4
:10041000CF93DF9380E190E00E94D805EC0180E16A
:1004200090E00E94D80588839983FC01108280E1C6
:1004300090E00E94D8058A839B83FC01108280E1B2
:1004400090E00E94D8058C839D83FC01108280E19E
:1004500090E00E94D8058E839F83FC01108280E18A
:1004600090E00E94D80588879987FC01108280E17E
:1004700090E00E94D8058A879B87FC01108280E16A
:1004800090E00E94D8058E879F87FC011082CE01E4
:10049000DF91CF9108950F931F93CF93DF938C013A
:1004A000EB010E946704BC01888199810E941707B3
:1004B0006881798142E050E080911520909116206A
:1004C0000E941E07892B09F04EC0C8010E946704D4
:1004D000BC018A819B810E941707C8010E946704A2
:1004E000BC018C819D810E941707C8010E9467048E
:1004F000BC018E819F810E941707C8010E9467047A
:10050000BC01888599850E941707C8010E9467046D
:10051000BC018A859B850E941707C8010E94670459
:10052000BC018C859D850E941707C8010E94670445
:10053000BC018E859F850E9417076E857F8542E0EE
:1005400050E080911320909114200E941E07892B67
:1005500029F4C8010E949D0481E009C0C8010E94DD
:100560009D0480E004C0C8010E949D0480E0DF91EA
:10057000CF911F910F910895CF93DF93FC01C2811A
:10058000D38143E050E0BE01809111209091122070
:100590000E941E07892B71F143E050E0BE0180915B
:1005A0000F20909110200E941E07892B29F143E013
:1005B00050E0BE0180910D2090910E200E941E07F8
:1005C000892BE1F043E050E0BE0180910B20909137
:1005D0000C200E941E07892B99F043E050E0BE01D9
:1005E0008091092090910A200E941E07892B51F4C6
:1005F00082E009C086E007C085E005C084E003C052
:1006000083E001C081E0DF91CF910895FC018081FA
:10061000813331F0823331F0833331F483E0089554
:1006200081E0089582E0089583E608950E94FF0422
:100630000895CF93DF93EC0184E390E20E94FF04DE
:100640008FEB9AED0197F1F700C0000088E390E28C
:100650000E94FF049FEF28EA81E0915020408040F3
:10066000E1F700C00000CE010E94FF048FEB9AED7D
:100670000197F1F700C0000080E490E20E94FF04BF
:100680008FEB9AED0197F1F700C0000080E490E253
:100690000E94FF048FEB9AED0197F1F700C0000074
:1006A00080E490E20E94FF048FEB9AED0197F1F74E
:1006B00000C0000080E490E20E94FF048FEB9AEDFE
:1006C0000197F1F700C0000083E490E20E94FF046C
:1006D0008FEB9AED0197F1F700C0000081E0DF9108
:1006E000CF910895E0915820F0915920858980FF9D
:1006F00065C06091542070915520CF010E944B023B
:10070000882309F457C080915420909155200E946D
:10071000BC02823031F118F4813031F00895833019
:1007200069F18430C9F10895E0915420F091552089
:10073000848195810E940603823049F0833061F004
:100740008130E1F587E490E20E94190308958AE47C
:1007500090E20E94190308958DE490E20E9419032B
:10076000089560915420709155208EE590E20E948A
:10077000760187E490E20E94190308956091542065
:100780007091552040E08EE590E20E94B30187E42D
:1007900090E20E94190308956091542070915520B1
:1007A00041E08EE590E20E94B30187E490E20E946E
:1007B0001903089580E590E20E9419030895CF93EC
:1007C000DF9386E090E00E94D805EC0160E1809123
:1007D0005820909159200E941304809358209093A0
:1007E000592026E047E060E676E080EB99E00E9441
:1007F000BD0480915420909155200E94080280935E
:1008000054209093552082E793E08C839D8386E16A
:1008100093E08883998389E193E08A839B83CE0167
:10082000DF91CF910895EF92FF920F931F93CF9393
:10083000DF93062F86E190E00E94D8057C0110E04E
:100840000FC0C12FD0E0802F90E00E94D805CC0FC0
:10085000DD1FCE0DDF1D88839983FC0110821F5F91
:10086000193078F3802F90E00E94D805F701828B31
:10087000938BFC011082F701148A85898E7F826038
:10088000858BC701DF91CF911F910F91FF90EF9062
:100890000895CF93DF93EC01EC89E93060F481E0B7
:1008A0008E0F8C8BF0E0EE0FFF1FEC0FFD1F808191
:1008B00091810E9417078D898D7F8D8B8C8988305F
:1008C00019F48D8981608D8BDF91CF9108951F93ED
:1008D000CF93DF93EC01688179818A899B890E949B
:1008E000170710E014C0812F90E0FC013196EE0F45
:1008F000FF1FEC0FFD1F60817181880F991FFE01A2
:10090000E80FF91F808191810E9417071F5F8C8972
:10091000181748F3882311F081508C8B8D898E7FB6
:100920008D8B8C89811103C08D8982608D8B8A8922
:100930009B89DF91CF911F910895DC0190E00BC05E
:10094000E92FF0E0EE0FFF1FEA0FFB1F0190F0818F
:10095000E02D10829F5F993098F35296ED91FC91B3
:100960005397108254961C92549755968C91559794
:100970008E7F826055968C930895FB0180935C2056
:1009800090935D2081E090E0BC0102C0660F771F6C
:100990004A95E2F76583618302C0880F991F2A9503
:1009A000E2F78283E0915C20F0915D208CE0868309
:1009B00080E4878383E0858380E2838382E0809381
:1009C000A20084818861848380E006C0E82FF0E083
:1009D000E959FF4D10828F5F8031C0F380E190E0D4
:1009E0000E94D805809377209093782080E190E052
:1009F0000E94D80580936520909366200895BC01DD
:100A000080916520909166200E941707E0915C20FC
:100A1000F0915D20838182608383089590EE980F2A
:100A20009F3550F4E0915B2091E09E0F90935B2006
:100A3000F0E0E959FF4D80838D3031F0882321F0BB
:100A400080915B208D30D0F0A0915B20E1E0EA0F37
:100A5000B0E0A959BF4D8AE08C9381E08E0FF0E0A1
:100A6000E959FF4D9DE09083E82FF0E0E959FF4DF3
:100A7000108210925B2087E690E2089580E090E07B
:100A800008951F920F920FB60F9211248F939F9388
:100A9000EF93FF9390915A20E0916520F0916620AA
:100AA000E90FF11D8081882331F0803298F48A307B
:100AB00089F08D3079F0E0915C20F0915D2010821A
:100AC000E0915C20F0915D2083818D7F8383109283
:100AD0005A2008C0E0915C20F0915D209F5F9093C8
:100AE0005A208083FF91EF919F918F910F900FBEBD
:100AF0000F901F9018951F920F920FB60F9211240E
:100B00002F933F934F935F936F937F938F939F9315
:100B1000AF93BF93EF93FF93E0915C20F0915D2042
:100B200080810E940E058093772090937820009713
:100B300059F0BC0180915820909159200E9449049D
:100B40001092772010927820FF91EF91BF91AF9192
:100B50009F918F917F916F915F914F913F912F91D5
:100B60000F900FBE0F901F9018950E94CB0580919B
:100B70005620909157200E94DF0380935620909337
:100B800057207894E0915620F09157200480F58109
:100B9000E02D0995F7CF82E08093500080915100BD
:100BA00081FFFCCF88ED84BF81E0809340000895F1
:100BB0000F931F93CF93DF938230910510F482E05F
:100BC00090E0E0917B20F0917C2020E030E0A0E0FC
:100BD000B0E0309719F140815181028113814817AB
:100BE0005907C8F08417950769F4109731F01296E9
:100BF0000C93129713961C9327C000937B2010939D
:100C00007C2022C02115310519F04217530718F432
:100C10009A01BD01EF01DF01F801DBCF211531059C
:100C2000F9F0281B390B2430310580F48A819B812F
:100C30006115710521F0FB018283938304C08093C9
:100C40007B2090937C20FE01329644C0FE01E20F8F
:100C5000F31F8193919322503109288339833AC03D
:100C60002091792030917A20232B41F42091022089
:100C7000309103202093792030937A202091002016
:100C8000309101202115310541F42DB73EB7409137
:100C9000042050910520241B350BE0917920F09120
:100CA0007A20E217F307A0F42E1B3F0B2817390711
:100CB00078F0AC014E5F5F4F2417350748F04E0FB8
:100CC0005F1F4093792050937A208193919302C0C3
:100CD000E0E0F0E0CF01DF91CF911F910F910895F7
:100CE000CF93DF93009709F481C0FC013297128201
:100CF0001382A0917B20B0917C20109781F42081F9
:100D00003181820F931F2091792030917A2028170A
:100D1000390751F5E0937920F0937A2067C0ED010F
:100D200020E030E0CE17DF0740F44A815B819E016E
:100D300041155105F1F0EA01F5CFC283D38340811B
:100D40005181840F951FC817D90759F4888199815B
:100D5000840F951F0296808391838A819B81828371
:100D600093832115310529F4E0937B20F0937C20B7
:100D70003DC0E901EA83FB8349915991C40FD51F16
:100D8000EC17FD0761F480819181840F951F029615
:100D9000E90188839983828193818A839B83E0E040
:100DA000F0E012968D919C911397009719F0FD0138
:100DB000DC01F7CF8D919C9111979D012E5F3F4FE4
:100DC000820F931F2091792030917A2028173907BC
:100DD00069F4309729F410927B2010927C2002C095
:100DE00012821382A0937920B0937A20DF91CF9161
:100DF0000895FC0188279927E89421912032E9F38E
:100E0000293010F02E30C8F32B3241F02D3239F456
:100E1000689404C00E942C07820F911D21912053D9
:100E20002A30C0F31EF4909581959F4F0895FB01E1
:100E3000DC0101900D920020E1F70895FB01DC0137
:100E40004150504030F08D910190801919F40020EC
:100E5000B9F7881B990B08957AE0979F902D879F8B
:0C0E6000802D910D11240895F894FFCF0F
:100E6C0000007D2020000117201E20242023202A92
:100E7C002029202E203120535441545553004D4FDE
:100E8C00564500455441534B00454A4F4200454698
:100E9C000053460053460A005354415455530A001C
:100EAC00300A0045460A00310A00320A00330A00B3
:040EBC0039390A00B6
:00000001FF
