S00F0000526F626F41726D2E7372656363
S11300000C9404010C942A010C942A010C942A01E6
S11300100C942A010C942A010C942A010C942A01B0
S11300200C942A010C942A010C942A010C942A01A0
S11300300C942A010C942A010C942A010C942A0190
S11300400C942A010C942A010C942A010C942A0180
S11300500C942A010C942A010C942A010C942A0170
S11300600C942A010C942A010C942A010C942A0160
S11300700C942A010C942A010C942A010C942A0150
S11300800C942A010C942A010C942A010C942A0140
S11300900C942A010C942A010C942A010C942A0130
S11300A00C942A010C942A010C942A010C942A0120
S11300B00C942A010C942A010C942A010C942A0110
S11300C00C942A010C942A010C942A010C942A0100
S11300D00C942A010C942A010C942A010C942A01F0
S11300E00C942A010C942A010C942A010C942A01E0
S11300F00C942A010C949B050C9457050C942A012A
S11301000C942A010C942A010C942A010C942A01BF
S11301100C942A010C942A010C942A010C942A01AF
S11301200C942A010C942A010C942A010C942A019F
S11301300C942A010C942A010C942A010C942A018F
S11301400C942A010C942A010C942A010C942A017F
S11301500C942A010C942A010C942A010C942A016F
S11301600C942A010C942A010C942A010C942A015F
S11301700C942A010C942A010C942A010C942A014F
S11301800C942A010C942A010C942A010C942A013F
S11301900C942A010C942A010C942A010C942A012F
S11301A00C942A010C942A010C942A010C942A011F
S11301B00C942A010C942A010C942A010C942A010F
S11301C00C942A010C942A010C942A010C942A01FF
S11301D00C942A010C942A010C942A010C942A01EF
S11301E00C942A010C942A010C942A010C942A01DF
S11301F00C942A010C942A010C942A010C942803CF
S11302000C9481030C94250311241FBECFEFCDBFA2
S1130210DFE3DEBF00E00CBF18BE19BE1ABE1BBE72
S113022010E2A0E0B0E2E6EFF0E100E00BBF02C0B4
S113023007900D92A635B107D9F71BBE20E2A6E5BB
S1130240B0E201C01D92AA37B207E1F70E94E606A8
S11302500C9479080C9400000F931F93CF93DF93B1
S1130260082F162FD42FC22F84E090E00E941D0780
S1130270FC0100831183D2838381C0FB80F98383D3
S1130280CF01DF91CF911F910F9108950F931F9389
S1130290CF93DF938C01EB0184E090E00E941D0773
S11302A0FC0102831383C083D183DF91CF911F911B
S11302B00F91089587E090E00E941D07FC011682CB
S11302C01482158210821182128213820895FC0115
S11302D082819381892B51F462837383DB011D92A4
S11302E01C92828193818083918307C08081918154
S11302F0DB018D939C9360837183808191818483DE
S1130300958386818F5F86830895EF92FF920F9382
S11303101F93CF93DF938C01EB01DC01ED90FC90F4
S11303200E945A01B7010E944601BC01C8010E9403
S113033067018A859B850E943E08E82E88859985F9
S11303400E943E08F82E8E819F810E943E08EC8117
S1130350FD812E2D4F2D682F80810E942C0160E09D
S113036070E00E944601D801ED91FC91BC018281AC
S113037093810E946701DF91CF911F910F91FF90AC
S1130380EF900895BF92CF92DF92EF92FF920F9376
S11303901F93CF93DF937C01EB01B42EDC01CD904E
S11303A0DC90F6010281138180910620882381F07C
S11303B00E945A01B6010E944601BC01C7010E9475
S11303C06701D701ED91FC910281138110920620FF
S11303D0F801E080F1808A859B850E943E08C82E42
S11303E0888599850E943E08D82E8E819F810E941F
S11303F03E08EC81FD812C2D4D2D682F80810E94BB
S11304002C01B7010E944601BC01C8010E9467018A
S1130410BB2019F081E080930620DF91CF911F91DA
S11304200F91FF90EF90DF90CF90BF900895CF93FE
S1130430DF9380E190E00E941D07EC0180E190E0F1
S11304400E941D0788839983FC01108280E190E05B
S11304500E941D078A839B83FC01108280E190E047
S11304600E941D078C839D83FC01108280E190E033
S11304700E941D078E839F83FC01108280E190E01F
S11304800E941D0788879987FC01108280E190E013
S11304900E941D078A879B87FC01108280E190E0FF
S11304A00E941D078E879F87FC011082CE01DF9179
S11304B0CF9108950F931F93CF93DF938C01EB019A
S11304C00E947D04BC01888199810E945C08688136
S11304D0798142E050E080911520909116200E948D
S11304E06308892B09F04EC0C8010E947D04BC0139
S11304F08A819B810E945C08C8010E947D04BC0122
S11305008C819D810E945C08C8010E947D04BC010D
S11305108E819F810E945C08C8010E947D04BC01F9
S1130520888599850E945C08C8010E947D04BC01ED
S11305308A859B850E945C08C8010E947D04BC01D9
S11305408C859D850E945C08C8010E947D04BC01C5
S11305508E859F850E945C086E857F8542E050E011
S113056080911320909114200E946308892B29F410
S1130570C8010E94B30481E009C0C8010E94B30409
S113058080E004C0C8010E94B30480E0DF91CF91F1
S11305901F910F910895CF93DF93FC01C281D38102
S11305A043E050E0BE0180911120909112200E94FE
S11305B06308892B71F143E050E0BE0180910F2064
S11305C0909110200E946308892B29F143E050E0A8
S11305D0BE0180910D2090910E200E946308892B0A
S11305E0E1F043E050E0BE0180910B2090910C209B
S11305F00E946308892B99F043E050E0BE0180918A
S1130600092090910A200E946308892B51F482E00A
S113061009C086E007C085E005C084E003C083E02C
S113062001C081E0DF91CF910895FC018081813385
S113063031F0823331F0833331F483E0089581E083
S1130640089582E0089583E608950E9415050895AB
S1130650CF93DF93EC0186E390E20E9415058FEBC4
S11306609AED0197F1F700C000008AE390E20E943E
S113067015059FEF28EA81E0915020408040E1F782
S113068000C00000CE010E9415058FEB9AED019782
S1130690F1F700C0000082E490E20E9415058FEBA0
S11306A09AED0197F1F700C0000082E490E20E9405
S11306B015058FEB9AED0197F1F700C0000082E475
S11306C090E20E9415058FEB9AED0197F1F700C0B7
S11306D0000082E490E20E9415058FEB9AED0197E9
S11306E0F1F700C0000085E490E20E9415058FEB4D
S11306F09AED0197F1F700C0000081E0DF91CF91FE
S11307000895E0915A20F0915B20858980FF6CC0A8
S11307106091562070915720CF010E945A0288237D
S113072009F45EC080915620909157200E94CB021C
S1130730823039F118F4813031F00895833081F139
S11307408430F1F10895E0915620F091572084818E
S113075095810E941503823051F0833069F0813015
S113076009F042C089E490E20E94280308958CE4D1
S113077090E20E94280308958FE490E20E942803E7
S11307800895609156207091572080916020909137
S113079061200E94850189E490E20E942803089563
S11307A0609156207091572040E080916020909194
S11307B061200E94C20189E490E20E942803089506
S11307C0609156207091572041E080916020909173
S11307D061200E94C20189E490E20E9428030895E6
S11307E082E590E20E9428030895CF93DF9386E088
S11307F090E00E941D07EC0160E180915A209091E5
S11308005B200E94290480935A2090935B2026E069
S113081047E060E876E080EB9AE00E94D3048091A0
S11308205620909157200E9417028093562090934F
S1130830572081E893E08C839D8385E293E088834D
S1130840998388E293E08A839B83CE01DF91CF91E1
S11308500895EF92FF920F931F93CF93DF93062F88
S113086086E190E00E941D077C0110E00FC0C12FBB
S1130870D0E0802F90E00E941D07CC0FDD1FCE0D2D
S1130880DF1D88839983FC0110821F5F193078F380
S1130890802F90E00E941D07F701828B938BFC014F
S11308A01082F701148A85898E7F8260858BC70147
S11308B0DF91CF911F910F91FF90EF900895CF9307
S11308C0DF93EC01EC89E93060F481E08E0F8C8BCE
S11308D0F0E0EE0FFF1FEC0FFD1F808191810E945D
S11308E05C088D898D7F8D8B8C89883019F48D8976
S11308F081608D8BDF91CF9108951F93CF93DF9308
S1130900EC01688179818A899B890E945C0810E0E6
S113091014C0812F90E0FC013196EE0FFF1FEC0F05
S1130920FD1F60817181880F991FFE01E80FF91F77
S1130930808191810E945C081F5F8C89181748F39D
S1130940882311F081508C8B8D898E7F8D8B8C89BF
S1130950811103C08D8982608D8B8A899B89DF9187
S1130960CF911F910895DC0190E00BC0E92FF0E0D6
S1130970EE0FFF1FEA0FFB1F0190F081E02D1082A4
S11309809F5F993098F35296ED91FC9153971082A2
S113099054961C92549755968C9155978E7F8260ED
S11309A055968C930895FB0180935E2090935F206D
S11309B081E090E0BC0102C0660F771F4A95E2F720
S11309C06583618302C0880F991F2A95E2F78283A9
S11309D0E0915E20F0915F208CE0868380E4878341
S11309E083E0858380E2838382E08093A200848114
S11309F08861848380E006C0E82FF0E0EC59FF4D65
S1130A0010828F5F8031C0F380E190E00E941D0767
S1130A10809374209093752080E190E00E941D07DC
S1130A2080936220909363200895BC01809162209A
S1130A30909163200E945C08E0915E20F0915F2019
S1130A40838182608383089590EE980F9F3550F4DC
S1130A50E0915D2091E09E0F90935D20F0E0EC59D1
S1130A60FF4D80838D3031F0882321F080915D200B
S1130A708D30D0F0A0915D20E1E0EA0FB0E0AC59F8
S1130A80BF4D8AE08C9381E08E0FF0E0EC59FF4D6E
S1130A909DE09083E82FF0E0EC59FF4D1082109216
S1130AA05D2084E690E2089580E090E008951F922E
S1130AB00F920FB60F92112408B60F9218BE0BB600
S1130AC00F921BBE8F939F93EF93FF9390915C20A3
S1130AD0E0916220F0916320E90FF11D8081882369
S1130AE031F0803298F48A3089F08D3079F0E091D9
S1130AF05E20F0915F201082E0915E20F0915F20F3
S1130B0083818D7F838310925C2008C0E0915E20F6
S1130B10F0915F209F5F90935C208083FF91EF9121
S1130B209F918F910F900BBE0F9008BE0F900FBE38
S1130B300F901F9018951F920F920FB60F921124C9
S1130B4008B60F9218BE09B60F9219BE0BB60F92D3
S1130B501BBE2F933F934F935F936F937F938F931A
S1130B609F93AF93BF93EF93FF93E0915E20F09137
S1130B705F2080810E9424058093742090937520C7
S1130B80009759F0BC0180915A2090915B200E94FB
S1130B905F041092742010927520FF91EF91BF9121
S1130BA0AF919F918F917F916F915F914F913F9101
S1130BB02F910F900BBE0F9009BE0F9008BE0F909F
S1130BC00FBE0F901F9018951F93CF93DF93EC01E6
S1130BD0142F0E94D50660E8CE010E94DB06612F27
S1130BE0CE010E94DB0660E8CE010E94DB06612F85
S1130BF0CE010E94DB06CE010E94E106DF91CF9177
S1130C001F9108950F931F93CF93DF93EC01142F3B
S1130C10022F0E94D50660E8CE010E94DB06612FF8
S1130C20CE010E94DB0660E8CE010E94DB06612F44
S1130C30CE010E94DB06602FCE010E94DB06CE01AE
S1130C400E94E106DF91CF911F910F910895CF93F8
S1130C50DF93EC0124E14DE868E70E9402064FEAC5
S1130C6068E7CE010E94E405DF91CF910895CF9308
S1130C70DF93EC0123E04AED68E70E94020648ECAA
S1130C8068E7CE010E94E40522E040E268E7CE0175
S1130C900E94020640EB68E7CE010E94E40540E0B2
S1130CA068E7CE010E94E40540E168E7CE010E94B6
S1130CB0E40540E468E7CE010E94E40541EA68E700
S1130CC0CE010E94E405CE010E942706DF91CF9158
S1130CD008951F93CF93DF93EC01142F0E94D50640
S1130CE060ECCE010E94DB06612FCE010E94DB0680
S1130CF0CE010E94E106DF91CF911F9108950F93D9
S1130D001F93CF938C01C62F405568E70E94E405DA
S1130D104C2F4F7068E7C8010E94E4054C2F4295A0
S1130D204F70405F68E7C8010E94E405CF911F91AE
S1130D300F910895CF92DF92FF920F931F93CF9359
S1130D40DF938C01F62EC12CD12C14C04C2D60E005
S1130D50C8010E947F06C0E0D0E006C04F2D68E7BE
S1130D60C8010E9469062196C038D105B8F38FEFF7
S1130D70C81AD80A88E0C816D10440F3DF91CF918D
S1130D801F910F91FF90DF90CF900895FC01658330
S1130D908281816082838181886081838181806C8A
S1130DA081838481816084830895FC0166839481B6
S1130DB095FFFDCF0895FC016783948195FFFDCFD6
S1130DC00895FC0193819360938308950E94100712
S1130DD063E280911720909118200E94C6068091AA
S1130DE01720909118200E9437066AEA80911720F4
S1130DF0909118200E949A06809158209091592031
S1130E000E94F50380935820909359207894E091A0
S1130E105820F09159200480F581E02D1995F7CFE1
S1130E2082E0809350008091510081FFFCCF88EDD7
S1130E3084BF81E08093400008950F931F93CF9364
S1130E40DF938230910510F482E090E0E091782005
S1130E50F091792020E030E0A0E0B0E0309719F183
S1130E60408151810281138148175907C8F08417C2
S1130E70950769F4109731F012960C931297139614
S1130E801C9327C0009378201093792022C0211549
S1130E90310519F04217530718F49A01BD01EF0107
S1130EA0DF01F801DBCF21153105F9F0281B390BDF
S1130EB02430310580F48A819B816115710521F00C
S1130EC0FB018283938304C08093782090937920DC
S1130ED0FE01329644C0FE01E20FF31F8193919309
S1130EE022503109288339833AC0209176203091E9
S1130EF07720232B41F4209102203091032020936A
S1130F007620309377202091002030910120211504
S1130F10310541F42DB73EB740910420509105208E
S1130F20241B350BE0917620F0917720E217F3072C
S1130F30A0F42E1B3F0B2817390778F0AC014E5F45
S1130F405F4F2417350748F04E0F5F1F40937620FC
S1130F50509377208193919302C0E0E0F0E0CF01B9
S1130F60DF91CF911F910F910895CF93DF93009755
S1130F7009F481C0FC01329712821382A091782077
S1130F80B0917920109781F420813181820F931FD1
S1130F9020917620309177202817390751F5E09376
S1130FA07620F093772067C0ED0120E030E0CE1783
S1130FB0DF0740F44A815B819E0141155105F1F040
S1130FC0EA01F5CFC283D38340815181840F951FF9
S1130FD0C817D90759F488819981840F951F0296FF
S1130FE0808391838A819B81828393832115310538
S1130FF029F4E0937820F09379203DC0E901EA8355
S1131000FB8349915991C40FD51FEC17FD0761F477
S113101080819181840F951F0296E90188839983C9
S1131020828193818A839B83E0E0F0E012968D9124
S11310309C911397009719F0FD01DC01F7CF8D9176
S11310409C9111979D012E5F3F4F820F931F20911A
S11310507620309177202817390769F4309729F4DE
S1131060109278201092792002C012821382A093E9
S11310707620B0937720DF91CF910895FC018827E3
S11310809927E89421912032E9F3293010F02E3089
S1131090C8F32B3241F02D3239F4689404C00E9415
S11310A07108820F911D219120532A30C0F31EF440
S11310B0909581959F4F0895FB01DC0101900D925D
S11310C00020E1F70895FB01DC014150504030F06D
S11310D08D910190801919F40020B9F7881B990BA0
S11310E008957AE0979F902D879F802D910D11246C
S10910F00895F894FFCFFF
S11310F600007A2020000119202020262025202CFB
S1131106202B20302033208004535441545553005F
S11311164D4F564500455441534B00454A4F4200F6
S113112645460053460053460A005354415455530A
S11311360A00300A0045460A00310A00320A003322
S10911460A0039390A0019
S9030000FC
