:100000000C94FE000C941B010C941B010C941B011E
:100010000C941B010C941B010C941B010C941B01F0
:100020000C941B010C941B010C941B010C941B01E0
:100030000C941B010C941B010C941B010C941B01D0
:100040000C941B010C941B010C941B010C941B01C0
:100050000C941B010C941B010C941B010C941B01B0
:100060000C941B010C941B010C941B010C941B01A0
:100070000C941B010C941B010C941B010C941B0190
:100080000C941B010C941B010C941B010C941B0180
:100090000C941B010C941B010C941B010C941B0170
:1000A0000C941B010C941B010C941B010C941B0160
:1000B0000C941B010C941B010C941B010C941B0150
:1000C0000C941B010C941B010C941B010C941B0140
:1000D0000C941B010C941B010C941B010C941B0130
:1000E0000C941B010C941B010C941B010C941B0120
:1000F0000C941B010C941B010C941B010C941B0110
:100100000C941B010C941B010C941B010C941B01FF
:100110000C941B010C941B010C941B010C941B01EF
:100120000C941B010C941B010C941B010C941B01DF
:100130000C941B010C941B010C941B010C941B01CF
:100140000C941B010C941B010C941B010C941B01BF
:100150000C941B010C941B010C941B010C941B01AF
:100160000C941B010C941B010C941B010C94DA03DE
:100170000C94A0030C941B010C941B010C941B0108
:100180000C941B010C941B010C941B010C941B017F
:100190000C941B010C941B010C941B010C941B016F
:1001A0000C941B010C941B010C941B010C941B015F
:1001B0000C941B010C941B010C941B010C941B014F
:1001C0000C941B010C941B010C941B010C941B013F
:1001D0000C941B010C941B010C941B010C941B012F
:1001E0000C941B010C941B010C941B010C941B011F
:1001F0000C941B010C941B010C941B0111241FBEB9
:10020000CFEFCDBFD7E2DEBF10E2A0E0B0E2EAE67A
:10021000FBE002C005900D92AE33B107D9F720E2A2
:10022000AEE3B0E201C01D92A036B207E1F70E9432
:100230002B040C94B3050C940000CF93DF9380E162
:1002400090E00E947D04EC0180E190E00E947D043A
:1002500088839983FC01108280E190E00E947D04F4
:100260008A839B83FC01108280E190E00E947D04E0
:100270008C839D83FC01108280E190E00E947D04CC
:100280008E839F83FC01108280E190E00E947D04B8
:1002900088879987FC01108280E190E00E947D04AC
:1002A0008A879B87FC01108280E190E00E947D0498
:1002B0008E879F87FC011082CE01DF91CF91089538
:1002C0000F931F93CF93DF938C01EB010E94C60223
:1002D000BC01888199810E949E056881798142E0F4
:1002E00050E080910820909109200E94A505892B5B
:1002F00009F04EC0C8010E94C602BC018A819B81E0
:100300000E949E05C8010E94C602BC018C819D818D
:100310000E949E05C8010E94C602BC018E819F8179
:100320000E949E05C8010E94C602BC01888599856D
:100330000E949E05C8010E94C602BC018A859B8559
:100340000E949E05C8010E94C602BC018C859D8545
:100350000E949E05C8010E94C602BC018E859F8531
:100360000E949E056E857F8542E050E080910620C8
:10037000909107200E94A505892B29F4C8010E94AD
:10038000FC0281E009C0C8010E94FC0280E004C0B8
:10039000C8010E94FC0280E0DF91CF911F910F9174
:1003A00008950E945E030895E0914220F091432059
:1003B0009589892F817090FF07C060913E207091D0
:1003C0003F20CF010E9460010895CF93DF93EC019D
:1003D00087E290E20E945E038FEB9AED0197F1F7BE
:1003E00000C000008BE290E20E945E039FEF28EACB
:1003F00081E0915020408040E1F700C00000CE0134
:100400000E945E038FEB9AED0197F1F700C00000A8
:1004100083E390E20E945E038FEB9AED0197F1F780
:1004200000C0000083E390E20E945E038FEB9AED30
:100430000197F1F700C0000083E390E20E945E03A1
:100440008FEB9AED0197F1F700C0000083E390E293
:100450000E945E038FEB9AED0197F1F700C0000058
:1004600086E390E20E945E038FEB9AED0197F1F72D
:1004700000C0000081E0DF91CF910895CF93DF931A
:1004800086E090E00E947D04EC0160E180914220D2
:10049000909143200E9472028093422090934320C7
:1004A00026E047E060E676E080EB99E00E941C03DE
:1004B00080913E2090913F200E941D0180933E201C
:1004C00090933F2084ED91E08C839D8381ED91E0BA
:1004D0008883998385EE91E08A839B83CE01DF91A7
:1004E000CF910895EF92FF920F931F93CF93DF93D5
:1004F000062F86E190E00E947D047C0110E00FC091
:10050000C12FD0E0802F90E00E947D04CC0FDD1F32
:10051000CE0DDF1D88839983FC0110821F5F193087
:1005200078F3802F90E00E947D04F701828B938BFB
:10053000FC011082F701148A85898E7F8260858B89
:10054000C701DF91CF911F910F91FF90EF90089518
:10055000CF93DF93EC01EC89E93060F481E08E0FFA
:100560008C8BF0E0EE0FFF1FEC0FFD1F808191815F
:100570000E949E058D898D7F8D8B8C89883019F422
:100580008D8981608D8BDF91CF9108951F93CF93DB
:10059000DF93EC01688179818A899B890E949E059D
:1005A00010E014C0812F90E0FC013196EE0FFF1F88
:1005B000EC0FFD1F60817181880F991FFE01E80F0C
:1005C000F91F808191810E949E051F5F8C891817F9
:1005D00048F3882311F081508C8B8D898E7F8D8B11
:1005E0008C89811103C08D8982608D8B8A899B895A
:1005F000DF91CF911F910895DC0190E00BC0E92FAE
:10060000F0E0EE0FFF1FEA0FFB1F0190F081E02DDD
:1006100010829F5F993098F35296ED91FC91539719
:10062000108254961C92549755968C9155978E7FB4
:10063000826055968C930895FB0180934620909399
:10064000472081E090E0BC0102C0660F771F4A9509
:10065000E2F76583618302C0880F991F2A95E2F74C
:100660008283E0914620F09147208CE0868380E4ED
:10067000878383E0858380E2838382E08093A20086
:1006800084818861848380E006C0E82FF0E0E65B27
:10069000FF4D10828F5F8031C0F380E190E00E94B7
:1006A0007D0480935A2090935B2080E190E00E942B
:1006B0007D0480934820909349200895BC01809147
:1006C0004820909149200E949E05E0914620F0919B
:1006D0004720838182608383089590EE980F9F3531
:1006E00050F4E091452091E09E0F90934520F0E07A
:1006F000E65BFF4D80838D3031F0882321F08091BF
:1007000045208D30D0F0A0914520E1E0EA0FB0E027
:10071000A65BBF4D8AE08C9381E08E0FF0E0E65B34
:10072000FF4D9DE09083E82FF0E0E65BFF4D1082E7
:10073000109245208AE490E2089580E090E00895C8
:100740001F920F920FB60F9211248F939F93EF93E6
:10075000FF9390914420E0914820F0914920E90FC7
:10076000F11D8081882331F0803298F48A3089F03D
:100770008D3079F0E0914620F09147201082E09191
:100780004620F091472083818D7F838310924420FF
:1007900008C0E0914620F09147209F5F909344204D
:1007A0008083FF91EF919F918F910F900FBE0F90DB
:1007B0001F9018951F920F920FB60F9211242F932E
:1007C0003F934F935F936F937F938F939F93AF93D9
:1007D000BF93EF93FF93E0914620F09147208081F3
:1007E0000E946D0380935A2090935B20009759F0EC
:1007F000BC0180914220909143200E94A802109257
:100800005A2010925B20FF91EF91BF91AF919F9181
:100810008F917F916F915F914F913F912F910F90A9
:100820000FBE0F901F901895FC0182819381892B38
:1008300051F462837383DB011D921C928281938148
:1008400080839183089580819181DB018D939C93B6
:10085000608371830895CF93DF93CDB7DEB7679739
:10086000CDBFDEBF0E947004809140209091412056
:100870000E943E028093402090934120BE01685F19
:100880007F4FCE0101960E941404BE01645F7F4F2A
:10089000CE0101960E941404BE01605F7F4FCE011D
:1008A00001960E941404BE016C5E7F4FCE0101963A
:1008B0000E9414047894E0914020F091412004803B
:1008C000F581E02D09958130B1F7E0914020F0915C
:1008D00041200280F381E02D8AE390E20995EBCF7D
:1008E00082E0809350008091510081FFFCCF88ED21
:1008F00084BF81E08093400008950F931F93CF93AE
:10090000DF938230910510F482E090E0E0915E2068
:10091000F0915F2020E030E0A0E0B0E0309719F1E6
:10092000408151810281138148175907C8F084170B
:10093000950769F4109731F012960C93129713965D
:100940001C9327C000935E2010935F2022C02115C6
:10095000310519F04217530718F49A01BD01EF0150
:10096000DF01F801DBCF21153105F9F0281B390B28
:100970002430310580F48A819B816115710521F055
:10098000FB018283938304C080935E2090935F2059
:10099000FE01329644C0FE01E20FF31F8193919352
:1009A00022503109288339833AC020915C2030914C
:1009B0005D20232B41F420910220309103202093CD
:1009C0005C2030935D202091002030910120211582
:1009D000310541F42DB73EB74091042050910520D8
:1009E000241B350BE0915C20F0915D20E217F307AA
:1009F000A0F42E1B3F0B2817390778F0AC014E5F8F
:100A00005F4F2417350748F04E0F5F1F40935C205F
:100A100050935D208193919302C0E0E0F0E0CF011C
:100A2000DF91CF911F910F910895CF93DF9300979E
:100A300009F481C0FC01329712821382A0915E20DA
:100A4000B0915F20109781F420813181820F931F34
:100A500020915C2030915D202817390751F5E093F3
:100A60005C20F0935D2067C0ED0120E030E0CE1700
:100A7000DF0740F44A815B819E0141155105F1F089
:100A8000EA01F5CFC283D38340815181840F951F42
:100A9000C817D90759F488819981840F951F029648
:100AA000808391838A819B81828393832115310581
:100AB00029F4E0935E20F0935F203DC0E901EA83D2
:100AC000FB8349915991C40FD51FEC17FD0761F4C1
:100AD00080819181840F951F0296E9018883998313
:100AE000828193818A839B83E0E0F0E012968D916E
:100AF0009C911397009719F0FD01DC01F7CF8D91C0
:100B00009C9111979D012E5F3F4F820F931F209163
:100B10005C2030915D202817390769F4309729F45B
:100B200010925E2010925F2002C012821382A09366
:100B30005C20B0935D20DF91CF910895FB01DC0133
:100B400001900D920020E1F70895FB01DC01415076
:100B5000504030F08D910190801919F40020B9F7C0
:0A0B6000881B990B0895F894FFCF4D
:100B6A000000602020002120242053544154555372
:100B7A00004D4F564500455441534B00454A4F429C
:100B8A000045460053460053460A00535441545503
:0E0B9A00530A00300A0045460A00310A0000E6
:00000001FF
