:100000000C9412010C9438010C9438010C943801B2
:100010000C9438010C9438010C9438010C9438017C
:100020000C9438010C9438010C9438010C9438016C
:100030000C9438010C9438010C9438010C9438015C
:100040000C9438010C9438010C9438010C9438014C
:100050000C94650A0C9438010C9438010C94380106
:100060000C9438010C9438010C9438010C9438012C
:100070000C9438010C9438010C9438010C9438011C
:100080000C9438010C9438010C9438010C9438010C
:100090000C9438010C9438010C9438010C943801FC
:1000A0000C9438010C9438010C9438010C943801EC
:1000B0000C9438010C9438010C9438010C943801DC
:1000C0000C9438010C9438010C9438010C943801CC
:1000D0000C9438010C9438010C9438010C943801BC
:1000E0000C9438010C9438010C9438010C943801AC
:1000F0000C9438010C9438010C9438010C9438019C
:100100000C9438010C9438010C9438010C9438018B
:100110000C9438010C9438010C9438010C9438017B
:100120000C9438010C9438010C9438010C9438016B
:100130000C9438010C9438010C9438010C9438015B
:100140000C9438010C9438010C9438010C9438014B
:100150000C9438010C9438010C9438010C9438013B
:100160000C943C060C94F8050C9438010C9438015E
:100170000C9438010C9438010C9438010C9438011B
:100180000C9438010C9438010C9438010C9438010B
:100190000C9438010C9438010C9438010C943801FB
:1001A0000C9438010C9438010C9438010C943801EB
:1001B0000C94EE0A0C9438010C9438010C9438011C
:1001C0000C9438010C9438010C9438010C943801CB
:1001D0000C9438010C9438010C9438010C943801BB
:1001E0000C9438010C9438010C9438010C943801AB
:1001F0000C9438010C9438010C9438010C94B00321
:100200000C94D2060C9409040C9420070C948506D7
:100210000C94FB060C94AD030C94E6060C94BD06FE
:100220000C94360711241FBECFEFCDBFDFE3DEBF36
:1002300000E00CBF18BE19BE1ABE1BBE10E2A0E043
:10024000B0E2E2EAFFE100E00BBF02C007900D92CE
:10025000A236B107D9F71BBE20E2A2E6B0E201C088
:100260001D92A639B207E1F70E942B0C0C94CF0F18
:100270000C9400000F931F93CF93DF93082F162F3A
:10028000D42FC22F84E090E00E94730EFC01008303
:100290001183D2838381C0FB80F98383CF01DF91F7
:1002A000CF911F910F9108950F931F93CF93DF93D9
:1002B0008C01EB0184E090E00E94730EFC0102834C
:1002C0001383C083D183DF91CF911F910F91089544
:1002D00087E090E00E94730EFC0116821482158262
:1002E00010821182128213820895FC01828193810F
:1002F000892B51F462837383DB011D921C928281EE
:1003000093818083918307C080819181DB018D93EC
:100310009C9360837183808191818483958386819E
:100320008F5F86830895FC01A481B58112968D911B
:100330009C9113972D913C91248335830895FC0162
:10034000A481B58112968D919C9113972D913C912A
:100350002483358308950F931F93CF93DF93DC019C
:10036000ED91FC913097D1F0EC01008111818281F7
:1003700093810E940B0FE881F98110821182E8813C
:10038000F98112821382888199810E940B0F088360
:1003900019830C831D838E8181508E83DF91CF91D1
:1003A0001F910F910895CF93DF93EC0103C0CE010D
:1003B0000E94AB0188819981892BC9F71882198223
:1003C0001C821D821A821B821E82DF91CF910895AA
:1003D000EF92FF920F931F93CF93DF938C01EB016A
:1003E000DC01ED90FC900E946801B7010E9454016D
:1003F000BC01C8010E9475018A859B850E94940FEB
:10040000E82E888599850E94940FF82E8E819F8111
:100410000E94940FEC81FD812E2D4F2D682F80813D
:100420000E943A0160E070E00E945401D801ED9111
:10043000FC91BC01828193810E947501DF91CF9173
:100440001F910F91FF90EF900895BF92CF92DF928E
:10045000EF92FF920F931F93CF93DF937C01EB01F9
:10046000B42EDC01CD90DC90F601028113818091E5
:100470000620882381F00E946801B6010E94540181
:10048000BC01C7010E947501D701ED91FC91028169
:10049000138110920620F801E080F1808A859B8507
:1004A0000E94940FC82E888599850E94940FD82E9B
:1004B0008E819F810E94940FEC81FD812C2D4D2D0A
:1004C000682F80810E943A01B7010E945401BC014B
:1004D000C8010E947501BB2019F081E080930620BD
:1004E000DF91CF911F910F91FF90EF90DF90CF9010
:1004F000BF900895E0916E20F0916F2080819181EE
:10050000848395830EC0828193810E94D301E09100
:100510006E20F0916F20A481B5818D919C91848390
:100520009583A0916E20B0916F201496ED91FC916F
:100530001597309741F7CD010E94D3010895CF93CD
:10054000DF9380E190E00E94730EEC0180E190E087
:100550000E94730E88839983FC01108280E190E0F1
:100560000E94730E8A839B83FC01108280E190E0DD
:100570000E94730E8C839D83FC01108280E190E0C9
:100580000E94730E8E839F83FC01108280E190E0B5
:100590000E94730E88879987FC01108280E190E0A9
:1005A0000E94730E8A879B87FC01108280E190E095
:1005B0000E94730E8E879F87FC011082CE01DF910F
:1005C000CF9108950F931F93CF93DF938C01EB018D
:1005D0000E941905BC01888199810E94B20F68812F
:1005E000798142E050E080911520909116200E9480
:1005F000B90F892B09F04EC0C8010E941905BC0132
:100600008A819B810E94B20FC8010E941905BC011A
:100610008C819D810E94B20FC8010E941905BC0106
:100620008E819F810E94B20FC8010E941905BC01F2
:10063000888599850E94B20FC8010E941905BC01E6
:100640008A859B850E94B20FC8010E941905BC01D2
:100650008C859D850E94B20FC8010E941905BC01BE
:100660008E859F850E94B20F6E857F8542E050E0A7
:1006700080911320909114200E94B90F892B29F4A6
:10068000C8010E944F0581E009C0C8010E944F05C2
:1006900080E004C0C8010E944F0580E0DF91CF9147
:1006A0001F910F910895CF93DF93FC01C281D381F5
:1006B00043E050E0BE0180911120909112200E94F1
:1006C000B90F892B71F143E050E0BE0180910F20FA
:1006D000909110200E94B90F892B29F143E050E03E
:1006E000BE0180910D2090910E200E94B90F892BA0
:1006F000E1F043E050E0BE0180910B2090910C208E
:100700000E94B90F892B99F043E050E0BE0180911F
:10071000092090910A200E94B90F892B51F482E0A0
:1007200009C086E007C085E005C084E003C083E01F
:1007300001C081E0DF91CF910895FC018081813378
:1007400031F0823331F0833331F483E0089581E076
:10075000089582E0089583E608950E94B6050895FD
:10076000CF93DF93EC0188E390E20E94B6058FEB14
:100770009AED0197F1F700C000008CE390E20E942F
:10078000B6059FEF28EA81E0915020408040E1F7D4
:1007900000C00000CE010E94B6058FEB9AED0197D4
:1007A000F1F700C0000084E490E20E94B6058FEBF0
:1007B0009AED0197F1F700C0000084E490E20E94F6
:1007C000B6058FEB9AED0197F1F700C0000084E4C5
:1007D00090E20E94B6058FEB9AED0197F1F700C009
:1007E000000084E490E20E94B6058FEB9AED019739
:1007F000F1F700C0000087E490E20E94B6058FEB9D
:100800009AED0197F1F700C0000081E0DF91CF91F0
:100810000895E0916620F0916720858980FF80C06F
:100820006091622070916320CF010E94E2028823D0
:1008300009F472C080916220909163200E9453035A
:100840008330E1F128F4813061F0823041F1089584
:10085000853009F453C008F441C0863009F455C00E
:100860000895E0916220F0916320848195810E9437
:100870009D03823051F0833069F0813009F050C01F
:100880008BE490E20E94B00308958EE490E20E940F
:10089000B003089581E590E20E94B003089560914D
:1008A00062207091632080916E2090916F200E9451
:1008B000E8018BE490E20E94B00308956091622009
:1008C0007091632040E080916E2090916F200E9493
:1008D00025028BE490E20E94B003089560916220AB
:1008E0007091632041E080916E2090916F200E9472
:1008F00025028BE490E20E94B003089584E590E223
:100900000E94B0030E94AB0A089587E590E20E941E
:10091000B0030E94B80A08958AE590E20E94B003ED
:100920000895CF93DF9386E090E00E94730EEC0170
:1009300060E180916620909167200E94C5048093B9
:1009400066209093672022E043E060E676E080EA4C
:1009500099E00E946F0580916220909163200E942F
:100960009F02809362209093632089E094E08C83BF
:100970009D838DEA93E08883998380EB93E08A835B
:100980009B83CE01DF91CF910895EF92FF920F9359
:100990001F93CF93DF93062F86E190E00E94730EA2
:1009A0007C0110E00FC0C12FD0E0802F90E00E94AA
:1009B000730ECC0FDD1FCE0DDF1D88839983FC01E4
:1009C00010821F5F193078F3802F90E00E94730E21
:1009D000F701828B938BFC011082F701148A8589C1
:1009E0008E7F8260858BC701DF91CF911F910F9120
:1009F000FF90EF900895CF93DF93EC01EC89E930FD
:100A000060F481E08E0F8C8BF0E0EE0FFF1FEC0F97
:100A1000FD1F808191810E94B20F8D898D7F8D8B0A
:100A20008C89883019F48D8981608D8BDF91CF910D
:100A300008951F93CF93DF93EC01688179818A89B0
:100A40009B890E94B20F10E014C0812F90E0FC013E
:100A50003196EE0FFF1FEC0FFD1F60817181880F33
:100A6000991FFE01E80FF91F808191810E94B20F4A
:100A70001F5F8C89181748F3882311F081508C8BE5
:100A80008D898E7F8D8B8C89811103C08D898260C9
:100A90008D8B8A899B89DF91CF911F910895DC010D
:100AA00090E00BC0E92FF0E0EE0FFF1FEA0FFB1FF5
:100AB0000190F081E02D10829F5F993098F352965B
:100AC000ED91FC915397108254961C925497559631
:100AD0008C9155978E7F826055968C930895FB017B
:100AE00080936A2090936B2081E090E0BC0102C06B
:100AF000660F771F4A95E2F76583618302C0880F0E
:100B0000991F2A95E2F78283E0916A20F0916B2089
:100B10008CE0868380E4878383E0858380E283831F
:100B2000A0EAB0E012968C911297826012968C9394
:100B300084818861848380E006C0E82FF0E0EE586D
:100B4000FF4D10828F5F8031C0F380E190E00E9402
:100B5000730E809382209093832080E190E00E9426
:100B6000730E80937020909371200895BC01809142
:100B70007020909171200E94B20FE0916A20F09154
:100B80006B20838182608383089590EE980F9F3558
:100B900050F4E091692091E09E0F90936920F0E07D
:100BA000EE58FF4D80838D3031F0882321F0809105
:100BB00069208D30D0F0A0916920E1E0EA0FB0E02B
:100BC000AE58BF4D8AE08C9381E08E0FF0E0EE5876
:100BD000FF4D9DE09083E82FF0E0EE58FF4D10822E
:100BE0001092692082E790E2089580E090E00895F5
:100BF0001F920F920FB60F92112408B60F9218BED3
:100C00000BB60F921BBE8F939F93EF93FF93909120
:100C10006820E0917020F0917120E90FF11D808132
:100C2000882331F0803298F48A3089F08D3079F061
:100C3000E0916A20F0916B201082E0916A20F0919F
:100C40006B2083818D7F83831092682008C0E091A0
:100C50006A20F0916B209F5F909368208083FF91C2
:100C6000EF919F918F910F900BBE0F9008BE0F9048
:100C70000FBE0F901F9018951F920F920FB60F92F4
:100C8000112408B60F9218BE09B60F9219BE0BB602
:100C90000F921BBE2F933F934F935F936F937F935E
:100CA0008F939F93AF93BF93EF93FF93E0916A204D
:100CB000F0916B2080810E94C505809382209093E3
:100CC0008320009759F0BC018091662090916720A5
:100CD0000E94FB041092822010928320FF91EF91DA
:100CE000BF91AF919F918F917F916F915F914F9144
:100CF0003F912F910F900BBE0F9009BE0F9008BE31
:100D00000F900FBE0F901F901895CF92DF92EF9229
:100D1000FF921F93CF93DF93182FEB0189899A8954
:100D20002B89289FB001299F700D112480E090E04D
:100D30000E94780D2C893D894E895F890E94060E9C
:100D400020E030E044EB53E40E94D70C6B017C01BF
:100D5000612F70E080E090E00E947A0DA70196017B
:100D60000E94060E0E94490DCB01DF91CF911F9189
:100D7000FF90EF90DF90CF900895FC018089816013
:100D8000808BA385B48581E090E0058402C0880F44
:100D9000991F0A94E2F715968C930184F285E02D51
:100DA00060830895FC01A681B7816C93838581607F
:100DB0008387A085B18581E090E0028402C0880F1E
:100DC000991F0A94E2F711968C930895FC0180898B
:100DD0008E7F808BA385B48581E090E0058402C07E
:100DE000880F991F0A94E2F716968C930184F28576
:100DF000E02D10820895FC0183858E7F8387A08576
:100E0000B18581E090E0028402C0880F991F0A94A6
:100E1000E2F712968C93A0918E20B0918F201B96B2
:100E20008C9180FD0CC0A0918C20B0918D201B96E0
:100E30008C9180FD04C00680F781E02D108208951A
:100E4000682F70E080E090E00E947A0D2DE33AE098
:100E500047E951E40E94060E20E030EC4FE055E4F3
:100E60000E946B0C0E94490DCB010895DC011B967A
:100E7000ED91FC911C97158208958F929F92AF92ED
:100E8000BF92CF92DF92EF92FF920F93CF93DF93B7
:100E9000EB015A01490181E290E00E94730EFC01CE
:100EA0001282138285E590E0808391838AE590E049
:100EB0008483958386EA9FEF86839783108686E0F6
:100EC000858785E0868784E0878780898E7F808B11
:100ED000C187D287A386B486818A928A038BC48A0B
:100EE000D58AE68AF78A86E9808F80E2D501119655
:100EF0008C93119780E411968C93119780E1119651
:100F00008C93188291E099838981806189839E8383
:100F10008DEB96E0818F928F86EE96E0838F948F93
:100F200086E397E0858F968F85E896E0878F90A37C
:100F3000A0EAB0E012968C911297816012968C9381
:100F4000CF01DF91CF910F91FF90EF90DF90CF9085
:100F5000BF90AF909F908F900895EF92FF921F9354
:100F6000CF93DF93EB017A01122F82E190E00E9490
:100F7000730EFC01E086F186C683D78383858E7F5E
:100F800083878AE590E0828393831482158210829E
:100F900011821287212F30E081E090E0AC0102C085
:100FA000440F551F1A95E2F7D70112964C934981C9
:100FB00045604983A98167E070E0621B730BAC0157
:100FC00002C0440F551F6A95E2F74A2B49834F81AF
:100FD0002F5F3F4F02C0880F991F2A95E2F7842B9D
:100FE0008F8380E49CE98EA39FA382ED96E08487A3
:100FF00095878BEF96E08687978780E297E0808BD6
:10100000918BA0EAB0E012968C91129782601296B2
:101010008C93CF01DF91CF911F91FF90EF900895B6
:10102000CF92DF92EF92FF921F93CF93DF93EC0169
:10103000162F89899A892B89289FB001299F700DC5
:10104000112480E090E00E94780D2C893D894E8922
:101050005F890E94060E6B017C0169E8169F612D75
:10106000112462956695677070E080E090E00E94C0
:101070007A0D9B01AC01C701B6010E94060E0984DE
:10108000DA85C02D20E030E040E851E40E94060EF1
:101090009B01AC0160E074E284EF9BE40E94D70CFA
:1010A00020E030E040E85FE30E946A0C0E94490DB6
:1010B00068A779A7DF91CF911F91FF90EF90DF9004
:1010C000CF9008950F931F93CF93DF93EC01042FDC
:1010D000122F0E941008EF8DF8A1BE01802F1995E4
:1010E000888399831887DF91CF911F910F9108957D
:1010F000CF93DF93EC01862FE889F98919958883CE
:101100009983DF91CF91089584E090E00E94730E5F
:10111000FC0110821182128213820895CF92DF9215
:10112000EF92FF920F930F2EC12CD12CF0E8EF2EEF
:10113000FFE3FF2EF02D00E128EC30E040EA56E01E
:1011400060E47BE080918820909189200E943D0797
:10115000809388209093892028EC30E040E856E086
:1011600060E47AE080918A2090918B200E943D0774
:1011700080938A2090938B2028EC30E040E656E064
:1011800060E479E080919020909191200E943D0749
:10119000809390209093912028EC30E040E456E03A
:1011A00060E478E080918420909185200E943D0742
:1011B000809384209093852020E040E456E060E016
:1011C00078E080918C2090918D200E94AD078093D3
:1011D0008C2090938D2021E040E456E060E078E0A0
:1011E00080918E2090918F200E94AD0780938E2059
:1011F00090938F200E94840880938620909387206C
:101200000F91FF90EF90DF90CF900895CF93DF93F1
:10121000EC0184E090E00E94730EFC0110821182C8
:10122000C283D383DF91CF9108951F93CF93DF9330
:10123000EC01162F83E090E00E94730EFC011083F6
:10124000C183D283DF91CF911F910895CF93DF9314
:10125000EC01CB01642F0E9415090E9406092A8126
:101260003B81232B41F48A839B8388839983FC01F0
:101270001082118207C028813981FC0120833183CB
:1012800088839983DF91CF910895FC0190819334F5
:10129000E1F128F4913469F0923409F1089594351C
:1012A00009F472C09A3509F446C0973409F07EC03B
:1012B00058C0238121704181628180918820909162
:1012C00089200E946208609188207091892040E006
:1012D00080918620909187200E942609089523817D
:1012E00021704181628180918A2090918B200E949F
:1012F000620860918A2070918B2040E08091862066
:10130000909187200E9426090895238121704181B0
:10131000628180919020909191200E94620860915A
:1013200090207091912040E08091862090918720BC
:101330000E94260908952381217041816281809154
:101340008420909185200E94620860918420709191
:10135000852040E080918620909187200E94260978
:101360000895618180918C2090918D200E94780851
:1013700060918C2070918D2041E080918620909129
:1013800087200E9426090895618180918E20909186
:101390008F200E94780860918E2070918F2041E00C
:1013A00080918620909187200E9426090895EF92CF
:1013B000FF920F931F93CF93DF93DC0112962D9131
:1013C0003C911397232BD1F1EC0183E090E00E9434
:1013D000730E8C01E881F981A281B3818C91D801CF
:1013E0008C93A281B38111968D919C911297D80113
:1013F00011968D939C931297E080F1800280F38187
:10140000E02D11821282E881F981828193810E940C
:101410000B0FE881F98112821382E881F981108231
:101420001182888199810E940B0FE882F982EF284E
:1014300041F41A821B82802F912F05C080E090E03A
:1014400002C0802F912FDF91CF911F910F91FF90BC
:10145000EF900895CF93DF93E0918620F09187205D
:1014600082819381892B71F1F89441E028C00E9418
:10147000D709EC01888181110AC089819A81DC0138
:101480005996ED91FC915A9764E0199509C08981AC
:101490009A81DC011C96ED91FC911D9764E01995F1
:1014A00019821A82CE010E940B0F809186209091A2
:1014B0008720FC012281338140E0232BC1F64111BA
:1014C000F4CF7894DF91CF9108951F920F920FB6C9
:1014D0000F92112408B60F9218BE0F9008BE0F90FD
:1014E0000FBE0F901F90189527E0FC0120830895F0
:1014F000FC0110820895CF93DF93EC0182E090E02D
:101500008EA39FA318A219A2CE010E94780A81E09F
:101510008E83E0EAF0E0828181608283DF91CF9167
:101520000895CF93DF93FC0124813581232B79F03B
:101530000E949301EC0105C0CE010E949F010E9410
:1015400045098C819D81892BB9F781E001C080E03C
:10155000DF91CF91089580911720909118200E94DB
:101560007B0A80911720909118200E94740A089598
:1015700080911720909118200E94780A0895CF93A7
:10158000DF93EB0120916C20211103C00E94910A8E
:1015900001C080E090916C20911102C0882341F03D
:1015A0000E942A0A81E080936D2080936C2013C0F2
:1015B000811111C080916D20882349F010926D2017
:1015C0000E947A028EE590E2FE01199504C08AE538
:1015D00090E2FE011995DF91CF9108951F920F922D
:1015E0000FB60F92112408B60F9218BE09B60F92CB
:1015F00019BE0BB60F921BBE2F933F934F935F9371
:101600006F937F938F939F93AF93BF93EF93FF93CA
:1016100060EB73E080916E2090916F200E94BF0A72
:101620000E94B80AFF91EF91BF91AF919F918F9166
:101630007F916F915F914F913F912F910F900BBED2
:101640000F9009BE0F9008BE0F900FBE0F901F9015
:1016500018951F93CF93DF93EC01142F0E941A0C5F
:1016600060E8CE010E94200C612FCE010E94200C68
:1016700060E8CE010E94200C612FCE010E94200C58
:10168000CE010E94260CDF91CF911F9108950F93F8
:101690001F93CF93DF93EC01142F022F0E941A0C9B
:1016A00060E8CE010E94200C612FCE010E94200C28
:1016B00060E8CE010E94200C612FCE010E94200C18
:1016C000602FCE010E94200CCE010E94260CDF91DB
:1016D000CF911F910F910895CF93DF93EC0124E1F7
:1016E0004DE868E70E94470B4FEA68E7CE010E9489
:1016F000290BDF91CF910895CF93DF93EC0123E085
:101700004AED68E70E94470B48EC68E7CE010E946B
:10171000290B22E040E268E7CE010E94470B40EB34
:1017200068E7CE010E94290B40E068E7CE010E94E5
:10173000290B40E168E7CE010E94290B40E468E7ED
:10174000CE010E94290B41EA68E7CE010E94290BD5
:10175000CE010E946C0BDF91CF9108951F93CF9320
:10176000DF93EC01142F0E941A0C60ECCE010E9452
:10177000200C612FCE010E94200CCE010E94260C6D
:10178000DF91CF911F9108950F931F93CF938C01F9
:10179000C62F405568E70E94290B4C2F4F7068E711
:1017A000C8010E94290B4C2F42954F70405F68E79B
:1017B000C8010E94290BCF911F910F910895CF92DC
:1017C000DF92FF920F931F93CF93DF938C01F62E3E
:1017D000C12CD12C14C04C2D60E0C8010E94C40B58
:1017E000C0E0D0E006C04F2D68E7C8010E94AE0BF4
:1017F0002196C038D105B8F38FEFC81AD80A88E00F
:10180000C816D10440F3DF91CF911F910F91FF9043
:10181000DF90CF900895FC0165838281816082838F
:101820008181886081838181806C818384818160F2
:1018300084830895FC016683948195FFFDCF08950C
:10184000FC016783948195FFFDCF0895FC0193818E
:101850009360938308950E945D0C63E28091192048
:1018600090911A200E940B0C8091192090911A20BF
:101870000E947C0B6AEA8091192090911A200E94A4
:10188000DF0B0E948E080E94680180936E20909367
:101890006F2080916420909165200E949104809334
:1018A0006420909365207894E0916420F091652005
:1018B0000480F581E02D1995F7CF82E080935000E8
:1018C0008091510081FFFCCF88ED84BF81E080933F
:1018D000400008955058BB27AA270E94820C0C9400
:1018E000CC0D0E94BE0D38F00E94C50D20F039F4D9
:1018F0009F3F19F426F40C94BB0D0EF4E095E7FB22
:101900000C94B50DE92F0E94DD0D58F3BA1762074C
:1019100073078407950720F079F4A6F50C94FF0D62
:101920000EF4E0950B2EBA2FA02D0B01B9019001FA
:101930000C01CA01A0011124FF27591B99F0593F3E
:1019400050F4503E68F11A16F040A22F232F342F86
:101950004427585FF3CF469537952795A795F040D4
:101960005395C9F77EF41F16BA0B620B730B840BE9
:10197000BAF09150A1F0FF0FBB1F661F771F881FA1
:10198000C2F70EC0BA0F621F731F841F48F48795F9
:1019900077956795B795F7959E3F08F0B0CF9395EB
:1019A000880F08F09927EE0F9795879508950E9464
:1019B000EB0C0C94CC0D0E94C50D58F00E94BE0D8E
:1019C00040F029F45F3F29F00C94B50D51110C94AF
:1019D000000E0C94BB0D0E94DD0D68F39923B1F34A
:1019E000552391F3951B550BBB27AA276217730745
:1019F000840738F09F5F5F4F220F331F441FAA1FD9
:101A0000A9F335D00E2E3AF0E0E832D09150504094
:101A1000E695001CCAF72BD0FE2F29D0660F771F42
:101A2000881FBB1F261737074807AB07B0E809F028
:101A3000BB0B802DBF01FF2793585F4F3AF09E3FAD
:101A4000510578F00C94B50D0C94000E5F3FE4F353
:101A5000983ED4F3869577956795B795F7959F5FF0
:101A6000C9F7880F911D9695879597F90895E1E03C
:101A7000660F771F881FBB1F621773078407BA079B
:101A800020F0621B730B840BBA0BEE1F88F7E095F6
:101A900008950E94E50D88F09F5798F0B92F992777
:101AA000B751B0F0E1F0660F771F881F991F1AF049
:101AB000BA95C9F714C0B13091F00E94FF0DB1E0A2
:101AC00008950C94FF0D672F782F8827B85F39F0A1
:101AD000B93FCCF3869577956795B395D9F73EF4E2
:101AE00090958095709561957F4F8F4F9F4F08958A
:101AF000E89409C097FB3EF49095809570956195A8
:101B00007F4F8F4F9F4F9923A9F0F92F96E9BB275D
:101B10009395F695879577956795B795F111F8CFD9
:101B2000FAF4BB0F11F460FF1BC06F5F7F4F8F4F44
:101B30009F4F16C0882311F096E911C0772321F03A
:101B40009EE8872F762F05C0662371F096E8862FD2
:101B500070E060E02AF09A95660F771F881FDAF729
:101B6000880F9695879597F9089597F99F6780E86C
:101B700070E060E008959FEF80EC089500240A94DF
:101B80001616170618060906089500240A94121658
:101B90001306140605060895092E0394000C11F48B
:101BA000882352F0BB0F40F4BF2B11F460FF04C038
:101BB0006F5F7F4F8F4F9F4F089557FD9058440F91
:101BC000551F59F05F3F71F04795880F97FB991F9C
:101BD00061F09F3F79F08795089512161306140659
:101BE000551FF2CF4695F1DF08C0161617061806E6
:101BF000991FF1CF86957105610508940895E894C1
:101C0000BB2766277727CB0197F908950E94190E05
:101C10000C94CC0D0E94BE0D38F00E94C50D20F032
:101C2000952311F00C94B50D0C94BB0D11240C945C
:101C3000000E0E94DD0D70F3959FC1F3950F50E0EB
:101C4000551F629FF001729FBB27F00DB11D639F6E
:101C5000AA27F00DB11DAA1F649F6627B00DA11D14
:101C6000661F829F2227B00DA11D621F739FB00DBA
:101C7000A11D621F839FA00D611D221F749F33272A
:101C8000A00D611D231F849F600D211D822F762FC3
:101C90006A2F11249F5750409AF0F1F088234AF0A0
:101CA000EE0FFF1FBB1F661F771F881F915050400C
:101CB000A9F79E3F510580F00C94B50D0C94000ED1
:101CC0005F3FE4F3983ED4F3869577956795B79593
:101CD000F795E7959F5FC1F7FE2B880F911D9695AD
:101CE000879597F908950F931F93CF93DF938230D1
:101CF000910510F482E090E0E0919420F09195201D
:101D000020E030E0A0E0B0E0309719F1408151814F
:101D10000281138148175907C8F08417950769F4A1
:101D2000109731F012960C93129713961C9327C0BC
:101D3000009394201093952022C02115310519F0AD
:101D40004217530718F49A01BD01EF01DF01F801B2
:101D5000DBCF21153105F9F0281B390B2430310573
:101D600080F48A819B816115710521F0FB018283DA
:101D7000938304C08093942090939520FE01329623
:101D800044C0FE01E20FF31F819391932250310969
:101D9000288339833AC02091922030919320232BBD
:101DA00041F420910220309103202093922030931F
:101DB000932020910020309101202115310541F41C
:101DC0002DB73EB74091042050910520241B350BC0
:101DD000E0919220F0919320E217F307A0F42E1BDC
:101DE0003F0B2817390778F0AC014E5F5F4F24177F
:101DF000350748F04E0F5F1F409392205093932079
:101E00008193919302C0E0E0F0E0CF01DF91CF91A8
:101E10001F910F910895CF93DF93009709F481C02C
:101E2000FC01329712821382A0919420B0919520E8
:101E3000109781F420813181820F931F209192208D
:101E4000309193202817390751F5E0939220F093B1
:101E5000932067C0ED0120E030E0CE17DF0740F4AB
:101E60004A815B819E0141155105F1F0EA01F5CFF0
:101E7000C283D38340815181840F951FC817D9072E
:101E800059F488819981840F951F029680839183EC
:101E90008A819B81828393832115310529F4E09304
:101EA0009420F09395203DC0E901EA83FB8349919A
:101EB0005991C40FD51FEC17FD0761F48081918102
:101EC000840F951F0296E90188839983828193810B
:101ED0008A839B83E0E0F0E012968D919C911397AA
:101EE000009719F0FD01DC01F7CF8D919C911197BE
:101EF0009D012E5F3F4F820F931F209192203091C2
:101F000093202817390769F4309729F41092942008
:101F10001092952002C012821382A0939220B09357
:101F20009320DF91CF910895FC0188279927E894A9
:101F300021912032E9F3293010F02E30C8F32B32F2
:101F400041F02D3239F4689404C00E94C70F820F0B
:101F5000911D219120532A30C0F31EF49095819554
:101F60009F4F0895FB01DC0101900D920020E1F7E5
:101F70000895FB01DC014150504030F08D910190FB
:101F8000801919F40020B9F7881B990B08957AE09D
:101F9000979F902D879F802D910D11240895F8947F
:021FA000FFCF71
:101FA200000096202000011B202220282027202E1E
:101FB200202D2032203520000B80045354415455EB
:101FC20053004D4F564500455441534B00454A4F2F
:101FD200420045460053460053460A0053544154BA
:101FE20055530A00300A0045460A00310A00320AF7
:101FF20000330A00340A00350A0039390A00360A69
:022002000000DC
:00000001FF
