:100000000C9404010C942A010C942A010C942A01EA
:100010000C942A010C942A010C942A010C942A01B4
:100020000C942A010C942A010C942A010C942A01A4
:100030000C942A010C942A010C942A010C942A0194
:100040000C942A010C942A010C942A010C942A0184
:100050000C942A010C942A010C942A010C942A0174
:100060000C942A010C942A010C942A010C942A0164
:100070000C942A010C942A010C942A010C942A0154
:100080000C942A010C942A010C942A010C942A0144
:100090000C942A010C942A010C942A010C942A0134
:1000A0000C942A010C942A010C942A010C942A0124
:1000B0000C942A010C942A010C942A010C942A0114
:1000C0000C942A010C942A010C942A010C942A0104
:1000D0000C942A010C942A010C942A010C942A01F4
:1000E0000C942A010C942A010C942A010C942A01E4
:1000F0000C942A010C94F3030C94AF030C942A0182
:100100000C942A010C942A010C942A010C942A01C3
:100110000C942A010C942A010C942A010C942A01B3
:100120000C942A010C942A010C942A010C942A01A3
:100130000C942A010C942A010C942A010C942A0193
:100140000C942A010C942A010C942A010C942A0183
:100150000C942A010C942A010C942A010C942A0173
:100160000C942A010C942A010C942A010C942A0163
:100170000C942A010C942A010C942A010C942A0153
:100180000C942A010C942A010C942A010C942A0143
:100190000C942A010C942A010C942A010C942A0133
:1001A0000C942A010C942A010C942A010C942A0123
:1001B0000C942A010C942A010C942A010C942A0113
:1001C0000C942A010C942A010C942A010C942A0103
:1001D0000C942A010C942A010C942A010C942A01F3
:1001E0000C942A010C942A010C942A010C942A01E3
:1001F0000C942A010C942A010C942A010C94E0011D
:100200000C94F4010C94E30111241FBECFEFCDBF79
:10021000DFE3DEBF00E00CBF18BE19BE1ABE1BBE76
:1002200010E2A0E0B0E2E0ECFEE000E00BBF02C0B4
:1002300007900D92AE33B107D9F71BBE20E2AEE3B3
:10024000B0E201C01D92A836B207E1F70E94BD04DA
:100250000C945E070C940000CF93DF9380E190E054
:100260000E942806EC0180E190E00E942806888325
:100270009983FC01108280E190E00E9428068A8325
:100280009B83FC01108280E190E00E9428068C8311
:100290009D83FC01108280E190E00E9428068E83FD
:1002A0009F83FC01108280E190E00E9428068887ED
:1002B0009987FC01108280E190E00E9428068A87DD
:1002C0009B87FC01108280E190E00E9428068E87C7
:1002D0009F87FC011082CE01DF91CF9108950F938B
:1002E0001F93CF93DF938C01EB010E94D502BC01D9
:1002F000888199810E9449076881798142E050E0B4
:1003000080910820909109200E945007892B09F0C4
:100310004EC0C8010E94D502BC018A819B810E9407
:100320004907C8010E94D502BC018C819D810E94B1
:100330004907C8010E94D502BC018E819F810E949D
:100340004907C8010E94D502BC01888599850E9491
:100350004907C8010E94D502BC018A859B850E947D
:100360004907C8010E94D502BC018C859D850E9469
:100370004907C8010E94D502BC018E859F850E9455
:1003800049076E857F8542E050E08091062090917C
:1003900007200E945007892B29F4C8010E940B03F3
:1003A00081E009C0C8010E940B0380E004C0C801BD
:1003B0000E940B0380E0DF91CF911F910F91089570
:1003C0000E946D030895E0914220F09143209589A9
:1003D000892F817090FF07C060913E2070913F206F
:1003E000CF010E946F010895CF93DF93EC0187E264
:1003F00090E20E946D038FEB9AED0197F1F700C038
:1004000000008BE290E20E946D039FEF28EA81E0FA
:10041000915020408040E1F700C00000CE010E94D2
:100420006D038FEB9AED0197F1F700C0000083E3B5
:1004300090E20E946D038FEB9AED0197F1F700C0F7
:10044000000083E390E20E946D038FEB9AED019729
:10045000F1F700C0000083E390E20E946D038FEB90
:100460009AED0197F1F700C0000083E390E20E944B
:100470006D038FEB9AED0197F1F700C0000086E362
:1004800090E20E946D038FEB9AED0197F1F700C0A7
:10049000000081E0DF91CF910895CF93DF9386E054
:1004A00090E00E942806EC0160E18091422090914A
:1004B00043200E948102809342209093432026E0B3
:1004C00047E060E876E080EB9AE00E942B038091A1
:1004D0003E2090913F200E942C0180933E209093DB
:1004E0003F2083EE91E08C839D8380EE91E08883B2
:1004F000998384EF91E08A839B83CE01DF91CF9132
:100500000895EF92FF920F931F93CF93DF93062FDF
:1005100086E190E00E9428067C0110E00FC0C12F08
:10052000D0E0802F90E00E942806CC0FDD1FCE0D7A
:10053000DF1D88839983FC0110821F5F193078F3D7
:10054000802F90E00E942806F701828B938BFC019C
:100550001082F701148A85898E7F8260858BC7019E
:10056000DF91CF911F910F91FF90EF900895CF935E
:10057000DF93EC01EC89E93060F481E08E0F8C8B25
:10058000F0E0EE0FFF1FEC0FFD1F808191810E94B4
:1005900049078D898D7F8D8B8C89883019F48D89E1
:1005A00081608D8BDF91CF9108951F93CF93DF935F
:1005B000EC01688179818A899B890E94490710E052
:1005C00014C0812F90E0FC013196EE0FFF1FEC0F5D
:1005D000FD1F60817181880F991FFE01E80FF91FCF
:1005E000808191810E9449071F5F8C89181748F309
:1005F000882311F081508C8B8D898E7F8D8B8C8917
:10060000811103C08D8982608D8B8A899B89DF91DE
:10061000CF911F910895DC0190E00BC0E92FF0E02D
:10062000EE0FFF1FEA0FFB1F0190F081E02D1082FB
:100630009F5F993098F35296ED91FC9153971082F9
:1006400054961C92549755968C9155978E7F826044
:1006500055968C930895FB018093462090934720F4
:1006600081E090E0BC0102C0660F771F4A95E2F777
:100670006583618302C0880F991F2A95E2F7828300
:10068000E0914620F09147208CE0868380E48783C8
:1006900083E0858380E2838382E08093A20084816B
:1006A0008861848380E006C0E82FF0E0E65BFF4DC0
:1006B00010828F5F8031C0F380E190E00E942806B5
:1006C00080935A2090935B2080E190E00E9428065E
:1006D00080934820909349200895BC018091482040
:1006E000909149200E944907E0914620F0914720CF
:1006F000838182608383089590EE980F9F3550F434
:10070000E091452091E09E0F90934520F0E0E65B5C
:10071000FF4D80838D3031F0882321F0809145207A
:100720008D30D0F0A0914520E1E0EA0FB0E0A65B6B
:10073000BF4D8AE08C9381E08E0FF0E0E65BFF4DC9
:100740009DE09083E82FF0E0E65BFF4D1082109271
:1007500045208AE490E2089580E090E008951F9299
:100760000F920FB60F92112408B60F9218BE0BB657
:100770000F921BBE8F939F93EF93FF939091442012
:10078000E0914820F0914920E90FF11D80818823F4
:1007900031F0803298F48A3089F08D3079F0E09130
:1007A0004620F09147201082E0914620F0914720AA
:1007B00083818D7F83831092442008C0E09146207E
:1007C000F09147209F5F909344208083FF91EF91A9
:1007D0009F918F910F900BBE0F9008BE0F900FBE90
:1007E0000F901F9018951F920F920FB60F92112421
:1007F00008B60F9218BE09B60F9219BE0BB60F922B
:100800001BBE2F933F934F935F936F937F938F9371
:100810009F93AF93BF93EF93FF93E0914620F091A6
:10082000472080810E947C0380935A2090935B2014
:10083000009759F0BC0180914220909143200E9482
:10084000B70210925A2010925B20FF91EF91BF9156
:10085000AF919F918F917F916F915F914F913F9158
:100860002F910F900BBE0F9009BE0F9008BE0F90F6
:100870000FBE0F901F90189584E090E00E9428060C
:1008800008950F931F93CF93DF938C01EB0184E0C6
:1008900090E00E942806FC0102831383C083D18369
:1008A000DF91CF911F910F91089587E090E00E9412
:1008B0002806FC011682148215821082118212828F
:1008C00013820895FC0182819381892B51F4628304
:1008D0007383DB011D921C928281938180839183BB
:1008E00007C080819181DB018D939C93608371832C
:1008F000808191818483958386818F5F868308952B
:100900000F931F93CF93DF93DC01ED91FC91309710
:10091000D1F0EC0100811181828193810E94C00697
:10092000E881F98110821182E881F98112821382B3
:10093000888199810E94C006088319830C831D83D6
:100940008E8181508E83DF91CF911F910F910895F9
:10095000CF93DF93EC0103C0CE010E948004888115
:100960009981892BC9F7188219821C821D821A82EB
:100970001B821E82DF91CF9108950E941B068091F9
:100980004020909141200E944D02809340209093FE
:1009900041200E94550480935C2090935D200E942A
:1009A000550460E070E00E944104BC0180915C202D
:1009B00090915D200E946204E0915C20F0915D20A6
:1009C0000190F081E02D8281938180935E2090934D
:1009D0005F200E943C0460E070E00E944104BC0182
:1009E00080915E2090915F200E946204E0915E20E1
:1009F000F0915F20C081D1810E943C04BE010E9421
:100A00004104BC0180915E2090915F200E946204AD
:100A1000E0915E20F0915F20C081D1810E943C0472
:100A2000BE010E944104BC0180915E2090915F2034
:100A30000E946204E0915E20F0915F20C081D1812C
:100A40000E943C04BE010E944104BC0180915E20D2
:100A500090915F200E946204E0915C20F0915D2003
:100A6000C081D1810E945504BE010E944104BC0195
:100A700080915C2090915D200E946204E0915C2056
:100A8000F0915D200190F081E02D8281938180932F
:100A90005E2090935F200E943C0460E070E00E9422
:100AA0004104BC0180915E2090915F200E9462040D
:100AB000E0915E20F0915F20C081D1810E943C04D2
:100AC000BE010E944104BC0180915E2090915F2094
:100AD0000E946204E0915E20F0915F20C081D1818C
:100AE0000E943C04BE010E944104BC0180915E2032
:100AF00090915F200E946204E0915E20F0915F205F
:100B0000C081D1810E943C04BE010E944104BC010D
:100B100080915E2090915F200E946204E0915C20B1
:100B2000F0915D20C081D1810E945504BE010E94D8
:100B30004104BC0180915C2090915D200E94620480
:100B4000E0915C20F0915D200190F081E02D8281A8
:100B5000938180935E2090935F200E943C0460E02C
:100B600070E00E944104BC0180915E2090915F2062
:100B70000E946204E0915E20F0915F20C081D181EB
:100B80000E943C04BE010E944104BC0180915E2091
:100B900090915F200E946204E0915E20F0915F20BE
:100BA000C081D1810E943C04BE010E944104BC016D
:100BB00080915E2090915F200E946204E0915E200F
:100BC000F0915F20C081D1810E943C04BE010E944F
:100BD0004104BC0180915E2090915F200E946204DC
:100BE000E0915C20F0915D200190F081E02D828108
:100BF00093810E94A80480915C2090915D200E94C6
:100C0000800410925E2010925F207894E091402042
:100C1000F09141200480F581E02D19958130B1F7E4
:100C2000E0914020F09141200280F381E02D8AE3A1
:100C300090E21995EBCF82E08093500080915100B3
:100C400081FFFCCF88ED84BF81E080934000089550
:100C50000F931F93CF93DF938230910510F482E0BE
:100C600090E0E0916620F091672020E030E0A0E085
:100C7000B0E0309719F1408151810281138148170A
:100C80005907C8F08417950769F4109731F0129648
:100C90000C93129713961C9327C000936620109311
:100CA000672022C02115310519F04217530718F4A7
:100CB0009A01BD01EF01DF01F801DBCF21153105FC
:100CC000F9F0281B390B2430310580F48A819B818F
:100CD0006115710521F0FB018283938304C0809329
:100CE000662090936720FE01329644C0FE01E20F19
:100CF000F31F8193919322503109288339833AC09D
:100D00002091642030916520232B41F42091022012
:100D1000309103202093642030936520209100209F
:100D2000309101202115310541F42DB73EB7409196
:100D3000042050910520241B350BE0916420F09194
:100D40006520E217F307A0F42E1B3F0B2817390785
:100D500078F0AC014E5F5F4F2417350748F04E0F17
:100D60005F1F40936420509365208193919302C04C
:100D7000E0E0F0E0CF01DF91CF911F910F91089556
:100D8000CF93DF93009709F481C0FC013297128260
:100D90001382A0916620B0916720109781F4208182
:100DA0003181820F931F2091642030916520281794
:100DB000390751F5E0936420F093652067C0ED0199
:100DC00020E030E0CE17DF0740F44A815B819E01CE
:100DD00041155105F1F0EA01F5CFC283D38340817B
:100DE0005181840F951FC817D90759F488819981BB
:100DF000840F951F0296808391838A819B818283D1
:100E000093832115310529F4E0936620F093672040
:100E10003DC0E901EA83FB8349915991C40FD51F75
:100E2000EC17FD0761F480819181840F951F029674
:100E3000E90188839983828193818A839B83E0E09F
:100E4000F0E012968D919C911397009719F0FD0197
:100E5000DC01F7CF8D919C9111979D012E5F3F4F43
:100E6000820F931F20916420309165202817390745
:100E700069F4309729F4109266201092672002C01E
:100E800012821382A0936420B0936520DF91CF91EA
:100E90000895FB01DC0101900D920020E1F7089517
:100EA000FB01DC014150504030F08D9101908019E0
:100EB00019F40020B9F7881B990B0895F894FFCF17
:100EC0000000682020002120242053544154555311
:100ED000004D4F564500455441534B00454A4F4243
:100EE0000045460053460053460A005354415455AA
:0E0EF000530A00300A0045460A00310A00008D
:00000001FF
