:100000000C94FE000C941B010C941B010C941B011E
:100010000C941B010C941B010C941B010C941B01F0
:100020000C941B010C941B010C941B010C941B01E0
:100030000C941B010C941B010C941B010C941B01D0
:100040000C941B010C941B010C941B010C941B01C0
:100050000C941B010C941B010C941B010C941B01B0
:100060000C941B010C941B010C941B010C941B01A0
:100070000C941B010C941B010C941B010C941B0190
:100080000C941B010C941B010C941B010C941B0180
:100090000C941B010C941B010C941B010C941B0170
:1000A0000C941B010C941B010C941B010C941B0160
:1000B0000C941B010C941B010C941B010C941B0150
:1000C0000C941B010C941B010C941B010C941B0140
:1000D0000C941B010C941B010C941B010C941B0130
:1000E0000C941B010C941B010C941B010C941B0120
:1000F0000C941B010C941B010C941B010C941B0110
:100100000C941B010C941B010C941B010C941B01FF
:100110000C941B010C941B010C941B010C941B01EF
:100120000C941B010C941B010C941B010C941B01DF
:100130000C941B010C941B010C941B010C941B01CF
:100140000C941B010C941B010C941B010C941B01BF
:100150000C941B010C941B010C941B010C941B01AF
:100160000C941B010C941B010C941B010C94DA03DE
:100170000C94A0030C941B010C941B010C941B0108
:100180000C941B010C941B010C941B010C941B017F
:100190000C941B010C941B010C941B010C941B016F
:1001A0000C941B010C941B010C941B010C941B015F
:1001B0000C941B010C941B010C941B010C941B014F
:1001C0000C941B010C941B010C941B010C941B013F
:1001D0000C941B010C941B010C941B010C941B012F
:1001E0000C941B010C941B010C941B010C941B011F
:1001F0000C941B010C941B010C941B0111241FBEB9
:10020000CFEFCDBFD7E2DEBF10E2A0E0B0E2E2E286
:10021000FDE002C005900D92A034B107D9F720E2AD
:10022000A0E4B0E201C01D92A236B207E1F70E943D
:1002300016050C948F060C940000CF93DF9380E199
:1002400090E00E945905EC0180E190E00E94590580
:1002500088839983FC01108280E190E00E94590517
:100260008A839B83FC01108280E190E00E94590503
:100270008C839D83FC01108280E190E00E945905EF
:100280008E839F83FC01108280E190E00E945905DB
:1002900088879987FC01108280E190E00E945905CF
:1002A0008A879B87FC01108280E190E00E945905BB
:1002B0008E879F87FC011082CE01DF91CF91089538
:1002C0000F931F93CF93DF938C01EB010E94C60223
:1002D000BC01888199810E947A066881798142E017
:1002E00050E080910820909109200E948106892B7E
:1002F00009F04EC0C8010E94C602BC018A819B81E0
:100300000E947A06C8010E94C602BC018C819D81B0
:100310000E947A06C8010E94C602BC018E819F819C
:100320000E947A06C8010E94C602BC018885998590
:100330000E947A06C8010E94C602BC018A859B857C
:100340000E947A06C8010E94C602BC018C859D8568
:100350000E947A06C8010E94C602BC018E859F8554
:100360000E947A066E857F8542E050E080910620EB
:10037000909107200E948106892B29F4C8010E94D0
:10038000FC0281E009C0C8010E94FC0280E004C0B8
:10039000C8010E94FC0280E0DF91CF911F910F9174
:1003A00008950E945E030895E0914420F091452055
:1003B0009589892F817090FF07C0609140207091CE
:1003C0004120CF010E9460010895CF93DF93EC019B
:1003D00089E290E20E945E038FEB9AED0197F1F7BC
:1003E00000C000008DE290E20E945E039FEF28EAC9
:1003F00081E0915020408040E1F700C00000CE0134
:100400000E945E038FEB9AED0197F1F700C00000A8
:1004100085E390E20E945E038FEB9AED0197F1F77E
:1004200000C0000085E390E20E945E038FEB9AED2E
:100430000197F1F700C0000085E390E20E945E039F
:100440008FEB9AED0197F1F700C0000085E390E291
:100450000E945E038FEB9AED0197F1F700C0000058
:1004600088E390E20E945E038FEB9AED0197F1F72B
:1004700000C0000081E0DF91CF910895CF93DF931A
:1004800086E090E00E945905EC0160E180914420F3
:10049000909145200E9472028093442090934520C1
:1004A00026E047E060E676E080EB99E00E941C03DE
:1004B00080914020909141200E941D018093402016
:1004C0009093412084ED91E08C839D8381ED91E0B8
:1004D0008883998385EE91E08A839B83CE01DF91A7
:1004E000CF910895EF92FF920F931F93CF93DF93D5
:1004F000062F86E190E00E9459057C0110E00FC0B4
:10050000C12FD0E0802F90E00E945905CC0FDD1F55
:10051000CE0DDF1D88839983FC0110821F5F193087
:1005200078F3802F90E00E945905F701828B938B1E
:10053000FC011082F701148A85898E7F8260858B89
:10054000C701DF91CF911F910F91FF90EF90089518
:10055000CF93DF93EC01EC89E93060F481E08E0FFA
:100560008C8BF0E0EE0FFF1FEC0FFD1F808191815F
:100570000E947A068D898D7F8D8B8C89883019F445
:100580008D8981608D8BDF91CF9108951F93CF93DB
:10059000DF93EC01688179818A899B890E947A06C0
:1005A00010E014C0812F90E0FC013196EE0FFF1F88
:1005B000EC0FFD1F60817181880F991FFE01E80F0C
:1005C000F91F808191810E947A061F5F8C8918171C
:1005D00048F3882311F081508C8B8D898E7F8D8B11
:1005E0008C89811103C08D8982608D8B8A899B895A
:1005F000DF91CF911F910895DC0190E00BC0E92FAE
:10060000F0E0EE0FFF1FEA0FFB1F0190F081E02DDD
:1006100010829F5F993098F35296ED91FC91539719
:10062000108254961C92549755968C9155978E7FB4
:10063000826055968C930895FB0180934820909397
:10064000492081E090E0BC0102C0660F771F4A9507
:10065000E2F76583618302C0880F991F2A95E2F74C
:100660008283E0914820F09149208CE0868380E4E9
:10067000878383E0858380E2838382E08093A20086
:1006800084818861848380E006C0E82FF0E0E45B29
:10069000FF4D10828F5F8031C0F380E190E00E94B7
:1006A000590580935C2090935D2080E190E00E944A
:1006B000590580934A2090934B200895BC01809166
:1006C0004A2090914B200E947A06E0914820F091B8
:1006D0004920838182608383089590EE980F9F352F
:1006E00050F4E091472091E09E0F90934720F0E076
:1006F000E45BFF4D80838D3031F0882321F08091C1
:1007000047208D30D0F0A0914720E1E0EA0FB0E023
:10071000A45BBF4D8AE08C9381E08E0FF0E0E45B38
:10072000FF4D9DE09083E82FF0E0E45BFF4D1082E9
:10073000109247208CE490E2089580E090E00895C4
:100740001F920F920FB60F9211248F939F93EF93E6
:10075000FF9390914620E0914A20F0914B20E90FC1
:10076000F11D8081882331F0803298F48A3089F03D
:100770008D3079F0E0914820F09149201082E0918D
:100780004820F091492083818D7F838310924620F9
:1007900008C0E0914820F09149209F5F9093462047
:1007A0008083FF91EF919F918F910F900FBE0F90DB
:1007B0001F9018951F920F920FB60F9211242F932E
:1007C0003F934F935F936F937F938F939F93AF93D9
:1007D000BF93EF93FF93E0914820F09149208081EF
:1007E0000E946D0380935C2090935D20009759F0E8
:1007F000BC0180914420909145200E94A802109253
:100800005C2010925D20FF91EF91BF91AF919F917D
:100810008F917F916F915F914F913F912F910F90A9
:100820000FBE0F901F9018951F93CF93DF93EC018D
:10083000142F0E94050560E8CE010E940B05612F70
:10084000CE010E940B0560E8CE010E940B05612FCE
:10085000CE010E940B05CE010E941105DF91CF91C0
:100860001F9108950F931F93CF93DF93EC01142FE3
:10087000022F0E94050560E8CE010E940B05612F42
:10088000CE010E940B0560E8CE010E940B05612F8E
:10089000CE010E940B05602FCE010E940B05CE01F8
:1008A0000E941105DF91CF911F910F910895CF9371
:1008B000DF93EC0124E14DE868E70E9432044FEA3F
:1008C00068E7CE010E941404DF91CF910895CF9381
:1008D000DF93EC0123E04AED68E70E94320448EC24
:1008E00068E7CE010E94140422E040E268E7CE01EE
:1008F0000E94320440EB68E7CE010E94140440E0FD
:1009000068E7CE010E94140440E168E7CE010E942E
:10091000140440E468E7CE010E94140441EA68E749
:10092000CE010E941404CE010E945704DF91CF91A2
:1009300008951F93CF93DF93EC01142F0E940505B8
:1009400060ECCE010E940B05612FCE010E940B05C9
:10095000CE010E941105DF91CF911F9108950F9351
:100960001F93CF938C01C62F405568E70E94140453
:100970004C2F4F7068E7C8010E9414044C2F429519
:100980004F70405F68E7C8010E941404CF911F9127
:100990000F910895CF92DF92FF920F931F93CF9301
:1009A000DF938C01F62EC12CD12C14C04C2D60E0AD
:1009B000C8010E94AF04C0E0D0E006C04F2D68E738
:1009C000C8010E9499042196C038D105B8F38FEF71
:1009D000C81AD80A88E0C816D10440F3DF91CF9135
:1009E0001F910F91FF90DF90CF900895FC016583D8
:1009F0008281816082838181886081838181806C32
:100A000081838481816084830895FC01668394815D
:100A100095FFFDCF0895FC016783948195FFFDCF7D
:100A20000895FC0193819360938308950E944C057F
:100A300063E280910A2090910B200E94F60480913D
:100A40000A2090910B200E9467046AEA80910A2094
:100A500090910B200E94CA048091422090914320E3
:100A60000E943E0280934220909343207894E0912C
:100A70004220F09143200480F581E02D09958130DA
:100A8000B1F7E0914220F09143200280F381E02D04
:100A90008CE390E20995EBCF82E080935000809147
:100AA000510081FFFCCF88ED84BF81E0809340003E
:100AB00008950F931F93CF93DF938230910510F425
:100AC00082E090E0E0916020F091612020E030E051
:100AD000A0E0B0E0309719F140815181028113818B
:100AE00048175907C8F08417950769F4109731F033
:100AF00012960C93129713961C9327C000936020B4
:100B00001093612022C02115310519F042175307B7
:100B100018F49A01BD01EF01DF01F801DBCF2115C7
:100B20003105F9F0281B390B2430310580F48A8116
:100B30009B816115710521F0FB018283938304C0C1
:100B40008093602090936120FE01329644C0FE01A4
:100B5000E20FF31F81939193225031092883398347
:100B60003AC020915E2030915F20232B41F42091E8
:100B700002203091032020935E2030935F2020914B
:100B80000020309101202115310541F42DB73EB7E9
:100B90004091042050910520241B350BE0915E20EC
:100BA000F0915F20E217F307A0F42E1B3F0B2817EC
:100BB000390778F0AC014E5F5F4F2417350748F0D6
:100BC0004E0F5F1F40935E2050935F20819391935F
:100BD00002C0E0E0F0E0CF01DF91CF911F910F91D3
:100BE0000895CF93DF93009709F481C0FC013297F9
:100BF00012821382A0916020B0916120109781F43D
:100C000020813181820F931F20915E2030915F20DF
:100C10002817390751F5E0935E20F0935F2067C0F5
:100C2000ED0120E030E0CE17DF0740F44A815B8120
:100C30009E0141155105F1F0EA01F5CFC283D3833E
:100C400040815181840F951FC817D90759F48881B5
:100C50009981840F951F0296808391838A819B815D
:100C6000828393832115310529F4E0936020F0936A
:100C700061203DC0E901EA83FB8349915991C40F8A
:100C8000D51FEC17FD0761F480819181840F951FBA
:100C90000296E90188839983828193818A839B8369
:100CA000E0E0F0E012968D919C911397009719F077
:100CB000FD01DC01F7CF8D919C9111979D012E5F75
:100CC0003F4F820F931F20915E2030915F202817A5
:100CD000390769F4309729F410926020109261204E
:100CE00002C012821382A0935E20B0935F20DF9136
:100CF000CF910895FB01DC0101900D920020E1F7F6
:100D00000895FB01DC014150504030F08D9101907D
:100D1000801919F40020B9F7881B990B0895F894ED
:020D2000FFCF03
:100D220000006220200023202620800453544154D6
:100D32005553004D4F564500455441534B00454ACB
:100D42004F420045460053460053460A0053544161
:100D52005455530A00300A0045460A00310A000081
:00000001FF
