:100000000C94FE000C941B010C941B010C941B011E
:100010000C941B010C941B010C941B010C941B01F0
:100020000C941B010C941B010C941B010C941B01E0
:100030000C941B010C941B010C941B010C941B01D0
:100040000C941B010C941B010C941B010C941B01C0
:100050000C941B010C941B010C941B010C941B01B0
:100060000C941B010C941B010C941B010C941B01A0
:100070000C941B010C941B010C941B010C941B0190
:100080000C941B010C941B010C941B010C941B0180
:100090000C941B010C941B010C941B010C941B0170
:1000A0000C941B010C941B010C941B010C941B0160
:1000B0000C941B010C941B010C941B010C941B0150
:1000C0000C941B010C941B010C941B010C941B0140
:1000D0000C941B010C941B010C941B010C941B0130
:1000E0000C941B010C941B010C941B010C941B0120
:1000F0000C941B010C941B010C941B010C941B0110
:100100000C941B010C941B010C941B010C941B01FF
:100110000C941B010C941B010C941B010C941B01EF
:100120000C941B010C941B010C941B010C941B01DF
:100130000C941B010C941B010C941B010C941B01CF
:100140000C941B010C941B010C941B010C941B01BF
:100150000C941B010C941B010C941B010C941B01AF
:100160000C941B010C941B010C941B010C94DA03DE
:100170000C94A0030C941B010C941B010C941B0108
:100180000C941B010C941B010C941B010C941B017F
:100190000C941B010C941B010C941B010C941B016F
:1001A0000C941B010C941B010C941B010C941B015F
:1001B0000C941B010C941B010C941B010C941B014F
:1001C0000C941B010C941B010C941B010C941B013F
:1001D0000C941B010C941B010C941B010C941B012F
:1001E0000C941B010C941B010C941B010C941B011F
:1001F0000C941B010C941B010C941B0111241FBEB9
:10020000CFEFCDBFD7E2DEBF10E2A0E0B0E2E4E97D
:10021000FDE002C005900D92AE33B107D9F720E2A0
:10022000AEE3B0E201C01D92AE37B207E1F70E9423
:1002300085040C94C8060C940000CF93DF9380E1F2
:1002400090E00E949205EC0180E190E00E9492050E
:1002500088839983FC01108280E190E00E949205DE
:100260008A839B83FC01108280E190E00E949205CA
:100270008C839D83FC01108280E190E00E949205B6
:100280008E839F83FC01108280E190E00E949205A2
:1002900088879987FC01108280E190E00E94920596
:1002A0008A879B87FC01108280E190E00E94920582
:1002B0008E879F87FC011082CE01DF91CF91089538
:1002C0000F931F93CF93DF938C01EB010E94C60223
:1002D000BC01888199810E94B3066881798142E0DE
:1002E00050E080910820909109200E94BA06892B45
:1002F00009F04EC0C8010E94C602BC018A819B81E0
:100300000E94B306C8010E94C602BC018C819D8177
:100310000E94B306C8010E94C602BC018E819F8163
:100320000E94B306C8010E94C602BC018885998557
:100330000E94B306C8010E94C602BC018A859B8543
:100340000E94B306C8010E94C602BC018C859D852F
:100350000E94B306C8010E94C602BC018E859F851B
:100360000E94B3066E857F8542E050E080910620B2
:10037000909107200E94BA06892B29F4C8010E9497
:10038000FC0281E009C0C8010E94FC0280E004C0B8
:10039000C8010E94FC0280E0DF91CF911F910F9174
:1003A00008950E945E030895E0914220F091432059
:1003B0009589892F817090FF07C060913E207091D0
:1003C0003F20CF010E9460010895CF93DF93EC019D
:1003D00087E290E20E945E038FEB9AED0197F1F7BE
:1003E00000C000008BE290E20E945E039FEF28EACB
:1003F00081E0915020408040E1F700C00000CE0134
:100400000E945E038FEB9AED0197F1F700C00000A8
:1004100083E390E20E945E038FEB9AED0197F1F780
:1004200000C0000083E390E20E945E038FEB9AED30
:100430000197F1F700C0000083E390E20E945E03A1
:100440008FEB9AED0197F1F700C0000083E390E293
:100450000E945E038FEB9AED0197F1F700C0000058
:1004600086E390E20E945E038FEB9AED0197F1F72D
:1004700000C0000081E0DF91CF910895CF93DF931A
:1004800086E090E00E949205EC0160E180914220BC
:10049000909143200E9472028093422090934320C7
:1004A00026E047E060E676E080EB99E00E941C03DE
:1004B00080913E2090913F200E941D0180933E201C
:1004C00090933F2084ED91E08C839D8381ED91E0BA
:1004D0008883998385EE91E08A839B83CE01DF91A7
:1004E000CF910895EF92FF920F931F93CF93DF93D5
:1004F000062F86E190E00E9492057C0110E00FC07B
:10050000C12FD0E0802F90E00E949205CC0FDD1F1C
:10051000CE0DDF1D88839983FC0110821F5F193087
:1005200078F3802F90E00E949205F701828B938BE5
:10053000FC011082F701148A85898E7F8260858B89
:10054000C701DF91CF911F910F91FF90EF90089518
:10055000CF93DF93EC01EC89E93060F481E08E0FFA
:100560008C8BF0E0EE0FFF1FEC0FFD1F808191815F
:100570000E94B3068D898D7F8D8B8C89883019F40C
:100580008D8981608D8BDF91CF9108951F93CF93DB
:10059000DF93EC01688179818A899B890E94B30687
:1005A00010E014C0812F90E0FC013196EE0FFF1F88
:1005B000EC0FFD1F60817181880F991FFE01E80F0C
:1005C000F91F808191810E94B3061F5F8C891817E3
:1005D00048F3882311F081508C8B8D898E7F8D8B11
:1005E0008C89811103C08D8982608D8B8A899B895A
:1005F000DF91CF911F910895DC0190E00BC0E92FAE
:10060000F0E0EE0FFF1FEA0FFB1F0190F081E02DDD
:1006100010829F5F993098F35296ED91FC91539719
:10062000108254961C92549755968C9155978E7FB4
:10063000826055968C930895FB0180934620909399
:10064000472081E090E0BC0102C0660F771F4A9509
:10065000E2F76583618302C0880F991F2A95E2F74C
:100660008283E0914620F09147208CE0868380E4ED
:10067000878383E0858380E2838382E08093A20086
:1006800084818861848380E006C0E82FF0E0E65B27
:10069000FF4D10828F5F8031C0F380E190E00E94B7
:1006A000920580935A2090935B2080E190E00E9415
:1006B000920580934820909349200895BC01809131
:1006C0004820909149200E94B306E0914620F09185
:1006D0004720838182608383089590EE980F9F3531
:1006E00050F4E091452091E09E0F90934520F0E07A
:1006F000E65BFF4D80838D3031F0882321F08091BF
:1007000045208D30D0F0A0914520E1E0EA0FB0E027
:10071000A65BBF4D8AE08C9381E08E0FF0E0E65B34
:10072000FF4D9DE09083E82FF0E0E65BFF4D1082E7
:10073000109245208AE490E2089580E090E00895C8
:100740001F920F920FB60F9211248F939F93EF93E6
:10075000FF9390914420E0914820F0914920E90FC7
:10076000F11D8081882331F0803298F48A3089F03D
:100770008D3079F0E0914620F09147201082E09191
:100780004620F091472083818D7F838310924420FF
:1007900008C0E0914620F09147209F5F909344204D
:1007A0008083FF91EF919F918F910F900FBE0F90DB
:1007B0001F9018951F920F920FB60F9211242F932E
:1007C0003F934F935F936F937F938F939F93AF93D9
:1007D000BF93EF93FF93E0914620F09147208081F3
:1007E0000E946D0380935A2090935B20009759F0EC
:1007F000BC0180914220909143200E94A802109257
:100800005A2010925B20FF91EF91BF91AF919F9181
:100810008F917F916F915F914F913F912F910F90A9
:100820000FBE0F901F9018950F931F93CF93DF93D8
:10083000C82F062F142FD22F84E090E00E9492053B
:10084000FC01018312838381D0FB80F98383C08301
:10085000CF01DF91CF911F910F9108950F931F93B7
:10086000CF93DF938C01EB0184E090E00E9492052E
:10087000FC0102831383C083D183DF91CF911F9149
:100880000F91089587E090E00E949205FC01168286
:100890001482158210821182128213820895FC0143
:1008A00082819381892B51F462837383DB011D92D2
:1008B0001C92828193818083918307C08081918182
:1008C000DB018D939C93608371838081918184830C
:1008D000958386818F5F86830895FC01A481B5810D
:1008E00012968D919C9113972D913C912483358381
:1008F0000895FC01A481B58112968D919C91139766
:100900002D913C912483358308950E948505809123
:100910004020909141200E943E028093402090937D
:10092000412020E04FE56DE28AE50E9414048093A7
:100930006C2090936D2021E045E063E481E40E9407
:100940001404809374209093752021E044E36CE5B7
:1009500082E40E94140480935C2090935D2020E048
:100960004BE56DE083E40E94140480936E20909325
:100970006F200E94420480936820909369200E9417
:10098000420480937820909379200E9442048093BF
:1009900070209093712060E070E080916C209091C5
:1009A0006D200E942E04809360209093612060E06F
:1009B00070E080917420909175200E942E048093A5
:1009C0006A2090936B2060E070E080915C209091B1
:1009D0005D200E942E04809376209093772060E023
:1009E00070E080916E2090916F200E942E04809381
:1009F0005E2090935F2060916020709161208091D3
:100A00007820909179200E944F0460916A20709123
:100A10006B2080917020909171200E944F04609112
:100A200076207091772080917020909171200E94A3
:100A30004F0460915E2070915F20809170209091B2
:100A400071200E944F0460E070E0809178209091C6
:100A500079200E942E04809366209093672060E0A6
:100A600070E080917020909171200E942E048093FC
:100A7000722090937320609166207091672080911E
:100A80006820909169200E944F04609172207091BB
:100A9000732080916820909169200E944F0416C0B5
:100AA0000E946D04809362209093632006C00E9490
:100AB00079048093642090936520809162209091C6
:100AC0006320FC0124813581232B89F780916820E4
:100AD00090916920FC0124813581232B09F77894BA
:100AE000E0914020F09141200480F581E02D0995AE
:100AF0008130B1F7E0914020F09141200280F381F4
:100B0000E02D8AE390E20995EBCF82E080935000DC
:100B10008091510081FFFCCF88ED84BF81E08093FC
:100B2000400008950F931F93CF93DF938230910578
:100B300010F482E090E0E0917C20F0917D2020E0B4
:100B400030E0A0E0B0E0309719F14081518102819E
:100B5000138148175907C8F08417950769F410974F
:100B600031F012960C93129713961C9327C00093A2
:100B70007C2010937D2022C02115310519F04217E9
:100B8000530718F49A01BD01EF01DF01F801DBCF33
:100B900021153105F9F0281B390B2430310580F47B
:100BA0008A819B816115710521F0FB01828393830A
:100BB00004C080937C2090937D20FE01329644C037
:100BC000FE01E20FF31F8193919322503109288394
:100BD00039833AC020917A2030917B20232B41F435
:100BE000209102203091032020937A2030937B20A3
:100BF00020910020309101202115310541F42DB7BD
:100C00003EB74091042050910520241B350BE09104
:100C10007A20F0917B20E217F307A0F42E1B3F0B04
:100C20002817390778F0AC014E5F5F4F241735075E
:100C300048F04E0F5F1F40937A2050937B208193A2
:100C4000919302C0E0E0F0E0CF01DF91CF911F91DE
:100C50000F910895CF93DF93009709F481C0FC01B1
:100C6000329712821382A0917C20B0917D20109740
:100C700081F420813181820F931F20917A2030915D
:100C80007B202817390751F5E0937A20F0937B20D9
:100C900067C0ED0120E030E0CE17DF0740F44A8165
:100CA0005B819E0141155105F1F0EA01F5CFC28348
:100CB000D38340815181840F951FC817D90759F4F8
:100CC00088819981840F951F0296808391838A8100
:100CD0009B81828393832115310529F4E0937C2045
:100CE000F0937D203DC0E901EA83FB83499159914E
:100CF000C40FD51FEC17FD0761F480819181840F2B
:100D0000951F0296E90188839983828193818A8362
:100D10009B83E0E0F0E012968D919C9113970097F1
:100D200019F0FD01DC01F7CF8D919C9111979D0188
:100D30002E5F3F4F820F931F20917A2030917B20AE
:100D40002817390769F4309729F410927C20109203
:100D50007D2002C012821382A0937A20B0937B2060
:100D6000DF91CF910895FB01DC0101900D920020ED
:100D7000E1F70895FB01DC014150504030F08D91C6
:100D80000190801919F40020B9F7881B990B089578
:040D9000F894FFCF05
:100D940000007E2020002120242053544154555328
:100DA400004D4F564500455441534B00454A4F4270
:100DB4000045460053460053460A005354415455D7
:0E0DC400530A00300A0045460A00310A0000BA
:00000001FF
