:100000000C94FE000C941B010C941B010C941B011E
:100010000C941B010C941B010C941B010C941B01F0
:100020000C941B010C941B010C941B010C941B01E0
:100030000C941B010C941B010C941B010C941B01D0
:100040000C941B010C941B010C941B010C941B01C0
:100050000C941B010C941B010C941B010C941B01B0
:100060000C941B010C941B010C941B010C941B01A0
:100070000C941B010C941B010C941B010C941B0190
:100080000C941B010C941B010C941B010C941B0180
:100090000C941B010C941B010C941B010C941B0170
:1000A0000C941B010C941B010C941B010C941B0160
:1000B0000C941B010C941B010C941B010C941B0150
:1000C0000C941B010C941B010C941B010C941B0140
:1000D0000C941B010C941B010C941B010C941B0130
:1000E0000C941B010C941B010C941B010C941B0120
:1000F0000C941B010C941B010C941B010C941B0110
:100100000C941B010C941B010C941B010C941B01FF
:100110000C941B010C941B010C941B010C941B01EF
:100120000C941B010C941B010C941B010C941B01DF
:100130000C941B010C941B010C941B010C941B01CF
:100140000C941B010C941B010C941B010C941B01BF
:100150000C941B010C941B010C941B010C941B01AF
:100160000C941B010C941B010C941B010C945D0559
:100170000C9423050C941B010C941B010C941B0183
:100180000C941B010C941B010C941B010C941B017F
:100190000C941B010C941B010C941B010C941B016F
:1001A0000C941B010C941B010C941B010C941B015F
:1001B0000C941B010C941B010C941B010C941B014F
:1001C0000C941B010C941B010C941B010C941B013F
:1001D0000C941B010C941B010C941B010C941B012F
:1001E0000C941B010C941B010C941B010C941B011F
:1001F0000C941B010C941B010C941B0111241FBEB9
:10020000CFEFCDBFD7E2DEBF10E2A0E0B0E2E6E87C
:10021000FFE002C005900D92AA34B107D9F720E2A1
:10022000AAE4B0E201C01D92AE37B207E1F70E9426
:1002300097050C94C1070C9400000F931F93CF9364
:10024000DF93082F162FD42FC22F84E090E00E9456
:100250006506FC0100831183D2838381C0FB80F992
:100260008383CF01DF91CF911F910F9108950F9359
:100270001F93CF93DF938C01EB0184E090E00E9409
:100280006506FC0102831383C083D183DF91CF9184
:100290001F910F91089587E090E00E946506FC0190
:1002A000168214821582108211821282138208959E
:1002B000FC0182819381892B51F462837383DB017A
:1002C0001D921C92828193818083918307C08081DB
:1002D0009181DB018D939C936083718380819181F7
:1002E0008483958386818F5F86830895FC01A48132
:1002F000B58112968D919C9113972D913C912483F9
:1003000035830895FC01A481B58112968D919C914D
:1003100013972D913C912483358308950F931F9358
:10032000CF93DF93DC01ED91FC913097D1F0EC019C
:1003300000811181828193810E94FD06E881F9810B
:1003400010821182E881F981128213828881998159
:100350000E94FD06088319830C831D838E818150C2
:100360008E83DF91CF911F910F910895CF93DF93EB
:10037000EC0103C0CE010E948E0188819981892BF6
:10038000C9F7188219821C821D821A821B821E8262
:10039000DF91CF910895EF92FF920F931F93CF9328
:1003A000DF938C01EB01DC01ED90FC900E944B018E
:1003B000B7010E943701BC01C8010E9458018A851B
:1003C0009B850E948607E82E888599850E9486076E
:1003D000F82E8E819F810E948607EC81FD812E2D53
:1003E0004F2D682F80810E941D0160E070E00E9407
:1003F0003701D801ED91FC91BC01828193810E946B
:100400005801DF91CF911F910F91FF90EF900895C8
:10041000BF92CF92DF92EF92FF920F931F93CF93F1
:10042000DF937C01EB01B42EDC01CD90DC90F60172
:100430000281138180910620882381F00E944B0164
:10044000B6010E943701BC01C7010E945801D701C3
:10045000ED91FC910281138110920620F801E08059
:10046000F1808A859B850E948607C82E888599859C
:100470000E948607D82E8E819F810E948607EC817C
:10048000FD812C2D4D2D682F80810E941D01B7010B
:100490000E943701BC01C8010E945801BB2019F01D
:1004A00081E080930620DF91CF911F910F91FF9003
:1004B000EF90DF90CF90BF900895CF93DF9380E1CE
:1004C00090E00E946506EC0180E190E00E946506E4
:1004D00088839983FC01108280E190E00E94650688
:1004E0008A839B83FC01108280E190E00E94650674
:1004F0008C839D83FC01108280E190E00E94650660
:100500008E839F83FC01108280E190E00E9465064B
:1005100088879987FC01108280E190E00E9465063F
:100520008A879B87FC01108280E190E00E9465062B
:100530008E879F87FC011082CE01DF91CF910895B5
:100540000F931F93CF93DF938C01EB010E9449041B
:10055000BC01888199810E94A4076881798142E069
:1005600050E080911520909116200E94AB07892BB6
:1005700009F04EC0C8010E944904BC018A819B81D8
:100580000E94A407C8010E944904BC018C819D817E
:100590000E94A407C8010E944904BC018E819F816A
:1005A0000E94A407C8010E944904BC01888599855E
:1005B0000E94A407C8010E944904BC018A859B854A
:1005C0000E94A407C8010E944904BC018C859D8536
:1005D0000E94A407C8010E944904BC018E859F8522
:1005E0000E94A4076E857F8542E050E08091132031
:1005F000909114200E94AB07892B29F4C8010E9416
:100600007F0481E009C0C8010E947F0480E004C02B
:10061000C8010E947F0480E0DF91CF911F910F916C
:100620000895CF93DF93FC01C281D38143E050E072
:10063000BE0180911120909112200E94AB07892B5E
:1006400071F143E050E0BE0180910F2090911020A5
:100650000E94AB07892B29F143E050E0BE01809155
:100660000D2090910E200E94AB07892BE1F043E012
:1006700050E0BE0180910B2090910C200E94AB07AE
:10068000892B99F043E050E0BE01809109209091C0
:100690000A200E94AB07892B51F482E009C086E052
:1006A00007C085E005C084E003C083E001C081E0AD
:1006B000DF91CF910895E0914E20F0914F209589E0
:1006C000892F817090FD81E008950E94E1040895D2
:1006D000CF93DF93EC0184E390E20E94E1048FEB7F
:1006E0009AED0197F1F700C0000088E390E20E94C4
:1006F000E1049FEF28EA81E0915020408040E1F73B
:1007000000C00000CE010E94E1048FEB9AED01973A
:10071000F1F700C0000080E490E20E94E1048FEB5A
:100720009AED0197F1F700C0000080E490E20E948A
:10073000E1048FEB9AED0197F1F700C0000080E42F
:1007400090E20E94E1048FEB9AED0197F1F700C06F
:10075000000080E490E20E94E1048FEB9AED0197A3
:10076000F1F700C0000083E490E20E94E1048FEB07
:100770009AED0197F1F700C0000081E0DF91CF9181
:100780000895CF93DF9386E090E00E946506EC0128
:1007900060E180914E2090914F200E94F50380935C
:1007A0004E2090934F2026E047E060E676E080EB15
:1007B00099E00E949F0480914A2090914B200E94D2
:1007C0005D0280934A2090934B208BE593E08C83CD
:1007D0009D8385E693E08883998388E693E08A8306
:1007E0009B83CE01DF91CF910895EF92FF920F93FB
:1007F0001F93CF93DF93062F86E190E00E9465065A
:100800007C0110E00FC0C12FD0E0802F90E00E944B
:100810006506CC0FDD1FCE0DDF1D88839983FC019B
:1008200010821F5F193078F3802F90E00E946506D8
:10083000F701828B938BFC011082F701148A858962
:100840008E7F8260858BC701DF91CF911F910F91C1
:10085000FF90EF900895CF93DF93EC01EC89E9309E
:1008600060F481E08E0F8C8BF0E0EE0FFF1FEC0F39
:10087000FD1F808191810E94A4078D898D7F8D8BC2
:100880008C89883019F48D8981608D8BDF91CF91AF
:1008900008951F93CF93DF93EC01688179818A8952
:1008A0009B890E94A40710E014C0812F90E0FC01F6
:1008B0003196EE0FFF1FEC0FFD1F60817181880FD5
:1008C000991FFE01E80FF91F808191810E94A40702
:1008D0001F5F8C89181748F3882311F081508C8B87
:1008E0008D898E7F8D8B8C89811103C08D8982606B
:1008F0008D8B8A899B89DF91CF911F910895DC01AF
:1009000090E00BC0E92FF0E0EE0FFF1FEA0FFB1F96
:100910000190F081E02D10829F5F993098F35296FC
:10092000ED91FC915397108254961C9254975596D2
:100930008C9155978E7F826055968C930895FB011C
:10094000809352209093532081E090E0BC0102C03C
:10095000660F771F4A95E2F76583618302C0880FAF
:10096000991F2A95E2F78283E0915220F09153205B
:100970008CE0868380E4878383E0858380E28383C1
:1009800082E08093A20084818861848380E006C035
:10099000E82FF0E0EA5AFF4D10828F5F8031C0F3FC
:1009A00080E190E00E946506809366209093672026
:1009B00080E190E00E94650680935420909355203A
:1009C0000895BC0180915420909155200E94A40765
:1009D000E0915220F09153208381826083830895B7
:1009E00090EE980F9F3550F4E091512091E09E0FCA
:1009F00090935120F0E0EA5AFF4D80838D3031F022
:100A0000882321F0809151208D30D0F0A091512089
:100A1000E1E0EA0FB0E0AA5ABF4D8AE08C9381E092
:100A20008E0FF0E0EA5AFF4D9DE09083E82FF0E052
:100A3000EA5AFF4D10821092512086E590E2089507
:100A400080E090E008951F920F920FB60F9211244C
:100A50008F939F93EF93FF9390915020E0915420B8
:100A6000F0915520E90FF11D8081882331F080320B
:100A700098F48A3089F08D3079F0E0915220F0912D
:100A800053201082E0915220F091532083818D7F7A
:100A900083831092502008C0E0915220F09153209F
:100AA0009F5F909350208083FF91EF919F918F9152
:100AB0000F900FBE0F901F9018951F920F920FB6B8
:100AC0000F9211242F933F934F935F936F937F93D4
:100AD0008F939F93AF93BF93EF93FF93E091522037
:100AE000F091532080810E94F004809366209093BF
:100AF0006720009759F0BC0180914E2090914F20C3
:100B00000E942B041092662010926720FF91EF91B3
:100B1000BF91AF919F918F917F916F915F914F9115
:100B20003F912F910F900FBE0F901F9018950E942C
:100B3000580680914C2090914D200E94C1038093D3
:100B40004C2090934D207894E0914C20F0914D20D2
:100B50000480F581E02D09958130B1F760914A203C
:100B600070914B2080914E2090914F200E94A002C6
:100B700080914A2090914B200E941103823071F0A5
:100B800018F4813031F0E0CF8330A9F0843009F1DE
:100B9000DBCF87E490E20E946803D6CF60914A20C1
:100BA00070914B2088E690E20E94CB0187E490E2AE
:100BB0000E946803C9CF60914A2070914B2040E0A9
:100BC00088E690E20E94080287E490E20E946803AF
:100BD000BBCF60914A2070914B2041E088E690E2C3
:100BE0000E94080288E690E20E947601FC0197E0EC
:100BF000A3E7B0E201900D929A95E1F783E790E2C6
:100C00000E948201FC0180819181A281B381809345
:100C10006F2090937020A0937120B093722083E78F
:100C200090E20E948201FC0180819181A281B381C6
:100C300080936F2090937020A0937120B0937220C6
:100C400088E690E20E947601FC0197E0A3E7B0E21B
:100C500001900D929A95E1F783E790E20E9482015C
:100C6000FC0180819181A281B38180936F20909358
:100C70007020A0937120B093722087E490E20E94CC
:100C80006803C8E6D0E2E881F981828193810E94FD
:100C9000B601E881F9810190F081E02DE883F983C4
:100CA000828193810E94B601CE010E94B6014CCF91
:100CB00082E0809350008091510081FFFCCF88ED4D
:100CC00084BF81E08093400008950F931F93CF93DA
:100CD000DF938230910510F482E090E0E0917C2077
:100CE000F0917D2020E030E0A0E0B0E0309719F1F5
:100CF000408151810281138148175907C8F0841738
:100D0000950769F4109731F012960C931297139689
:100D10001C9327C000937C2010937D2022C02115B6
:100D2000310519F04217530718F49A01BD01EF017C
:100D3000DF01F801DBCF21153105F9F0281B390B54
:100D40002430310580F48A819B816115710521F081
:100D5000FB018283938304C080937C2090937D2049
:100D6000FE01329644C0FE01E20FF31F819391937E
:100D700022503109288339833AC020917A2030915A
:100D80007B20232B41F420910220309103202093DB
:100D90007A2030937B202091002030910120211572
:100DA000310541F42DB73EB7409104205091052004
:100DB000241B350BE0917A20F0917B20E217F3079A
:100DC000A0F42E1B3F0B2817390778F0AC014E5FBB
:100DD0005F4F2417350748F04E0F5F1F40937A206E
:100DE00050937B208193919302C0E0E0F0E0CF012B
:100DF000DF91CF911F910F910895CF93DF930097CB
:100E000009F481C0FC01329712821382A0917C20E8
:100E1000B0917D20109781F420813181820F931F42
:100E200020917A2030917B202817390751F5E093E3
:100E30007A20F0937B2067C0ED0120E030E0CE17F0
:100E4000DF0740F44A815B819E0141155105F1F0B5
:100E5000EA01F5CFC283D38340815181840F951F6E
:100E6000C817D90759F488819981840F951F029674
:100E7000808391838A819B818283938321153105AD
:100E800029F4E0937C20F0937D203DC0E901EA83C2
:100E9000FB8349915991C40FD51FEC17FD0761F4ED
:100EA00080819181840F951F0296E901888399833F
:100EB000828193818A839B83E0E0F0E012968D919A
:100EC0009C911397009719F0FD01DC01F7CF8D91EC
:100ED0009C9111979D012E5F3F4F820F931F209190
:100EE0007A2030917B202817390769F4309729F44C
:100EF00010927C2010927D2002C012821382A09357
:100F00007A20B0937B20DF91CF910895FC01882750
:100F10009927E89421912032E9F3293010F02E30FE
:100F2000C8F32B3241F02D3239F4689404C00E948A
:100F3000B907820F911D219120532A30C0F31EF46E
:100F4000909581959F4F0895FB01DC0101900D92D2
:100F50000020E1F70895FB01DC014150504030F0E2
:100F60008D910190801919F40020B9F7881B990B15
:100F700008957AE0979F902D879F802D910D1124E1
:060F80000895F894FFCF74
:100F860000007E2020000117201E20242023202A76
:100F96002029202E203120535441545553004D4FC3
:100FA600564500455441534B00454A4F420045467D
:100FB6000053460053460A005354415455530A0001
:0A0FC600300A0045460A00310A0017
:00000001FF
