:100000000C9404010C942A010C942A010C942A01EA
:100010000C942A010C942A010C942A010C942A01B4
:100020000C942A010C942A010C942A010C942A01A4
:100030000C942A010C942A010C942A010C942A0194
:100040000C942A010C942A010C942A010C942A0184
:100050000C94E2060C942A010C942A010C942A01B7
:100060000C942A010C942A010C942A010C942A0164
:100070000C942A010C942A010C942A010C942A0154
:100080000C942A010C942A010C942A010C942A0144
:100090000C942A010C942A010C942A010C942A0134
:1000A0000C942A010C942A010C942A010C942A0124
:1000B0000C942A010C942A010C942A010C942A0114
:1000C0000C942A010C942A010C942A010C942A0104
:1000D0000C942A010C942A010C942A010C942A01F4
:1000E0000C942A010C942A010C942A010C942A01E4
:1000F0000C942A010C9429060C94E5050C942A0111
:100100000C942A010C942A010C942A010C942A01C3
:100110000C942A010C942A010C942A010C942A01B3
:100120000C942A010C942A010C942A010C942A01A3
:100130000C942A010C942A010C942A010C942A0193
:100140000C942A010C942A010C942A010C942A0183
:100150000C942A010C942A010C942A010C942A0173
:100160000C942A010C942A010C942A010C942A0163
:100170000C942A010C942A010C942A010C942A0153
:100180000C942A010C942A010C942A010C942A0143
:100190000C942A010C942A010C942A010C942A0133
:1001A0000C942A010C942A010C942A010C942A0123
:1001B0000C942A010C942A010C942A010C942A0113
:1001C0000C942A010C942A010C942A010C942A0103
:1001D0000C942A010C942A010C942A010C942A01F3
:1001E0000C942A010C942A010C942A010C942A01E3
:1001F0000C942A010C942A010C942A010C94A20359
:100200000C94FB030C949F0311241FBECFEFCDBFB2
:10021000DFE3DEBF00E00CBF18BE19BE1ABE1BBE76
:1002200010E2A0E0B0E2E4E7F3E100E00BBF02C0BF
:1002300007900D92A036B107D9F71BBE20E2A0E6C9
:10024000B0E201C01D92A638B207E1F70E941F0874
:100250000C94B8090C9400000F931F93CF93DF9375
:10026000082F162FD42FC22F84E090E00E945C0844
:10027000FC0100831183D2838381C0FB80F98383D7
:10028000CF01DF91CF911F910F9108950F931F938D
:10029000CF93DF938C01EB0184E090E00E945C0837
:1002A000FC0102831383C083D183DF91CF911F911F
:1002B0000F91089587E090E00E945C08FC0116828F
:1002C0001482158210821182128213820895FC0119
:1002D00082819381892B51F462837383DB011D92A8
:1002E0001C92828193818083918307C08081918158
:1002F000DB018D939C9360837183808191818483E2
:10030000958386818F5F86830895FC01A481B581E2
:1003100012968D919C9113972D913C912483358356
:100320000895FC01A481B58112968D919C9113973B
:100330002D913C912483358308950F931F93CF9380
:10034000DF93DC01ED91FC913097D1F0EC0100815D
:100350001181828193810E94F408E881F9811082E1
:100360001182E881F98112821382888199810E9429
:10037000F408088319830C831D838E8181508E833A
:10038000DF91CF911F910F910895CF93DF93EC01EF
:1003900003C0CE010E949D0188819981892BC9F7F4
:1003A000188219821C821D821A821B821E82DF9192
:1003B000CF910895EF92FF920F931F93CF93DF9306
:1003C0008C01EB01DC01ED90FC900E945A01B70119
:1003D0000E944601BC01C8010E9467018A859B8575
:1003E0000E947D09E82E888599850E947D09F82E56
:1003F0008E819F810E947D09EC81FD812E2D4F2DE4
:10040000682F80810E942C0160E070E00E9446010C
:10041000D801ED91FC91BC01828193810E9467011A
:10042000DF91CF911F910F91FF90EF900895BF92B0
:10043000CF92DF92EF92FF920F931F93CF93DF93B0
:100440007C01EB01B42EDC01CD90DC90F601028141
:10045000138180910620882381F00E945A01B60101
:100460000E944601BC01C7010E946701D701ED91BE
:10047000FC910281138110920620F801E080F18046
:100480008A859B850E947D09C82E888599850E9452
:100490007D09D82E8E819F810E947D09EC81FD818E
:1004A0002C2D4D2D682F80810E942C01B7010E94B8
:1004B0004601BC01C8010E946701BB2019F081E020
:1004C00080930620DF91CF911F910F91FF90EF90C5
:1004D000DF90CF90BF900895E0916C20F0916D2057
:1004E00080819181848395830EC0828193810E9453
:1004F000C501E0916C20F0916D20A481B5818D91B2
:100500009C9184839583A0916C20B0916D2014966A
:10051000ED91FC911597309741F7CD010E94C501EF
:100520000895CF93DF9380E190E00E945C08EC0196
:1005300080E190E00E945C0888839983FC0110822E
:1005400080E190E00E945C088A839B83FC0110821A
:1005500080E190E00E945C088C839D83FC01108206
:1005600080E190E00E945C088E839F83FC011082F2
:1005700080E190E00E945C0888879987FC011082E6
:1005800080E190E00E945C088A879B87FC011082D2
:1005900080E190E00E945C088E879F87FC011082BA
:1005A000CE01DF91CF9108950F931F93CF93DF93E7
:1005B0008C01EB010E940B05BC01888199810E948E
:1005C0009B096881798142E050E0809115209091EB
:1005D00016200E94A209892B09F04EC0C8010E9472
:1005E0000B05BC018A819B810E949B09C8010E9466
:1005F0000B05BC018C819D810E949B09C8010E9452
:100600000B05BC018E819F810E949B09C8010E943D
:100610000B05BC01888599850E949B09C8010E9431
:100620000B05BC018A859B850E949B09C8010E941D
:100630000B05BC018C859D850E949B09C8010E9409
:100640000B05BC018E859F850E949B096E857F8569
:1006500042E050E080911320909114200E94A20962
:10066000892B29F4C8010E94410581E009C0C80115
:100670000E94410580E004C0C8010E94410580E05D
:10068000DF91CF911F910F910895CF93DF93FC01DC
:10069000C281D38143E050E0BE018091112090914E
:1006A00012200E94A209892B71F143E050E0BE01A3
:1006B00080910F20909110200E94A209892B29F18E
:1006C00043E050E0BE0180910D2090910E200E94E9
:1006D000A209892BE1F043E050E0BE0180910B209C
:1006E00090910C200E94A209892B99F043E050E0E0
:1006F000BE018091092090910A200E94A209892BB5
:1007000051F482E009C086E007C085E005C084E0BE
:1007100003C083E001C081E0DF91CF910895FC0127
:100720008081813331F0823331F0833331F483E0DF
:10073000089581E0089582E0089583E608950E9477
:10074000A3050895CF93DF93EC0186E390E20E9426
:10075000A3058FEB9AED0197F1F700C000008AE343
:1007600090E20E94A3059FEF28EA81E0915020408B
:100770008040E1F700C00000CE010E94A3058FEB8E
:100780009AED0197F1F700C0000082E490E20E9428
:10079000A3058FEB9AED0197F1F700C0000082E40A
:1007A00090E20E94A3058FEB9AED0197F1F700C04C
:1007B000000082E490E20E94A3058FEB9AED01977E
:1007C000F1F700C0000082E490E20E94A3058FEBE5
:1007D0009AED0197F1F700C0000085E490E20E94D5
:1007E000A3058FEB9AED0197F1F700C0000081E0BF
:1007F000DF91CF910895E0916420F0916520858983
:1008000080FF80C06091602070916120CF010E94C4
:10081000D402882309F472C08091602090916120F5
:100820000E9445038330E1F128F4813061F0823089
:1008300041F10895853009F453C008F441C0863071
:1008400009F455C00895E0916020F0916120848101
:1008500095810E948F03823051F0833069F081309E
:1008600009F050C089E490E20E94A20308958CE44C
:1008700090E20E94A20308958FE490E20E94A203F6
:100880000895609160207091612080916C2090911A
:100890006D200E94DA0189E490E20E94A20308958B
:1008A000609160207091612040E080916C20909177
:1008B0006D200E94170289E490E20E94A20308952D
:1008C000609160207091612041E080916C20909156
:1008D0006D200E94170289E490E20E94A20308950D
:1008E00082E590E20E94A2030E94A706089585E592
:1008F00090E20E94A2030E94B006089588E590E26B
:100900000E94A2030895CF93DF9386E090E00E94B7
:100910005C08EC0160E180916420909165200E9468
:10092000B704809364209093652026E047E060E858
:1009300076E080EB9AE00E946105809160209091C2
:1009400061200E94910280936020909361208BEF40
:1009500093E08C839D838FE993E08883998382EA77
:1009600093E08A839B83CE01DF91CF910895EF922C
:10097000FF920F931F93CF93DF93062F86E190E0B2
:100980000E945C087C0110E00FC0C12FD0E0802FD6
:1009900090E00E945C08CC0FDD1FCE0DDF1D888328
:1009A0009983FC0110821F5F193078F3802F90E04B
:1009B0000E945C08F701828B938BFC011082F70187
:1009C000148A85898E7F8260858BC701DF91CF91E4
:1009D0001F910F91FF90EF900895CF93DF93EC015B
:1009E000EC89E93060F481E08E0F8C8BF0E0EE0F43
:1009F000FF1FEC0FFD1F808191810E949B098D8953
:100A00008D7F8D8B8C89883019F48D8981608D8BD9
:100A1000DF91CF9108951F93CF93DF93EC0168810D
:100A200079818A899B890E949B0910E014C0812FDB
:100A300090E0FC013196EE0FFF1FEC0FFD1F60816F
:100A40007181880F991FFE01E80FF91F8081918144
:100A50000E949B091F5F8C89181748F3882311F0A7
:100A600081508C8B8D898E7F8D8B8C89811103C0F9
:100A70008D8982608D8B8A899B89DF91CF911F91AF
:100A80000895DC0190E00BC0E92FF0E0EE0FFF1FAE
:100A9000EA0FFB1F0190F081E02D10829F5F9930DB
:100AA00098F35296ED91FC915397108254961C92B4
:100AB000549755968C9155978E7F826055968C935E
:100AC0000895FB01809368209093692081E090E075
:100AD000BC0102C0660F771F4A95E2F76583618308
:100AE00002C0880F991F2A95E2F78283E09168205F
:100AF000F09169208CE0868380E4878383E085839E
:100B000080E2838382E08093A20084818861848371
:100B100080E006C0E82FF0E0E059FF4D10828F5FC3
:100B20008031C0F380E190E00E945C0880938020D7
:100B30009093812080E190E00E945C0880936E2079
:100B400090936F200895BC0180916E2090916F204A
:100B50000E949B09E0916820F09169208381826066
:100B60008383089590EE980F9F3550F4E0916720AD
:100B700091E09E0F90936720F0E0E059FF4D808355
:100B80008D3031F0882321F0809167208D30D0F0B6
:100B9000A0916720E1E0EA0FB0E0A059BF4D8AE0E4
:100BA0008C9381E08E0FF0E0E059FF4D9DE0908343
:100BB000E82FF0E0E059FF4D10821092672080E7A7
:100BC00090E2089580E090E008951F920F920FB692
:100BD0000F92112408B60F9218BE0BB60F921BBECF
:100BE0008F939F93EF93FF9390916620E0916E20F7
:100BF000F0916F20E90FF11D8081882331F0803260
:100C000098F48A3089F08D3079F0E0916820F09185
:100C100069201082E0916820F091692083818D7FA6
:100C200083831092662008C0E0916820F0916920CB
:100C30009F5F909366208083FF91EF919F918F91AA
:100C40000F900BBE0F9008BE0F900FBE0F901F901D
:100C500018951F920F920FB60F92112408B60F929B
:100C600018BE09B60F9219BE0BB60F921BBE2F937A
:100C70003F934F935F936F937F938F939F93AF9324
:100C8000BF93EF93FF93E0916820F09169208081FA
:100C90000E94B2058093802090938120009759F0A4
:100CA000BC0180916420909165200E94ED04109217
:100CB000802010928120FF91EF91BF91AF919F9181
:100CC0008F917F916F915F914F913F912F910F90F5
:100CD0000BBE0F9009BE0F9008BE0F900FBE0F9075
:100CE0001F90189527E0FC0120830895FC011082D5
:100CF0000895CF93DF93EC0182E090E08EA39FA351
:100D000018A219A2CE010E94760681E08E83E0EA45
:100D1000F0E0828181608283DF91CF910895CF934B
:100D2000DF93FC0124813581232B69F00E9485012A
:100D3000EC0103C0CE010E9491018C819D81892B21
:100D4000C9F781E001C080E0DF91CF91089580E490
:100D500098E00E94790680E498E00E947206089567
:100D600080E498E00E9476060895CF93DF93EB012C
:100D700020916A20211103C00E948F0601C080E0EB
:100D800090916A20911102C0882331F081E0809314
:100D90006B2080936A2013C0811111C080916B2059
:100DA000882349F010926B200E946C028CE590E23F
:100DB000FE01199504C088E590E2FE011995DF91C6
:100DC000CF9108951F920F920FB60F92112408B67B
:100DD0000F9218BE09B60F9219BE0BB60F921BBE2A
:100DE0002F933F934F935F936F937F938F939F9333
:100DF000AF93BF93EF93FF9362EA73E080916C200F
:100E000090916D200E94B5060E94B006FF91EF916F
:100E1000BF91AF919F918F917F916F915F914F9112
:100E20003F912F910F900BBE0F9009BE0F9008BEFF
:100E30000F900FBE0F901F9018951F93CF93DF93C5
:100E4000EC01142F0E940E0860E8CE010E941408E5
:100E5000612FCE010E94140860E8CE010E941408A0
:100E6000612FCE010E941408CE010E941A08DF9162
:100E7000CF911F9108950F931F93CF93DF93EC01B0
:100E8000142F022F0E940E0860E8CE010E94140861
:100E9000612FCE010E94140860E8CE010E94140860
:100EA000612FCE010E941408602FCE010E94140809
:100EB000CE010E941A08DF91CF911F910F910895E2
:100EC000CF93DF93EC0124E14DE868E70E943B07F4
:100ED0004FEA68E7CE010E941D07DF91CF91089588
:100EE000CF93DF93EC0123E04AED68E70E943B07D4
:100EF00048EC68E7CE010E941D0722E040E268E767
:100F0000CE010E943B0740EB68E7CE010E941D071F
:100F100040E068E7CE010E941D0740E168E7CE018E
:100F20000E941D0740E468E7CE010E941D0741EAC8
:100F300068E7CE010E941D07CE010E946007DF9185
:100F4000CF9108951F93CF93DF93EC01142F0E944C
:100F50000E0860ECCE010E941408612FCE010E94A1
:100F60001408CE010E941A08DF91CF911F910895B5
:100F70000F931F93CF938C01C62F405568E70E94B3
:100F80001D074C2F4F7068E7C8010E941D074C2FAA
:100F900042954F70405F68E7C8010E941D07CF91DE
:100FA0001F910F910895CF92DF92FF920F931F939D
:100FB000CF93DF938C01F62EC12CD12C14C04C2D75
:100FC00060E0C8010E94B807C0E0D0E006C04F2D25
:100FD00068E7C8010E94A2072196C038D105B8F37E
:100FE0008FEFC81AD80A88E0C816D10440F3DF9101
:100FF000CF911F910F91FF90DF90CF900895FC014A
:10100000658382818160828381818860818381811F
:10101000806C81838481816084830895FC01668370
:10102000948195FFFDCF0895FC016783948195FF1E
:10103000FDCF0895FC0193819360938308950E94EE
:101040004F0863E280911720909118200E94FF07BB
:1010500080911720909118200E9470076AEA809171
:101060001720909118200E94D3070E945A01809364
:101070006C2090936D2080916220909163200E945B
:10108000830480936220909363207894E09162209F
:10109000F09163200480F581E02D1995F7CF82E06F
:1010A000809350008091510081FFFCCF88ED84BF78
:1010B00081E08093400008950F931F93CF93DF93B7
:1010C0008230910510F482E090E0E0918420F0916C
:1010D000852020E030E0A0E0B0E0309719F14081B9
:1010E00051810281138148175907C8F08417950769
:1010F00069F4109731F012960C93129713961C9383
:1011000027C0009384201093852022C0211531052B
:1011100019F04217530718F49A01BD01EF01DF01DE
:10112000F801DBCF21153105F9F0281B390B2430EC
:10113000310580F48A819B816115710521F0FB01E5
:101140008283938304C08093842090938520FE0142
:10115000329644C0FE01E20FF31F81939193225017
:101160003109288339833AC020918220309183202D
:10117000232B41F4209102203091032020938220E0
:1011800030938320209100203091012021153105DA
:1011900041F42DB73EB74091042050910520241B07
:1011A000350BE0918220F0918320E217F307A0F441
:1011B0002E1B3F0B2817390778F0AC014E5F5F4FAD
:1011C0002417350748F04E0F5F1F4093822050933D
:1011D00083208193919302C0E0E0F0E0CF01DF91A2
:1011E000CF911F910F910895CF93DF93009709F44A
:1011F00081C0FC01329712821382A0918420B091A9
:101200008520109781F420813181820F931F2091D6
:101210008220309183202817390751F5E0938220EE
:10122000F093832067C0ED0120E030E0CE17DF07A8
:1012300040F44A815B819E0141155105F1F0EA01BC
:10124000F5CFC283D38340815181840F951FC81786
:10125000D90759F488819981840F951F029680835C
:1012600091838A819B81828393832115310529F49F
:10127000E0938420F09385203DC0E901EA83FB835D
:1012800049915991C40FD51FEC17FD0761F4808176
:101290009181840F951F0296E90188839983828149
:1012A00093818A839B83E0E0F0E012968D919C917C
:1012B0001397009719F0FD01DC01F7CF8D919C91F8
:1012C00011979D012E5F3F4F820F931F2091822027
:1012D000309183202817390769F4309729F4109248
:1012E00084201092852002C012821382A093822053
:1012F000B0938320DF91CF910895FC01882799272F
:10130000E89421912032E9F3293010F02E30C8F30F
:101310002B3241F02D3239F4689404C00E94B00998
:10132000820F911D219120532A30C0F31EF4909515
:1013300081959F4F0895FB01DC0101900D920020E3
:10134000E1F70895FB01DC014150504030F08D91F0
:101350000190801919F40020B9F7881B990B0895A2
:101360007AE0979F902D879F802D910D11240895ED
:04137000F894FFCF1F
:101374000000862020000119202020262025202C72
:10138400202B2030203320800453544154555300E3
:101394004D4F564500455441534B00454A4F42007A
:1013A40045460053460053460A005354415455538E
:1013B4000A00300A0045460A00310A00320A0033A6
:1013C4000A00340A00350A0039390A00360A0000D6
:00000001FF
